{
  "address": "0x2457279b5AEd753748f21C6999103fC244b00795",
  "abi": [
    {
      "anonymous": false,
      "inputs": [
        {
          "indexed": true,
          "internalType": "address",
          "name": "contractAddress",
          "type": "address"
        },
        {
          "indexed": true,
          "internalType": "address",
          "name": "creator",
          "type": "address"
        }
      ],
      "name": "EthqubCreated",
      "type": "event"
    },
    {
      "inputs": [
        {
          "internalType": "address",
          "name": "_creator",
          "type": "address"
        },
        {
          "internalType": "string",
          "name": "_equbTitle",
          "type": "string"
        },
        {
          "internalType": "uint256",
          "name": "_poolAmount",
          "type": "uint256"
        },
        {
          "internalType": "uint256",
          "name": "_totalCycles",
          "type": "uint256"
        },
        {
          "internalType": "uint256",
          "name": "_cycleDuration",
          "type": "uint256"
        },
        {
          "internalType": "address",
          "name": "priceFeedAddress",
          "type": "address"
        }
      ],
      "name": "createEthqub",
      "outputs": [],
      "stateMutability": "nonpayable",
      "type": "function"
    },
    {
      "inputs": [
        {
          "internalType": "uint256",
          "name": "",
          "type": "uint256"
        }
      ],
      "name": "ethqubArray",
      "outputs": [
        {
          "internalType": "contract Ethqub",
          "name": "",
          "type": "address"
        }
      ],
      "stateMutability": "view",
      "type": "function"
    },
    {
      "inputs": [
        {
          "internalType": "address",
          "name": "",
          "type": "address"
        }
      ],
      "name": "ethqubMapping",
      "outputs": [
        {
          "internalType": "contract Ethqub",
          "name": "",
          "type": "address"
        }
      ],
      "stateMutability": "view",
      "type": "function"
    },
    {
      "inputs": [],
      "name": "getDeployedContracts",
      "outputs": [
        {
          "internalType": "contract Ethqub[]",
          "name": "",
          "type": "address[]"
        }
      ],
      "stateMutability": "view",
      "type": "function"
    },
    {
      "inputs": [
        {
          "internalType": "address",
          "name": "contractAddress",
          "type": "address"
        }
      ],
      "name": "getEthqubDetails",
      "outputs": [
        {
          "internalType": "string",
          "name": "",
          "type": "string"
        },
        {
          "internalType": "uint256",
          "name": "",
          "type": "uint256"
        },
        {
          "internalType": "uint256",
          "name": "",
          "type": "uint256"
        },
        {
          "internalType": "uint256",
          "name": "",
          "type": "uint256"
        },
        {
          "internalType": "uint256",
          "name": "",
          "type": "uint256"
        },
        {
          "internalType": "uint256",
          "name": "",
          "type": "uint256"
        },
        {
          "internalType": "uint256",
          "name": "",
          "type": "uint256"
        },
        {
          "internalType": "uint256",
          "name": "",
          "type": "uint256"
        },
        {
          "internalType": "uint256",
          "name": "",
          "type": "uint256"
        },
        {
          "internalType": "uint256",
          "name": "",
          "type": "uint256"
        },
        {
          "internalType": "uint256",
          "name": "",
          "type": "uint256"
        }
      ],
      "stateMutability": "view",
      "type": "function"
    }
  ],
  "transactionHash": "0xa97ed25e6b582e5a4a17c2a341a048fde049a11a72b69d7feec410a8853e5d2f",
  "args": [],
  "numDeployments": 3,
  "solcInputHash": "c3705a0ad98bcfec390773bbf878ddef",
  "bytecode": "0x608060405234801561001057600080fd5b50611e95806100206000396000f3fe60806040523480156200001157600080fd5b50600436106200005e5760003560e01c806316dc68ee1462000063578063333f5bd11462000097578063aa9a068f14620000c3578063b50d7d8b14620000dc578063b5b0e80b14620000f5575b600080fd5b6200007a62000074366004620003b7565b62000125565b6040516001600160a01b0390911681526020015b60405180910390f35b6200007a620000a8366004620003ee565b6001602052600090815260409020546001600160a01b031681565b620000cd62000150565b6040516200008e919062000413565b620000f3620000ed366004620004d7565b620001b4565b005b6200010c62000106366004620003ee565b62000294565b6040516200008e9b9a99989796959493929190620005f4565b600081815481106200013657600080fd5b6000918252602090912001546001600160a01b0316905081565b60606000805480602002602001604051908101604052809291908181526020018280548015620001aa57602002820191906000526020600020905b81546001600160a01b031681526001909101906020018083116200018b575b5050505050905090565b6000868686868686604051620001ca90620003a9565b620001db9695949392919062000659565b604051809103906000f080158015620001f8573d6000803e3d6000fd5b5060008054600181810183557f290decd9548b62a8d60345a988386fc84ba6bc95484008f6362f93160ef3e56390910180546001600160a01b038086166001600160a01b0319928316811790935582855260209390935260408085208054909216831790915551939450908a169290917ffbb20e1d7e6324290fb1e279ba173c2aed27229abdb8292ba483c04067bbd77d91a350505050505050565b6001600160a01b0381811660009081526001602052604081205460609282918291829182918291829182918291829116620003155760405162461bcd60e51b815260206004820152601760248201527f436f6e747261637420646f6573206e6f74206578697374000000000000000000604482015260640160405180910390fd5b60008c9050806001600160a01b03166356dad8dc6040518163ffffffff1660e01b8152600401600060405180830381865afa15801562000359573d6000803e3d6000fd5b505050506040513d6000823e601f3d908101601f19168201604052620003839190810190620006a5565b9b509b509b509b509b509b509b509b509b509b509b505091939597999b90929496989a50565b6116d4806200078c83390190565b600060208284031215620003ca57600080fd5b5035919050565b80356001600160a01b0381168114620003e957600080fd5b919050565b6000602082840312156200040157600080fd5b6200040c82620003d1565b9392505050565b6020808252825182820181905260009190848201906040850190845b81811015620004565783516001600160a01b0316835292840192918401916001016200042f565b50909695505050505050565b634e487b7160e01b600052604160045260246000fd5b604051601f8201601f1916810167ffffffffffffffff81118282101715620004a457620004a462000462565b604052919050565b600067ffffffffffffffff821115620004c957620004c962000462565b50601f01601f191660200190565b60008060008060008060c08789031215620004f157600080fd5b620004fc87620003d1565b9550602087013567ffffffffffffffff8111156200051957600080fd5b8701601f810189136200052b57600080fd5b8035620005426200053c82620004ac565b62000478565b8181528a60208385010111156200055857600080fd5b816020840160208301376000602083830101528097505050506040870135935060608701359250608087013591506200059460a08801620003d1565b90509295509295509295565b60005b83811015620005bd578181015183820152602001620005a3565b50506000910152565b60008151808452620005e0816020860160208601620005a0565b601f01601f19169290920160200192915050565b60006101608083526200060a8184018f620005c6565b602084019d909d52505060408101999099526060890197909752608088019590955260a087019390935260c086019190915260e085015261010084015261012083015261014090910152919050565b600060018060a01b03808916835260c060208401526200067d60c0840189620005c6565b915086604084015285606084015284608084015280841660a084015250979650505050505050565b60008060008060008060008060008060006101608c8e031215620006c857600080fd5b8b5167ffffffffffffffff811115620006e057600080fd5b8c01601f81018e13620006f257600080fd5b8051620007036200053c82620004ac565b8181528f60208385010111156200071957600080fd5b6200072c826020830160208601620005a0565b809d5050505060208c0151995060408c0151985060608c0151975060808c0151965060a08c0151955060c08c0151945060e08c015193506101008c015192506101208c015191506101408c015190509295989b509295989b909396995056fe60c06040524260a0526000600181905560028190556006553480156200002457600080fd5b50604051620016d4380380620016d4833981016040819052620000479162000177565b6001600160a01b0386166080819052600c80546001600160a01b031916909117905560006200007786826200031d565b506004849055620000898385620003e9565b60055560078390556008829055600060068190556009805460018181019092557f6e1540171b6c0c960b71a7020d9f60077f6af931a8bbf590da0223dacf75c7af018054336001600160a01b03199182168117909255600a80548085019091557fc65a7bb8d6351c1cf70c95a316cc6a92839c986682d98bc35f958f4883f9d2a8018054909116821790558252600b60205260408220805491929091620001329084906200040c565b90915550620004349650505050505050565b80516001600160a01b03811681146200015c57600080fd5b919050565b634e487b7160e01b600052604160045260246000fd5b60008060008060008060c087890312156200019157600080fd5b6200019c8762000144565b602088810151919750906001600160401b0380821115620001bc57600080fd5b818a0191508a601f830112620001d157600080fd5b815181811115620001e657620001e662000161565b604051601f8201601f19908116603f0116810190838211818310171562000211576200021162000161565b816040528281528d868487010111156200022a57600080fd5b600093505b828410156200024e57848401860151818501870152928501926200022f565b6000868483010152809a505050505050506040870151935060608701519250608087015191506200028260a0880162000144565b90509295509295509295565b600181811c90821680620002a357607f821691505b602082108103620002c457634e487b7160e01b600052602260045260246000fd5b50919050565b601f8211156200031857600081815260208120601f850160051c81016020861015620002f35750805b601f850160051c820191505b818110156200031457828155600101620002ff565b5050505b505050565b81516001600160401b0381111562000339576200033962000161565b62000351816200034a84546200028e565b84620002ca565b602080601f831160018114620003895760008415620003705750858301515b600019600386901b1c1916600185901b17855562000314565b600085815260208120601f198616915b82811015620003ba5788860151825594840194600190910190840162000399565b5085821015620003d95787850151600019600388901b60f8161c191681555b5050505050600190811b01905550565b6000826200040757634e487b7160e01b600052601260045260246000fd5b500490565b808201808211156200042e57634e487b7160e01b600052601160045260246000fd5b92915050565b60805160a05161126c62000468600039600081816103fc0152610b760152600081816101a3015261087f015261126c6000f3fe6080604052600436106101855760003560e01c80635daf08ca116100d1578063ccbac9f51161008a578063dbdff2c111610064578063dbdff2c11461041e578063f8b2cb4f14610433578063fcf488a91461045b578063ff186b2e1461047b57600080fd5b8063ccbac9f5146103cc578063d393b978146103e2578063d8270dce146103ea57600080fd5b80635daf08ca14610328578063a165768114610348578063a447ce5b1461035e578063a693600b1461038b578063bab2f552146103a1578063bf85ef32146103b757600080fd5b806339518b5e1161013e57806348d555eb1161011857806348d555eb146102a857806356dad8dc146102be578063570f8813146102ea5780635bec4cb41461031257600080fd5b806339518b5e1461025c5780633f3b3b2714610272578063446ad5491461028857600080fd5b806302d05d3f1461019157806306e4a5d8146101e2578063148c0c75146101ec5780632a289e67146102015780632fcc345b14610216578063335e536c1461023857600080fd5b3661018c57005b600080fd5b34801561019d57600080fd5b506101c57f000000000000000000000000000000000000000000000000000000000000000081565b6040516001600160a01b0390911681526020015b60405180910390f35b6101ea610491565b005b3480156101f857600080fd5b506101ea610639565b34801561020d57600080fd5b506101ea610874565b34801561022257600080fd5b5061022b610aa9565b6040516101d99190610fe5565b34801561024457600080fd5b5061024e60025481565b6040519081526020016101d9565b34801561026857600080fd5b5061024e60015481565b34801561027e57600080fd5b5061024e60035481565b34801561029457600080fd5b506101c56102a3366004610ff8565b610b37565b3480156102b457600080fd5b5061024e60055481565b3480156102ca57600080fd5b506102d3610b61565b6040516101d99b9a99989796959493929190611011565b3480156102f657600080fd5b506101c573694aa1769357215de4fac081bf1f309adc32530681565b34801561031e57600080fd5b5061024e60085481565b34801561033457600080fd5b506101c5610343366004610ff8565b610c62565b34801561035457600080fd5b5061024e60075481565b34801561036a57600080fd5b5061024e610379366004611074565b600b6020526000908152604090205481565b34801561039757600080fd5b5061024e60045481565b3480156103ad57600080fd5b5061024e60065481565b3480156103c357600080fd5b5061024e610c72565b3480156103d857600080fd5b5061024e600d5481565b6101ea610c94565b3480156103f657600080fd5b5061024e7f000000000000000000000000000000000000000000000000000000000000000081565b34801561042a57600080fd5b5061024e610ea0565b34801561043f57600080fd5b5061024e61044e366004611074565b6001600160a01b03163190565b34801561046757600080fd5b50600c546101c5906001600160a01b031681565b34801561048757600080fd5b5061024e600e5481565b336000908152600b602052604081205490036104e35760405162461bcd60e51b815260206004820152600c60248201526b2737ba10309036b2b6b132b960a11b60448201526064015b60405180910390fd5b600654336000908152600b602052604090205411156105445760405162461bcd60e51b815260206004820152601b60248201527f416c7265616479207061696420666f722074686973206379636c65000000000060448201526064016104da565b600754600654106105885760405162461bcd60e51b815260206004820152600e60248201526d115c5d58881a185cc8195b99195960921b60448201526064016104da565b60055434146105d95760405162461bcd60e51b815260206004820152601d60248201527f496e636f727265637420636f6e747269627574696f6e20616d6f756e7400000060448201526064016104da565b336000908152600b602052604081208054600192906105f99084906110b3565b909155505060055460405190815233907f2042b7712cb5296596d92ab14e92638ac307b3b6300fa48c5ccd37ad6adbbeb1906020015b60405180910390a2565b600c546001600160a01b0316331461068a5760405162461bcd60e51b81526020600482015260146024820152732737ba103a343290363ab1b5bc903bb4b73732b960611b60448201526064016104da565b6001546000036106d35760405162461bcd60e51b8152602060048201526014602482015273115c5d58881b9bdd081cdd185c9d1959081e595d60621b60448201526064016104da565b60085442101561071b5760405162461bcd60e51b815260206004820152601360248201527210de58db19481b9bdd08195b991959081e595d606a1b60448201526064016104da565b600954600554479160009161073091906110cc565b90508082111561073e578091505b600c80546001600160a01b031981169091556040516001600160a01b0390911690600090829085908381818185875af1925050503d806000811461079e576040519150601f19603f3d011682016040523d82523d6000602084013e6107a3565b606091505b50509050806107eb5760405162461bcd60e51b81526020600482015260146024820152732330b4b632b2103a379039b2b7321022ba3432b960611b60448201526064016104da565b816001600160a01b03167f9206244e7d07ef9a49c1dae86e820d494f0dd268fa04f434eb1de8475a4bb5548560405161082691815260200190565b60405180910390a26007546006540361086e576040516001600160a01b038316907fd29e8545d33d16738453f73ba7267664418170c341c7ab7e3eb60e1fa27dd18e90600090a25b50505050565b336001600160a01b037f000000000000000000000000000000000000000000000000000000000000000016146108fc5760405162461bcd60e51b815260206004820152602760248201527f4f6e6c79207468652063726561746f722063616e2063616c6c207468697320666044820152663ab731ba34b7b760c91b60648201526084016104da565b60085460035461090c91906110b3565b4210156109515760405162461bcd60e51b815260206004820152601360248201527210de58db19481b9bdd08195b991959081e595d606a1b60448201526064016104da565b600061095b610ea0565b9050600a8181548110610970576109706110e3565b600091825260209091200154600c80546001600160a01b0319166001600160a01b0390921691909117905542600355600a5460011015610a2557600a80546109ba906001906110f9565b815481106109ca576109ca6110e3565b600091825260209091200154600a80546001600160a01b0390921691839081106109f6576109f66110e3565b9060005260206000200160006101000a8154816001600160a01b0302191690836001600160a01b031602179055505b600a805480610a3657610a3661110c565b600082815260208120820160001990810180546001600160a01b03191690559091019091556006805491610a6983611122565b9091555050600c546040516001600160a01b03909116907f5b690ec4a06fe979403046eaeea5b3ce38524683c3001f662c8b5a829632f7df90600090a250565b60008054610ab69061113b565b80601f0160208091040260200160405190810160405280929190818152602001828054610ae29061113b565b8015610b2f5780601f10610b0457610100808354040283529160200191610b2f565b820191906000526020600020905b815481529060010190602001808311610b1257829003601f168201915b505050505081565b600a8181548110610b4757600080fd5b6000918252602090912001546001600160a01b0316905081565b606060008060008060008060008060008060007f00000000000000000000000000000000000000000000000000000000000000006001546002546003546004546005546006546007546008546009805490508a8054610bbf9061113b565b80601f0160208091040260200160405190810160405280929190818152602001828054610beb9061113b565b8015610c385780601f10610c0d57610100808354040283529160200191610c38565b820191906000526020600020905b815481529060010190602001808311610c1b57829003601f168201915b50505050509a509a509a509a509a509a509a509a509a509a509a509a50909192939495969798999a565b60098181548110610b4757600080fd5b600f54600090610c8a906001600160a01b0316610f1c565b600e819055919050565b60075460095410610cd65760405162461bcd60e51b815260206004820152600c60248201526b115c5d58881a5cc8199d5b1b60a21b60448201526064016104da565b60055433311015610d205760405162461bcd60e51b8152602060048201526014602482015273496e73756666696369656e742062616c616e636560601b60448201526064016104da565b336000908152600b602052604090205415610d705760405162461bcd60e51b815260206004820152601060248201526f20b63932b0b23c90309036b2b6b132b960811b60448201526064016104da565b6005543414610dc15760405162461bcd60e51b815260206004820152601d60248201527f496e636f727265637420636f6e747269627574696f6e20616d6f756e7400000060448201526064016104da565b6009805460018082019092557f6e1540171b6c0c960b71a7020d9f60077f6af931a8bbf590da0223dacf75c7af018054336001600160a01b03199182168117909255600a80548085019091557fc65a7bb8d6351c1cf70c95a316cc6a92839c986682d98bc35f958f4883f9d2a8018054909116821790556000908152600b602052604081208054909190610e569084906110b3565b909155505060075460095403610e6b57426001555b60055460405190815233907f7f3b9effe05cfb4f31f854004de03199fd03fe56bf38a48b2aa9a9f4402d6e239060200161062f565b6000610ead6001436110f9565b4042336006545a6040805160208101969096528501939093526bffffffffffffffffffffffff19606092831b16918401919091526074830152609482015260b40160408051601f198184030181529190528051602090910120600d819055600a54610f1791611175565b905090565b600080826001600160a01b031663feaf968c6040518163ffffffff1660e01b815260040160a060405180830381865afa158015610f5d573d6000803e3d6000fd5b505050506040513d601f19601f82011682018060405250810190610f8191906111b6565b505050915050806402540be400610f989190611206565b9392505050565b6000815180845260005b81811015610fc557602081850181015186830182015201610fa9565b506000602082860101526020601f19601f83011685010191505092915050565b602081526000610f986020830184610f9f565b60006020828403121561100a57600080fd5b5035919050565b60006101608083526110258184018f610f9f565b602084019d909d52505060408101999099526060890197909752608088019590955260a087019390935260c086019190915260e085015261010084015261012083015261014090910152919050565b60006020828403121561108657600080fd5b81356001600160a01b0381168114610f9857600080fd5b634e487b7160e01b600052601160045260246000fd5b808201808211156110c6576110c661109d565b92915050565b80820281158282048414176110c6576110c661109d565b634e487b7160e01b600052603260045260246000fd5b818103818111156110c6576110c661109d565b634e487b7160e01b600052603160045260246000fd5b6000600182016111345761113461109d565b5060010190565b600181811c9082168061114f57607f821691505b60208210810361116f57634e487b7160e01b600052602260045260246000fd5b50919050565b60008261119257634e487b7160e01b600052601260045260246000fd5b500690565b805169ffffffffffffffffffff811681146111b157600080fd5b919050565b600080600080600060a086880312156111ce57600080fd5b6111d786611197565b94506020860151935060408601519250606086015191506111fa60808701611197565b90509295509295909350565b80820260008212600160ff1b841416156112225761122261109d565b81810583148215176110c6576110c661109d56fea26469706673582212205db20bfb00079d8b64a1b458a35b49300b459d2d3e69f77d2125bc2d9a8c640564736f6c63430008140033a264697066735822122036de60735f8fdbcc2a2a9bd7e10364c961f470f04b76da2d161aef699285f12664736f6c63430008140033",
  "devdoc": {
    "kind": "dev",
    "methods": {},
    "version": 1
  },
  "userdoc": {
    "kind": "user",
    "methods": {},
    "version": 1
  },
  "storageLayout": {
    "storage": [
      {
        "astId": 797,
        "contract": "contracts/EthqubFactory.sol:EthqubFactory",
        "label": "ethqubArray",
        "offset": 0,
        "slot": "0",
        "type": "t_array(t_contract(Ethqub)788)dyn_storage"
      },
      {
        "astId": 802,
        "contract": "contracts/EthqubFactory.sol:EthqubFactory",
        "label": "ethqubMapping",
        "offset": 0,
        "slot": "1",
        "type": "t_mapping(t_address,t_contract(Ethqub)788)"
      }
    ],
    "types": {
      "t_address": {
        "encoding": "inplace",
        "label": "address",
        "numberOfBytes": "20"
      },
      "t_array(t_contract(Ethqub)788)dyn_storage": {
        "base": "t_contract(Ethqub)788",
        "encoding": "dynamic_array",
        "label": "contract Ethqub[]",
        "numberOfBytes": "32"
      },
      "t_contract(Ethqub)788": {
        "encoding": "inplace",
        "label": "contract Ethqub",
        "numberOfBytes": "20"
      },
      "t_mapping(t_address,t_contract(Ethqub)788)": {
        "encoding": "mapping",
        "key": "t_address",
        "label": "mapping(address => contract Ethqub)",
        "numberOfBytes": "32",
        "value": "t_contract(Ethqub)788"
      }
    }
  }
}