{
  "address": "0x98088e421a7aC113d0805bA81BdC31f129c83Fcc",
  "abi": [
    {
      "anonymous": false,
      "inputs": [
        {
          "indexed": true,
          "internalType": "address",
          "name": "contractAddress",
          "type": "address"
        },
        {
          "indexed": true,
          "internalType": "address",
          "name": "creator",
          "type": "address"
        }
      ],
      "name": "EthqubCreated",
      "type": "event"
    },
    {
      "inputs": [
        {
          "internalType": "address",
          "name": "_creator",
          "type": "address"
        },
        {
          "internalType": "string",
          "name": "_equbTitle",
          "type": "string"
        },
        {
          "internalType": "uint256",
          "name": "_poolAmount",
          "type": "uint256"
        },
        {
          "internalType": "uint256",
          "name": "_totalCycles",
          "type": "uint256"
        },
        {
          "internalType": "uint256",
          "name": "_cycleDuration",
          "type": "uint256"
        },
        {
          "internalType": "string",
          "name": "_ipfsHash",
          "type": "string"
        },
        {
          "internalType": "uint256",
          "name": "_startingTime",
          "type": "uint256"
        },
        {
          "internalType": "uint256",
          "name": "_creditScore",
          "type": "uint256"
        },
        {
          "internalType": "address",
          "name": "priceFeedAddress",
          "type": "address"
        }
      ],
      "name": "createEthqub",
      "outputs": [
        {
          "internalType": "address",
          "name": "",
          "type": "address"
        }
      ],
      "stateMutability": "payable",
      "type": "function"
    },
    {
      "inputs": [
        {
          "internalType": "uint256",
          "name": "",
          "type": "uint256"
        }
      ],
      "name": "ethqubArray",
      "outputs": [
        {
          "internalType": "contract Ethqub",
          "name": "",
          "type": "address"
        }
      ],
      "stateMutability": "view",
      "type": "function"
    },
    {
      "inputs": [
        {
          "internalType": "address",
          "name": "",
          "type": "address"
        }
      ],
      "name": "ethqubMapping",
      "outputs": [
        {
          "internalType": "contract Ethqub",
          "name": "",
          "type": "address"
        }
      ],
      "stateMutability": "view",
      "type": "function"
    },
    {
      "inputs": [],
      "name": "getDeployedContracts",
      "outputs": [
        {
          "internalType": "contract Ethqub[]",
          "name": "",
          "type": "address[]"
        }
      ],
      "stateMutability": "view",
      "type": "function"
    },
    {
      "inputs": [
        {
          "internalType": "address",
          "name": "contractAddress",
          "type": "address"
        }
      ],
      "name": "getEthqubDetails",
      "outputs": [
        {
          "internalType": "string",
          "name": "",
          "type": "string"
        },
        {
          "internalType": "uint256",
          "name": "",
          "type": "uint256"
        },
        {
          "internalType": "uint256",
          "name": "",
          "type": "uint256"
        },
        {
          "internalType": "uint256",
          "name": "",
          "type": "uint256"
        },
        {
          "internalType": "uint256",
          "name": "",
          "type": "uint256"
        },
        {
          "internalType": "uint256",
          "name": "",
          "type": "uint256"
        },
        {
          "internalType": "uint256",
          "name": "",
          "type": "uint256"
        },
        {
          "internalType": "uint256",
          "name": "",
          "type": "uint256"
        },
        {
          "internalType": "uint256",
          "name": "",
          "type": "uint256"
        },
        {
          "internalType": "uint256",
          "name": "",
          "type": "uint256"
        },
        {
          "internalType": "uint256",
          "name": "",
          "type": "uint256"
        },
        {
          "internalType": "string",
          "name": "",
          "type": "string"
        },
        {
          "internalType": "address",
          "name": "",
          "type": "address"
        },
        {
          "internalType": "address[]",
          "name": "",
          "type": "address[]"
        },
        {
          "internalType": "address[]",
          "name": "",
          "type": "address[]"
        },
        {
          "internalType": "address[]",
          "name": "",
          "type": "address[]"
        },
        {
          "internalType": "uint256[]",
          "name": "",
          "type": "uint256[]"
        }
      ],
      "stateMutability": "view",
      "type": "function"
    },
    {
      "inputs": [
        {
          "internalType": "address",
          "name": "contractAddress",
          "type": "address"
        },
        {
          "internalType": "address",
          "name": "_joiner",
          "type": "address"
        }
      ],
      "name": "joinEthqub",
      "outputs": [],
      "stateMutability": "payable",
      "type": "function"
    },
    {
      "inputs": [
        {
          "internalType": "address",
          "name": "contractAddress",
          "type": "address"
        }
      ],
      "name": "withdrawEthqub",
      "outputs": [],
      "stateMutability": "payable",
      "type": "function"
    }
  ],
  "transactionHash": "0x0a051940b71f67b45213520b230743f5eb35ccf16a2cfff910664b7e19418506",
  "args": [],
  "numDeployments": 5,
  "solcInputHash": "05419f7907c47223d4d0ea4cd9ea5a57",
  "bytecode": "0x6080806040523461001657612773908161001c8239f35b600080fdfe6102606040526004803610156200001557600080fd5b6000806101e052803560e01c806316dc68ee14620008e1578063333f5bd1146200089e5780636626826a1462000816578063aa9a068f146200073e578063af634c191462000694578063b5b0e80b146200025c5763bb762ad1146200007957600080fd5b610120908160031936011262000255576200009362000977565b67ffffffffffffffff6024358181116200025557620000b6903690870162000a89565b60a4358281116200025557620000d0903690880162000a89565b6001600160a01b03946101043586811693919084900362000252575060405194611b2f808701958611878710176200023957926200012f610100938962000156948a99989762000c0f8b39169a8b8852806020890152870190620009b8565b9060443560408701526064356060870152608435608087015285820360a0870152620009b8565b9260c43560c082015260e43560e08201520152039034f080156200022b576101e05193845494680100000000000000008610156200021357505081620001a7856001602097016101e051556200092c565b939092169282549060031b9184831b921b1916179055806101e05152600183526101e0519160408320826bffffffffffffffffffffffff60a01b825416179055817ffbb20e1d7e6324290fb1e279ba173c2aed27229abdb8292ba483c04067bbd77d6040519480a38152f35b634e487b7160e01b905260419052506101e051602490fd5b6040513d6101e051823e3d90fd5b60418a634e487b7160e01b6101e051525260246101e051fd5b80fd5b6101e05180fd5b82346200025557602036600319011262000255576001600160a01b036200028262000977565b16806101e051526001602052620002aa60018060a01b0360406101e051205416151562000ad6565b60405180926315b6b63760e21b8252816101e051935afa8061020052156200022b576101e0519081826101a052826080528283918485868790889289948a988b988c809c81610180526102005162000442575b5093620003f29d9a9793620003a59793620003ca9b979362000339620003de9f9c986040518061014052610220809152610140510190620009b8565b9860206101405101526101a05160406101405101526080516060610140510152608061014051015260a061014051015260c061014051015260e06101405101526101006101405101526101206101405101526101408051015261014051610160818403910152620009b8565b9160018060a01b0316610180610140510152610140516101a0818403910152620009df565b90610140516101c0818403910152620009df565b90610140516101e0818403910152620009df565b610140516102008183039101526020610180515191828152019060206101805101906101e0515b8181106200042b576101405180850390f35b825184526020938401939092019160010162000419565b9c509c5050505050505050505050503d8092823e62000462828262000a49565b6102208183810103126200025557805167ffffffffffffffff81116200025557620004939083830190830162000b23565b91602082015192604083015191606084015160e05260808401519160a08501519060c08601519360e08701519761010088015196610120890151956101408a0151936101608b015167ffffffffffffffff81116200025557620004fc90838d01908d0162000b23565b956200050c6101808d0162000b70565b926101a08d015167ffffffffffffffff811162000255578d6200053491838201910162000b9e565b60c0526101c08d015167ffffffffffffffff811162000255578d6200055e91838201910162000b9e565b610160526101e08d015167ffffffffffffffff811162000255578d6200058991838201910162000b9e565b60a0526102008d0151806101c05267ffffffffffffffff81116200025557818e01818f01601f01121562000255578d015161024052620005e3620005d06102405162000b85565b8061010052604051806101205262000a49565b610120516102205261024051610220515260206101205101610220526101c0518d01908d0160206102405160051b8301011162000255576020015b60208d6102405160051b906101c05101010181101562000656576020818192516102205152816102205101610220520190506200061e565b506101a09390935260e05160805260c0516101605160a0516101205161018052909d909c50929a909994989697959695909492939091908e620002fd565b5060403660031901126200025557620006ac62000977565b6001600160a01b039160243583811692919083900362000252575082620006eb911692836101e05152600160205260406101e051205416151562000ad6565b813b15620002555760405192636a49cc5760e11b8452830152816024816101e0519334905af180156200022b5762000725575b6101e05180f35b620007309062000a1e565b6101e05180156200071e5780fd5b3462000255576101e05180600319360112620002525760405190819054808352602080930180916101e05180527f290decd9548b62a8d60345a988386fc84ba6bc95484008f6362f93160ef3e563906101e0515b86828210620007f8578686620007ab8288038362000a49565b60405192839281840190828552518091526040840192916101e0515b828110620007d757505050500390f35b83516001600160a01b031685528695509381019392810192600101620007c7565b83546001600160a01b03168552909301926001928301920162000792565b82602036600319011262000255576001600160a01b0362000859816200083b62000977565b1691826101e05152600160205260406101e051205416151562000ad6565b803b156200025557604051809263148c0c7560e01b8252816101e05180945af180156200022b576200088c576101e05180f35b620008979062000a1e565b806200071e565b3462000255576020366003190112620002555760206001600160a01b0380620008c662000977565b166101e051526001825260406101e051205416604051908152f35b50903462000928576020366003190112620009285735908054821015620002525760206200090f836200092c565b905460405160039290921b1c6001600160a01b03168152f35b5080fd5b90600091825481101562000963578280527f290decd9548b62a8d60345a988386fc84ba6bc95484008f6362f93160ef3e563019190565b634e487b7160e01b83526032600452602483fd5b600435906001600160a01b03821682036200098e57565b600080fd5b60005b838110620009a75750506000910152565b818101518382015260200162000996565b90602091620009d38151809281855285808601910162000993565b601f01601f1916010190565b90815180825260208080930193019160005b82811062000a00575050505090565b83516001600160a01b031685529381019392810192600101620009f1565b67ffffffffffffffff811162000a3357604052565b634e487b7160e01b600052604160045260246000fd5b90601f8019910116810190811067ffffffffffffffff82111762000a3357604052565b67ffffffffffffffff811162000a3357601f01601f191660200190565b81601f820112156200098e5780359062000aa38262000a6c565b9262000ab3604051948562000a49565b828452602083830101116200098e57816000926020809301838601378301015290565b1562000ade57565b60405162461bcd60e51b815260206004820152601760248201527f436f6e747261637420646f6573206e6f742065786973740000000000000000006044820152606490fd5b81601f820112156200098e57805162000b3c8162000a6c565b9262000b4c604051948562000a49565b818452602082840101116200098e5762000b6d916020808501910162000993565b90565b51906001600160a01b03821682036200098e57565b67ffffffffffffffff811162000a335760051b60200190565b81601f820112156200098e5780519162000bb88362000b85565b9262000bc8604051948562000a49565b808452602092838086019260051b8201019283116200098e578301905b82821062000bf4575050505090565b83809162000c028462000b70565b81520191019062000be556fe60c060405262001b2f803803806200001781620004f7565b92833981019061012081830312620004f25762000034816200051d565b602080830151919290916001600160401b0390818111620004f257856200005d91840162000532565b9460408301519060608401519060808501519060a086015190858211620004f2576200008b91870162000532565b91620000a061010060c088015197016200051d565b504260a05287608052885193858511620004dc576002549460019a8b87811c97168015620004d1575b8a881014620004bb578190601f9788811162000464575b508a90888311600114620003ef57600092620003e3575b5050600019600383901b1c1916908b1b176002555b806006558115620003cd57819004600755600955600a55836003556004938455600060085580519283116200029f576011548781811c91168015620003c2575b86821014620003ad579081838594931162000354575b5085918311600114620002ea57600092620002de575b5050600019600383901b1c191690851b176011555b600b5492680100000000000000009384811015620002c95785810180600b55811015620002b457600b60009081528490200180546001600160a01b03929092166001600160a01b03199283168117909155600d54858110156200029f5786810180600d558110156200028a57600d600052846000200191825416179055600e5492831015620002755783830180600e55831015620002605750600e600052600020015560405161158a9081620005a58239608051818181610ac60152610f36015260a0518181816103b70152610a410152f35b603290634e487b7160e01b6000525260246000fd5b604190634e487b7160e01b6000525260246000fd5b603284634e487b7160e01b6000525260246000fd5b604184634e487b7160e01b6000525260246000fd5b603283634e487b7160e01b6000525260246000fd5b604183634e487b7160e01b6000525260246000fd5b01519050388062000178565b90879350601f198316916011600052866000209260005b888282106200033d575050841162000323575b505050811b016011556200018d565b015160001960f88460031b161c1916905538808062000314565b8385015186558b9790950194938401930162000301565b909192506011600052856000208380860160051c820192888710620003a3575b9186958b929594930160051c01915b8281106200039357505062000162565b600081558695508a910162000383565b9250819262000374565b602285634e487b7160e01b6000525260246000fd5b90607f16906200014c565b634e487b7160e01b600052601260045260246000fd5b015190503880620000f7565b908d9350601f1983169160026000528c600020928d6000905b82821062000443575050841162000429575b505050811b016002556200010c565b015160001960f88460031b161c191690553880806200041a565b91929395968291958786015181550195019301908f95949392918e62000408565b90915060026000528a6000208880850160051c8201928d8610620004b1575b918f91869594930160051c01915b828110620004a1575050620000e0565b600081558594508f910162000491565b9250819262000483565b634e487b7160e01b600052602260045260246000fd5b96607f1696620000c9565b634e487b7160e01b600052604160045260246000fd5b600080fd5b6040519190601f01601f191682016001600160401b03811183821017620004dc57604052565b51906001600160a01b0382168203620004f257565b919080601f84011215620004f25782516001600160401b038111620004dc5760209062000568601f8201601f19168301620004f7565b92818452828287010111620004f25760005b8181106200059057508260009394955001015290565b85810183015184820184015282016200057a56fe61014080604052600480361015610020575b5050361561001e57600080fd5b005b60003560e01c91826302d05d3f14610f2357508163148c0c7514610d305781632a289e6714610d035781632fcc345b14610ce7578163335e536c14610cca57816339518b5e14610cac57816339da315214610c8e5781633f3b3b2714610c70578163446ad54914610c4957816348d555eb14610c2b5781634a76d31214610bf657816356dad8dc14610876578163570f8813146108475781635bec4cb4146108295781635daf08ca146107e9578163a1657681146107cb578163a230c52414610794578163a693600b14610776578163bab2f55214610758578163bf85ef3214610691578163c252259814610638578163c5a0a74d1461060b578163c623674f146105d7578163ccbac9f5146105b9578163d49398ae146103da578163d8270dce1461039f578163dbdff2c11461037c578163eb333096146101fe578163f8b2cb4f146101d057508063fcf488a9146101a75763ff186b2e14610184573880610011565b346101a25760003660031901126101a2576020600054604051908152f35b600080fd5b346101a25760003660031901126101a257600f546040516001600160a01b039091168152602090f35b346101a25760203660031901126101a257356001600160a01b03811681036101a25760209031604051908152f35b60203660031901126101a25780356001600160a01b03811691908281036101a25761022881611299565b600954809110156103495761024461023f83611299565b6111c9565b90546008549160031b1c81106103055710156102d05761023f61026691611299565b819291549060031b9181831c90600182018092116102bb5750821b91600019901b19161790557f2042b7712cb5296596d92ab14e92638ac307b3b6300fa48c5ccd37ad6adbbeb16020600754604051908152a2005b601190634e487b7160e01b6000525260246000fd5b60405162461bcd60e51b8152602081840152600e60248201526d115c5d58881a185cc8195b99195960921b6044820152606490fd5b60405162461bcd60e51b8152602081860152601b60248201527f416c7265616479207061696420666f722074686973206379636c6500000000006044820152606490fd5b60405162461bcd60e51b8152602081850152600c60248201526b2737ba10309036b2b6b132b960a11b6044820152606490fd5b346101a25760003660031901126101a25760206103976112fc565b604051908152f35b346101a25760003660031901126101a25760206040517f00000000000000000000000000000000000000000000000000000000000000008152f35b60203660031901126101a25780356001600160a01b038116918282036101a257600b54916009548310156105865780316007541161054b57678ac7230489e8000061042482611299565b0361051457600160401b92838110156104ff578161044b82600161046a9401600b55611200565b90919082549060031b9160018060a01b03809116831b921b1916179055565b600d54838110156104ff579061044b8260016104899401600d5561117c565b600e54918210156104ea57508060016104a59201600e556111c9565b81549060031b906001821b91600019901b19161790557f7f3b9effe05cfb4f31f854004de03199fd03fe56bf38a48b2aa9a9f4402d6e236020600754604051908152a2005b604190634e487b7160e01b6000525260246000fd5b604183634e487b7160e01b6000525260246000fd5b60405162461bcd60e51b8152602081840152601060248201526f20b63932b0b23c90309036b2b6b132b960811b6044820152606490fd5b60405162461bcd60e51b81526020818401526014602482015273496e73756666696369656e742062616c616e636560601b6044820152606490fd5b60405162461bcd60e51b8152602081840152600c60248201526b115c5d58881a5cc8199d5b1b60a21b6044820152606490fd5b346101a25760003660031901126101a2576020601054604051908152f35b346101a25760003660031901126101a2576106076105f3611088565b60405191829160208352602083019061113c565b0390f35b346101a25760203660031901126101a257356001600160a01b03811681036101a257610397602091611299565b346101a25760203660031901126101a25735600c548110156101a257600c6000527fdf6966c971051c3d54ec59162606531493a51404a002842f56009d7e5cf4a8c701546040516001600160a01b039091168152602090f35b346101a25760003660031901126101a257600154604051633fabe5a360e21b8152919060a0908390839082906001600160a01b03165afa91821561074c576000926106fe575b506402540be400918281029281840514901517156102bb5760208280600055604051908152f35b90915060a0813d8211610744575b8161071960a09383610f65565b810103126101a25761072a8161153d565b5061073c60806020830151920161153d565b5090826106d7565b3d915061070c565b6040513d6000823e3d90fd5b346101a25760003660031901126101a2576020600854604051908152f35b346101a25760003660031901126101a2576020600654604051908152f35b346101a25760203660031901126101a257356001600160a01b03811681036101a2576107c16020916114ec565b6040519015158152f35b346101a25760003660031901126101a2576020600954604051908152f35b346101a25760203660031901126101a25735600b548110156101a257610810602091611200565b905460405160039290921b1c6001600160a01b03168152f35b346101a25760003660031901126101a2576020600a54604051908152f35b346101a25760003660031901126101a257602060405173694aa1769357215de4fac081bf1f309adc3253068152f35b346101a25760003660031901126101a25760035490549060055460c0526006546007549160085492600954600a54600b54916108b0610f9d565b966108b9611088565b946040519788896020600d549283815201600d6000527fd7b6990105719101dabeb77144f2a3385c8033acd3af97e9423a695e81ad1eb59260005b818110610bd45750506109099250038a610f65565b6040519a60208c88815201600b6000528c7f0175b7a638427703f0dbe7bb9bbf987a2551717b34e79f33b5b1008d1fa01db99160005b8a8110610bb357506109539250038d610f65565b6040519a8b8c6020600c549283815201600c6000527fdf6966c971051c3d54ec59162606531493a51404a002842f56009d7e5cf4a8c79260005b818110610b8e5750506109a29250038d610f65565b604051806080528061010052600e548091526020608051018060805260e052600e6000527fbb7b4a454dc3493923482f07822329ed19e8244eff582cc204f8554c3620c3fd6000610120525b816101205110610b6957505093610b119a9793610abc9793610b239e9b9793610a3e610aff9c98610a2761010051806080510390610f65565b6040518060a05261022080915260a051019061113c565b987f0000000000000000000000000000000000000000000000000000000000000000602060a0510152604060a0510152606060a051015260c051608060a051015260a08051015260c060a051015260e060a051015261010060a051015261012060a051015261014060a051015260a05161016081840391015261113c565b9060018060a01b037f00000000000000000000000000000000000000000000000000000000000000001661018060a051015260a0516101a0818403910152611237565b9060a0516101c0818403910152611237565b9060a0516101e0818403910152611237565b60a0516102008183039101526020610100515191828152019060e0519060005b818110610b535760a05180850390f35b8251845260209384019390920191600101610b43565b80600191546080515260206080510160805201906001610120510161012052906109ee565b91600191935060208291828060a01b0387541681520194019101918f9293919361098d565b9150600160208192828060a01b0386541681520193019101918e919261093f565b84546001600160a01b031683526001948501948e9450602090930192016108f4565b346101a25760203660031901126101a25735600e548110156101a257610c1d6020916111c9565b90546040519160031b1c8152f35b346101a25760003660031901126101a2576020600754604051908152f35b346101a25760203660031901126101a25735600d548110156101a25761081060209161117c565b346101a25760003660031901126101a2576020600554604051908152f35b346101a25760003660031901126101a2576020601254604051908152f35b346101a25760003660031901126101a2576020600354604051908152f35b346101a25760003660031901126101a25760209054604051908152f35b346101a25760003660031901126101a2576106076105f3610f9d565b346101a25760003660031901126101a2576020610d1e6113cf565b6040516001600160a01b039091168152f35b346101a25760003660031901126101a257610d67610d5f600354610d59600854600a549061137a565b906112ef565b42101561138d565b4790610d78600754600b549061137a565b808311610f1b575b50610d896113cf565b91600c54600160401b8110156104ff576001810180600c55811015610f065760008080848194600c83527fdf6966c971051c3d54ec59162606531493a51404a002842f56009d7e5cf4a8c7019760018060a01b038116986bffffffffffffffffffffffff60a01b908a82825416179055600f5416600f555af13d15610f01573d67ffffffffffffffff8111610eec5760405190610e30601f8201601f191660200183610f65565b8152600060203d92013e5b15610eb15760085491600183018093116102bb57507f9206244e7d07ef9a49c1dae86e820d494f0dd268fa04f434eb1de8475a4bb5546020849284600855604051908152a260095414610e8a57005b7fd29e8545d33d16738453f73ba7267664418170c341c7ab7e3eb60e1fa27dd18e600080a2005b60405162461bcd60e51b815260208184015260146024820152732330b4b632b2103a379039b2b7321022ba3432b960611b6044820152606490fd5b604184634e487b7160e01b6000525260246000fd5b610e3b565b603283634e487b7160e01b6000525260246000fd5b915082610d80565b346101a25760003660031901126101a2577f00000000000000000000000000000000000000000000000000000000000000006001600160a01b03168152602090f35b90601f8019910116810190811067ffffffffffffffff821117610f8757604052565b634e487b7160e01b600052604160045260246000fd5b60405190600060025490600182811c9080841693841561107e575b602094858410811461106a578388528794939291811561104a5750600114610feb575b5050610fe992500383610f65565b565b9093915060026000527f405787fa12a823e0f2b7631cc41b3ba8828b3321ca811111fa75cd3aa3bb5ace936000915b818310611032575050610fe993508201013880610fdb565b8554888401850152948501948794509183019161101a565b915050610fe994925060ff191682840152151560051b8201013880610fdb565b634e487b7160e01b85526022600452602485fd5b91607f1691610fb8565b60405190600060115490600182811c90808416938415611132575b602094858410811461106a578388528794939291811561104a57506001146110d3575050610fe992500383610f65565b9093915060116000527f31ecc21a745e3968a04e9570e4425bc18fa8019c68028196b546d1669c200c68936000915b81831061111a575050610fe993508201013880610fdb565b85548884018501529485019487945091830191611102565b91607f16916110a3565b919082519283825260005b848110611168575050826000602080949584010152601f8019910116010190565b602081830181015184830182015201611147565b600d548110156111b357600d6000527fd7b6990105719101dabeb77144f2a3385c8033acd3af97e9423a695e81ad1eb50190600090565b634e487b7160e01b600052603260045260246000fd5b600e548110156111b357600e6000527fbb7b4a454dc3493923482f07822329ed19e8244eff582cc204f8554c3620c3fd0190600090565b600b548110156111b357600b6000527f0175b7a638427703f0dbe7bb9bbf987a2551717b34e79f33b5b1008d1fa01db90190600090565b90815180825260208080930193019160005b828110611257575050505090565b83516001600160a01b031685529381019392810192600101611249565b60001981146112835760010190565b634e487b7160e01b600052601160045260246000fd5b600b549060005b8281106112b657505050678ac7230489e8000090565b6112bf81611200565b905460039190911b1c6001600160a01b03908116908316146112e9576112e490611274565b6112a0565b91505090565b9190820180921161128357565b6000194301438111611283576008545a6040519160208301934084524260408401523360601b6060840152607483015260948201526094815260c0810181811067ffffffffffffffff821117610f875760405251902080601055600d54908115611364570690565b634e487b7160e01b600052601260045260246000fd5b8181029291811591840414171561128357565b1561139457565b60405162461bcd60e51b815260206004820152601360248201527210de58db19481b9bdd08195b991959081e595d606a1b6044820152606490fd5b6113e7610d5f600354610d59600854600a549061137a565b6113ef6112fc565b6113f88161117c565b919060018060a01b03928391549060031b1c166bffffffffffffffffffffffff60a01b600f541617600f5542600555600d54600181116114bc575b50600d549081156114a65761149b916000190161144f8161117c565b8582549160031b1b19169055600d55611469600854611274565b60085582600f54167f5b690ec4a06fe979403046eaeea5b3ce38524683c3001f662c8b5a829632f7df600080a261117c565b90549060031b1c1690565b634e487b7160e01b600052603160045260246000fd5b600019810190811161128357826114d56114e69261117c565b90549060031b1c1661044b8361117c565b38611433565b600b549060005b82811061150257505050600090565b61150b81611200565b905460039190911b1c6001600160a01b03908116908316146115355761153090611274565b6114f3565b505050600190565b519069ffffffffffffffffffff821682036101a25756fea2646970667358221220c5f561017a569f6f1dbbd06840ec1e5dc91d06609655a24564d6f6d7eafed66364736f6c63430008140033a264697066735822122045a94efd685dd807df1aa4d6bd626bebc51be7d96389d822fe3b571223fee1b764736f6c63430008140033",
  "devdoc": {
    "kind": "dev",
    "methods": {},
    "version": 1
  },
  "userdoc": {
    "kind": "user",
    "methods": {},
    "version": 1
  },
  "storageLayout": {
    "storage": [
      {
        "astId": 881,
        "contract": "contracts/EthqubFactory.sol:EthqubFactory",
        "label": "ethqubArray",
        "offset": 0,
        "slot": "0",
        "type": "t_array(t_contract(Ethqub)872)dyn_storage"
      },
      {
        "astId": 886,
        "contract": "contracts/EthqubFactory.sol:EthqubFactory",
        "label": "ethqubMapping",
        "offset": 0,
        "slot": "1",
        "type": "t_mapping(t_address,t_contract(Ethqub)872)"
      }
    ],
    "types": {
      "t_address": {
        "encoding": "inplace",
        "label": "address",
        "numberOfBytes": "20"
      },
      "t_array(t_contract(Ethqub)872)dyn_storage": {
        "base": "t_contract(Ethqub)872",
        "encoding": "dynamic_array",
        "label": "contract Ethqub[]",
        "numberOfBytes": "32"
      },
      "t_contract(Ethqub)872": {
        "encoding": "inplace",
        "label": "contract Ethqub",
        "numberOfBytes": "20"
      },
      "t_mapping(t_address,t_contract(Ethqub)872)": {
        "encoding": "mapping",
        "key": "t_address",
        "label": "mapping(address => contract Ethqub)",
        "numberOfBytes": "32",
        "value": "t_contract(Ethqub)872"
      }
    }
  }
}