{
  "address": "0x4Bcb60f6e6D33C8a640D50F5A76eE2553C2BEA8B",
  "abi": [
    {
      "inputs": [
        {
          "internalType": "string",
          "name": "_equbTitle",
          "type": "string"
        },
        {
          "internalType": "uint256",
          "name": "_poolAmount",
          "type": "uint256"
        },
        {
          "internalType": "uint256",
          "name": "_totalCycles",
          "type": "uint256"
        },
        {
          "internalType": "uint256",
          "name": "_cycleDuration",
          "type": "uint256"
        },
        {
          "internalType": "address",
          "name": "priceFeedAddress",
          "type": "address"
        }
      ],
      "name": "createEthqub",
      "outputs": [],
      "stateMutability": "nonpayable",
      "type": "function"
    },
    {
      "inputs": [
        {
          "internalType": "uint256",
          "name": "",
          "type": "uint256"
        }
      ],
      "name": "ethqubArray",
      "outputs": [
        {
          "internalType": "contract Ethqub",
          "name": "",
          "type": "address"
        }
      ],
      "stateMutability": "view",
      "type": "function"
    },
    {
      "inputs": [
        {
          "internalType": "uint256",
          "name": "_yourContractIndex",
          "type": "uint256"
        }
      ],
      "name": "ethqubGet",
      "outputs": [
        {
          "internalType": "contract Ethqub",
          "name": "",
          "type": "address"
        }
      ],
      "stateMutability": "view",
      "type": "function"
    },
    {
      "inputs": [],
      "name": "getDeployedContracts",
      "outputs": [
        {
          "internalType": "contract Ethqub[]",
          "name": "",
          "type": "address[]"
        }
      ],
      "stateMutability": "view",
      "type": "function"
    }
  ],
  "transactionHash": "0xb6daaf4012e1e533177f5eed3e2a6a0b62cd469bf5aa28ff4d5e4e624de62e4b",
  "args": [],
  "numDeployments": 1,
  "solcInputHash": "84f897e4545b61bf432f61d945ea56bf",
  "bytecode": "0x608060405234801561001057600080fd5b5061142a806100206000396000f3fe608060405234801561001057600080fd5b506004361061004c5760003560e01c806316dc68ee14610051578063367dd53914610081578063aa9a068f14610094578063b99ca295146100a9575b600080fd5b61006461005f36600461021e565b6100be565b6040516001600160a01b0390911681526020015b60405180910390f35b61006461008f36600461021e565b6100e8565b61009c61011a565b6040516100789190610237565b6100bc6100b73660046102b6565b61017c565b005b600081815481106100ce57600080fd5b6000918252602090912001546001600160a01b0316905081565b600080600083815481106100fe576100fe610395565b6000918252602090912001546001600160a01b03169392505050565b6060600080548060200260200160405190810160405280929190818152602001828054801561017257602002820191906000526020600020905b81546001600160a01b03168152600190910190602001808311610154575b5050505050905090565b600033868686868660405161019090610211565b61019f969594939291906103ab565b604051809103906000f0801580156101bb573d6000803e3d6000fd5b50600080546001810182559080527f290decd9548b62a8d60345a988386fc84ba6bc95484008f6362f93160ef3e5630180546001600160a01b0319166001600160a01b0392909216919091179055505050505050565b610fc08061043583390190565b60006020828403121561023057600080fd5b5035919050565b6020808252825182820181905260009190848201906040850190845b818110156102785783516001600160a01b031683529284019291840191600101610253565b50909695505050505050565b634e487b7160e01b600052604160045260246000fd5b80356001600160a01b03811681146102b157600080fd5b919050565b600080600080600060a086880312156102ce57600080fd5b853567ffffffffffffffff808211156102e657600080fd5b818801915088601f8301126102fa57600080fd5b81358181111561030c5761030c610284565b604051601f8201601f19908116603f0116810190838211818310171561033457610334610284565b816040528281528b602084870101111561034d57600080fd5b8260208601602083013760006020848301015280995050505050506020860135935060408601359250606086013591506103896080870161029a565b90509295509295909350565b634e487b7160e01b600052603260045260246000fd5b60018060a01b03871681526000602060c08184015287518060c085015260005b818110156103e75789810183015185820160e0015282016103cb565b50600060e0828601015260e0601f19601f8301168501019250505085604083015284606083015283608083015261042960a08301846001600160a01b03169052565b97965050505050505056fe60c06040524260a05260006009553480156200001a57600080fd5b5060405162000fc038038062000fc08339810160408190526200003d91620000ec565b6001600160a01b0386166080819052600880546001600160a01b031916909117905560006200006d868262000292565b5060018490556200007f83856200035e565b6002556004929092556005556000600355600d80546001600160a01b0319166001600160a01b039092169190911790555062000381915050565b80516001600160a01b0381168114620000d157600080fd5b919050565b634e487b7160e01b600052604160045260246000fd5b60008060008060008060c087890312156200010657600080fd5b6200011187620000b9565b602088810151919750906001600160401b03808211156200013157600080fd5b818a0191508a601f8301126200014657600080fd5b8151818111156200015b576200015b620000d6565b604051601f8201601f19908116603f01168101908382118183101715620001865762000186620000d6565b816040528281528d868487010111156200019f57600080fd5b600093505b82841015620001c35784840186015181850187015292850192620001a4565b6000868483010152809a50505050505050604087015193506060870151925060808701519150620001f760a08801620000b9565b90509295509295509295565b600181811c908216806200021857607f821691505b6020821081036200023957634e487b7160e01b600052602260045260246000fd5b50919050565b601f8211156200028d57600081815260208120601f850160051c81016020861015620002685750805b601f850160051c820191505b81811015620002895782815560010162000274565b5050505b505050565b81516001600160401b03811115620002ae57620002ae620000d6565b620002c681620002bf845462000203565b846200023f565b602080601f831160018114620002fe5760008415620002e55750858301515b600019600386901b1c1916600185901b17855562000289565b600085815260208120601f198616915b828110156200032f578886015182559484019460019091019084016200030e565b50858210156200034e5787850151600019600388901b60f8161c191681555b5050505050600190811b01905550565b6000826200037c57634e487b7160e01b600052601260045260246000fd5b500490565b60805160a051610c19620003a760003960006103360152600061014c0152610c196000f3fe60806040526004361061012e5760003560e01c8063a1657681116100ab578063d393b9781161006f578063d393b9781461031c578063d8270dce14610324578063dbdff2c114610358578063f8b2cb4f1461036d578063fcf488a914610395578063ff186b2e146103b557600080fd5b8063a1657681146102af578063a693600b146102c5578063bab2f552146102db578063bf85ef32146102f1578063ccbac9f51461030657600080fd5b806348d555eb116100f257806348d555eb1461021f578063570f8813146102355780635b7f415c1461025d5780635bec4cb4146102795780635daf08ca1461028f57600080fd5b806302d05d3f1461013a578063148c0c751461018b5780632fcc345b146101a2578063356fa912146101c4578063446ad549146101ff57600080fd5b3661013557005b600080fd5b34801561014657600080fd5b5061016e7f000000000000000000000000000000000000000000000000000000000000000081565b6040516001600160a01b0390911681526020015b60405180910390f35b34801561019757600080fd5b506101a06103cb565b005b3480156101ae57600080fd5b506101b76105db565b60405161018291906109d0565b3480156101d057600080fd5b506101f16101df366004610a1e565b600b6020526000908152604090205481565b604051908152602001610182565b34801561020b57600080fd5b5061016e61021a366004610a47565b610669565b34801561022b57600080fd5b506101f160025481565b34801561024157600080fd5b5061016e73694aa1769357215de4fac081bf1f309adc32530681565b34801561026957600080fd5b506101f1670de0b6b3a764000081565b34801561028557600080fd5b506101f160055481565b34801561029b57600080fd5b5061016e6102aa366004610a47565b610693565b3480156102bb57600080fd5b506101f160045481565b3480156102d157600080fd5b506101f160015481565b3480156102e757600080fd5b506101f160035481565b3480156102fd57600080fd5b506101f16106a3565b34801561031257600080fd5b506101f1600a5481565b6101a06106c5565b34801561033057600080fd5b506101f17f000000000000000000000000000000000000000000000000000000000000000081565b34801561036457600080fd5b506101f16108bc565b34801561037957600080fd5b506101f1610388366004610a1e565b6001600160a01b03163190565b3480156103a157600080fd5b5060085461016e906001600160a01b031681565b3480156103c157600080fd5b506101f1600c5481565b6008546001600160a01b031633146104215760405162461bcd60e51b81526020600482015260146024820152732737ba103a343290363ab1b5bc903bb4b73732b960611b60448201526064015b60405180910390fd5b600654600254479161043291610a76565b81111561044c576006546002546104499190610a76565b90505b6008546040516000916001600160a01b03169083908381818185875af1925050503d8060008114610499576040519150601f19603f3d011682016040523d82523d6000602084013e61049e565b606091505b50509050806104e65760405162461bcd60e51b81526020600482015260146024820152732330b4b632b2103a379039b2b7321022ba3432b960611b6044820152606401610418565b600880546001600160a01b03191690556003805490600061050683610a93565b919050555060005b60075481101561059457600854600780546001600160a01b03909216918390811061053b5761053b610aac565b6000918252602090912001546001600160a01b031603610582576007818154811061056857610568610aac565b600091825260209091200180546001600160a01b03191690555b8061058c81610a93565b91505061050e565b506008546040514781526001600160a01b03909116907f9206244e7d07ef9a49c1dae86e820d494f0dd268fa04f434eb1de8475a4bb5549060200160405180910390a25050565b600080546105e890610ac2565b80601f016020809104026020016040519081016040528092919081815260200182805461061490610ac2565b80156106615780601f1061063657610100808354040283529160200191610661565b820191906000526020600020905b81548152906001019060200180831161064457829003601f168201915b505050505081565b6007818154811061067957600080fd5b6000918252602090912001546001600160a01b0316905081565b6006818154811061067957600080fd5b600d546000906106bb906001600160a01b031661094d565b600c819055919050565b600454600654106107075760405162461bcd60e51b815260206004820152600c60248201526b115c5d58881a5cc8199d5b1b60a21b6044820152606401610418565b600254333110156107515760405162461bcd60e51b8152602060048201526014602482015273496e73756666696369656e742062616c616e636560601b6044820152606401610418565b60025460405160009130918381818185875af1925050503d8060008114610794576040519150601f19603f3d011682016040523d82523d6000602084013e610799565b606091505b50509050806107e15760405162461bcd60e51b81526020600482015260146024820152732330b4b632b2103a379039b2b7321022ba3432b960611b6044820152606401610418565b6006805460018082019092557ff652222313e28459528d920b65115c16c04f3efc82aaedc97be59f3f377c0d3f018054336001600160a01b031991821681179092556007805493840190557fa66cc928b5edb82af9bd49922954155ab7b0942694bea4ce44661d9a8736c688909201805490921681179091556002546000918252600b6020526040822080549192909161087c908490610afc565b909155505060025460405190815233907f7f3b9effe05cfb4f31f854004de03199fd03fe56bf38a48b2aa9a9f4402d6e239060200160405180910390a250565b60098054600091826108cd83610a93565b909155506108de9050600143610b0f565b4042336009545a6040805160208101969096528501939093526bffffffffffffffffffffffff19606092831b16918401919091526074830152609482015260b40160408051601f198184030181529190528051602090910120600a81905560065461094891610b22565b905090565b600080826001600160a01b031663feaf968c6040518163ffffffff1660e01b815260040160a060405180830381865afa15801561098e573d6000803e3d6000fd5b505050506040513d601f19601f820116820180604052508101906109b29190610b63565b505050915050806402540be4006109c99190610bb3565b9392505050565b600060208083528351808285015260005b818110156109fd578581018301518582016040015282016109e1565b506000604082860101526040601f19601f8301168501019250505092915050565b600060208284031215610a3057600080fd5b81356001600160a01b03811681146109c957600080fd5b600060208284031215610a5957600080fd5b5035919050565b634e487b7160e01b600052601160045260246000fd5b8082028115828204841417610a8d57610a8d610a60565b92915050565b600060018201610aa557610aa5610a60565b5060010190565b634e487b7160e01b600052603260045260246000fd5b600181811c90821680610ad657607f821691505b602082108103610af657634e487b7160e01b600052602260045260246000fd5b50919050565b80820180821115610a8d57610a8d610a60565b81810381811115610a8d57610a8d610a60565b600082610b3f57634e487b7160e01b600052601260045260246000fd5b500690565b805169ffffffffffffffffffff81168114610b5e57600080fd5b919050565b600080600080600060a08688031215610b7b57600080fd5b610b8486610b44565b9450602086015193506040860151925060608601519150610ba760808701610b44565b90509295509295909350565b80820260008212600160ff1b84141615610bcf57610bcf610a60565b8181058314821517610a8d57610a8d610a6056fea2646970667358221220fe5e9043b744c1fa786dcca6d216223e47dc1f33e4bb2cbbc232d91739d64bea64736f6c63430008140033a264697066735822122040aefa51acdb2fcc9f49beba19cbd9e989632781816c416046c29516ad124a3964736f6c63430008140033",
  "devdoc": {
    "kind": "dev",
    "methods": {},
    "version": 1
  },
  "userdoc": {
    "kind": "user",
    "methods": {},
    "version": 1
  },
  "storageLayout": {
    "storage": [
      {
        "astId": 591,
        "contract": "contracts/EthqubFactory.sol:EthqubFactory",
        "label": "ethqubArray",
        "offset": 0,
        "slot": "0",
        "type": "t_array(t_contract(Ethqub)582)dyn_storage"
      }
    ],
    "types": {
      "t_array(t_contract(Ethqub)582)dyn_storage": {
        "base": "t_contract(Ethqub)582",
        "encoding": "dynamic_array",
        "label": "contract Ethqub[]",
        "numberOfBytes": "32"
      },
      "t_contract(Ethqub)582": {
        "encoding": "inplace",
        "label": "contract Ethqub",
        "numberOfBytes": "20"
      }
    }
  }
}