{
  "address": "0x4A458f1c04bB80774Ec0F71a4d9616C74c399be3",
  "abi": [
    {
      "inputs": [
        {
          "internalType": "address",
          "name": "_vrfCoordinator",
          "type": "address"
        },
        {
          "internalType": "uint256",
          "name": "_entranceFee",
          "type": "uint256"
        },
        {
          "internalType": "bytes32",
          "name": "_gasLane",
          "type": "bytes32"
        },
        {
          "internalType": "uint256",
          "name": "_subscriptionId",
          "type": "uint256"
        },
        {
          "internalType": "uint32",
          "name": "_callbackGasLimit",
          "type": "uint32"
        },
        {
          "internalType": "uint256",
          "name": "_interval",
          "type": "uint256"
        }
      ],
      "stateMutability": "nonpayable",
      "type": "constructor"
    },
    {
      "inputs": [
        {
          "internalType": "address",
          "name": "have",
          "type": "address"
        },
        {
          "internalType": "address",
          "name": "want",
          "type": "address"
        }
      ],
      "name": "OnlyCoordinatorCanFulfill",
      "type": "error"
    },
    {
      "inputs": [
        {
          "internalType": "uint256",
          "name": "currentBalance",
          "type": "uint256"
        },
        {
          "internalType": "uint256",
          "name": "numPlayers",
          "type": "uint256"
        },
        {
          "internalType": "uint256",
          "name": "raffleState",
          "type": "uint256"
        }
      ],
      "name": "Raffle__UpkeepNotNeeded",
      "type": "error"
    },
    {
      "anonymous": false,
      "inputs": [
        {
          "indexed": true,
          "internalType": "address",
          "name": "player",
          "type": "address"
        }
      ],
      "name": "RaffleEnter",
      "type": "event"
    },
    {
      "anonymous": false,
      "inputs": [
        {
          "indexed": true,
          "internalType": "uint256",
          "name": "requestId",
          "type": "uint256"
        }
      ],
      "name": "RequestRaffleWinner",
      "type": "event"
    },
    {
      "anonymous": false,
      "inputs": [
        {
          "indexed": true,
          "internalType": "address",
          "name": "winner",
          "type": "address"
        }
      ],
      "name": "WinnerPicked",
      "type": "event"
    },
    {
      "inputs": [
        {
          "internalType": "bytes",
          "name": "",
          "type": "bytes"
        }
      ],
      "name": "checkUpkeep",
      "outputs": [
        {
          "internalType": "bool",
          "name": "upkeepNeeded",
          "type": "bool"
        },
        {
          "internalType": "bytes",
          "name": "",
          "type": "bytes"
        }
      ],
      "stateMutability": "nonpayable",
      "type": "function"
    },
    {
      "inputs": [],
      "name": "enterRaffle",
      "outputs": [],
      "stateMutability": "payable",
      "type": "function"
    },
    {
      "inputs": [],
      "name": "getEntranceFee",
      "outputs": [
        {
          "internalType": "uint256",
          "name": "",
          "type": "uint256"
        }
      ],
      "stateMutability": "view",
      "type": "function"
    },
    {
      "inputs": [],
      "name": "getLastTimeStamp",
      "outputs": [
        {
          "internalType": "uint256",
          "name": "",
          "type": "uint256"
        }
      ],
      "stateMutability": "view",
      "type": "function"
    },
    {
      "inputs": [],
      "name": "getNumWords",
      "outputs": [
        {
          "internalType": "uint32",
          "name": "",
          "type": "uint32"
        }
      ],
      "stateMutability": "pure",
      "type": "function"
    },
    {
      "inputs": [],
      "name": "getNumberOfPlayers",
      "outputs": [
        {
          "internalType": "uint256",
          "name": "",
          "type": "uint256"
        }
      ],
      "stateMutability": "view",
      "type": "function"
    },
    {
      "inputs": [
        {
          "internalType": "uint256",
          "name": "index",
          "type": "uint256"
        }
      ],
      "name": "getPlayers",
      "outputs": [
        {
          "internalType": "address",
          "name": "",
          "type": "address"
        }
      ],
      "stateMutability": "view",
      "type": "function"
    },
    {
      "inputs": [],
      "name": "getRaffleState",
      "outputs": [
        {
          "internalType": "enum Raffle.RaffleState",
          "name": "",
          "type": "uint8"
        }
      ],
      "stateMutability": "view",
      "type": "function"
    },
    {
      "inputs": [],
      "name": "getRandomNumber",
      "outputs": [
        {
          "internalType": "uint256",
          "name": "",
          "type": "uint256"
        }
      ],
      "stateMutability": "nonpayable",
      "type": "function"
    },
    {
      "inputs": [],
      "name": "getRecentWinner",
      "outputs": [
        {
          "internalType": "address",
          "name": "",
          "type": "address"
        }
      ],
      "stateMutability": "view",
      "type": "function"
    },
    {
      "inputs": [],
      "name": "getReqConfirmations",
      "outputs": [
        {
          "internalType": "uint16",
          "name": "",
          "type": "uint16"
        }
      ],
      "stateMutability": "pure",
      "type": "function"
    },
    {
      "inputs": [
        {
          "internalType": "bytes",
          "name": "",
          "type": "bytes"
        }
      ],
      "name": "performUpkeep",
      "outputs": [],
      "stateMutability": "nonpayable",
      "type": "function"
    },
    {
      "inputs": [
        {
          "internalType": "uint256",
          "name": "",
          "type": "uint256"
        }
      ],
      "name": "players",
      "outputs": [
        {
          "internalType": "address payable",
          "name": "",
          "type": "address"
        }
      ],
      "stateMutability": "view",
      "type": "function"
    },
    {
      "inputs": [
        {
          "internalType": "uint256",
          "name": "requestId",
          "type": "uint256"
        },
        {
          "internalType": "uint256[]",
          "name": "randomWords",
          "type": "uint256[]"
        }
      ],
      "name": "rawFulfillRandomWords",
      "outputs": [],
      "stateMutability": "nonpayable",
      "type": "function"
    }
  ],
  "transactionHash": "0xab0c50ef5ef461c1b1fbfa9fdc47a29fb2b509178f03ad629e44f7a45994f4cd",
  "args": [
    "0x9DdfaCa8183c41ad55329BdeeD9F6A8d53168B1B",
    1000000000000000,
    "0x787d74caea10b2b357790d5b5247c2f63d1d91572a9846f780606e4d953677ae",
    "14079749900429409589629844893152945182043081709445166555923161887859658288304",
    500000,
    "30"
  ],
  "numDeployments": 1,
  "solcInputHash": "6599e5d3fcfc180afa20e3c30b0e1cfa",
  "bytecode": "0x61016060405234801561001157600080fd5b50604051610eae380380610eae8339810160408190526100309161007b565b6001600160a01b0395909516608081905260a09490945260c09390935260e0919091526101005263ffffffff16610120526001805460ff60a01b1916905542600255610140526100f0565b60008060008060008060c0878903121561009457600080fd5b86516001600160a01b03811681146100ab57600080fd5b80965050602087015194506040870151935060608701519250608087015163ffffffff811681146100db57600080fd5b8092505060a087015190509295509295509295565b60805160a05160c05160e051610100516101205161014051610d3b610173600039600061065e01526000818161052401526107250152600081816104f701526106f30152600081816104d101526106cd015260008181610563015261075601526000818160f1015261033f0152600081816102bb01526102fd0152610d3b6000f3fe6080604052600436106100dd5760003560e01c806353a2c19a1161007f578063c1c244e811610059578063c1c244e814610251578063dbdff2c114610266578063f71d96cb1461027b578063fd6673f51461029b57600080fd5b806353a2c19a146101eb5780636e04ff0d14610207578063a836ecd21461023557600080fd5b80632cfcc539116100bb5780632cfcc5391461016d5780634585e33b14610175578063460e204914610195578063473f1ddc146101cd57600080fd5b806309bc33a7146100e2578063115cbaf5146101245780631fe543e31461014b575b600080fd5b3480156100ee57600080fd5b507f00000000000000000000000000000000000000000000000000000000000000005b6040519081526020015b60405180910390f35b34801561013057600080fd5b50600154600160a01b900460ff1660405161011b91906109f4565b34801561015757600080fd5b5061016b610166366004610a63565b6102b0565b005b61016b61033d565b34801561018157600080fd5b5061016b610190366004610b15565b610439565b3480156101a157600080fd5b506101b56101b0366004610b87565b610604565b6040516001600160a01b03909116815260200161011b565b3480156101d957600080fd5b506001546001600160a01b03166101b5565b3480156101f757600080fd5b506040516001815260200161011b565b34801561021357600080fd5b50610227610222366004610ba0565b610633565b60405161011b929190610c35565b34801561024157600080fd5b506040516003815260200161011b565b34801561025d57600080fd5b50600254610111565b34801561027257600080fd5b506101116106be565b34801561028757600080fd5b506101b5610296366004610b87565b6107d0565b3480156102a757600080fd5b50600054610111565b336001600160a01b037f0000000000000000000000000000000000000000000000000000000000000000161461032f5760405163073e64fd60e21b81523360048201526001600160a01b037f00000000000000000000000000000000000000000000000000000000000000001660248201526044015b60405180910390fd5b61033982826107fa565b5050565b7f000000000000000000000000000000000000000000000000000000000000000034116103865760405162461bcd60e51b81526020600482015260006024820152604401610326565b600060018054600160a01b900460ff16908111156103a6576103a66109de565b146103cd5760405162461bcd60e51b81526020600482015260006024820152604401610326565b600080546001810182558180527f290decd9548b62a8d60345a988386fc84ba6bc95484008f6362f93160ef3e5630180546001600160a01b0319163390811790915560405190917f0805e1d667bddb8a95f0f09880cf94f403fb596ce79928d9f29b74203ba284d491a2565b600061045360405180602001604052806000815250610633565b509050806104ad5747600080549050600160149054906101000a900460ff166001811115610483576104836109de565b604051632c2193d560e11b8152600481019390935260248301919091526044820152606401610326565b60018054600160a01b60ff60a01b1990911617815560405163d33d44c160e01b81527f000000000000000000000000000000000000000000000000000000000000000060048201527f00000000000000000000000000000000000000000000000000000000000000006024820152600360448201527f000000000000000000000000000000000000000000000000000000000000000063ffffffff16606482015260848101919091526000906001600160a01b037f0000000000000000000000000000000000000000000000000000000000000000169063d33d44c19060a4016020604051808303816000875af11580156105ac573d6000803e3d6000fd5b505050506040513d601f19601f820116820180604052508101906105d09190610c8d565b60405190915081907fde6349b018d6c03d837b67d9a198a6ba4842546f2295fe963fae141e5dbaef8190600090a250505050565b600080828154811061061857610618610ca6565b6000918252602090912001546001600160a01b031692915050565b60006060818060018054600160a01b900460ff1690811115610657576106576109de565b14905060007f00000000000000000000000000000000000000000000000000000000000000006002544261068b9190610cbc565b6000549110915015154715158380156106a15750825b80156106aa5750815b80156106b35750805b955050505050915091565b60405163d33d44c160e01b81527f000000000000000000000000000000000000000000000000000000000000000060048201527f000000000000000000000000000000000000000000000000000000000000000060248201526003604482015263ffffffff7f0000000000000000000000000000000000000000000000000000000000000000166064820152600160848201526000907f00000000000000000000000000000000000000000000000000000000000000006001600160a01b03169063d33d44c19060a4016020604051808303816000875af11580156107a7573d6000803e3d6000fd5b505050506040513d601f19601f820116820180604052508101906107cb9190610c8d565b905090565b600081815481106107e057600080fd5b6000918252602090912001546001600160a01b0316905081565b6000805482518390839061081057610810610ca6565b60200260200101516108229190610ce3565b9050600080828154811061083857610838610ca6565b600091825260208083209190910154600180546001600160a81b0319166001600160a01b03909216918217905560408051848152928301908190529151909350610883929190610964565b50426002556040516000906001600160a01b0383169047908381818185875af1925050503d80600081146108d3576040519150601f19603f3d011682016040523d82523d6000602084013e6108d8565b606091505b50509050806109295760405162461bcd60e51b815260206004820152601e60248201527f4661696c656420746f2073656e64206d6f6e657920746f2077696e6e657200006044820152606401610326565b6040516001600160a01b038316907f5b690ec4a06fe979403046eaeea5b3ce38524683c3001f662c8b5a829632f7df90600090a25050505050565b8280548282559060005260206000209081019282156109b9579160200282015b828111156109b957825182546001600160a01b0319166001600160a01b03909116178255602090920191600190910190610984565b506109c59291506109c9565b5090565b5b808211156109c557600081556001016109ca565b634e487b7160e01b600052602160045260246000fd5b6020810160028310610a1657634e487b7160e01b600052602160045260246000fd5b91905290565b634e487b7160e01b600052604160045260246000fd5b604051601f8201601f1916810167ffffffffffffffff81118282101715610a5b57610a5b610a1c565b604052919050565b60008060408385031215610a7657600080fd5b8235915060208084013567ffffffffffffffff80821115610a9657600080fd5b818601915086601f830112610aaa57600080fd5b813581811115610abc57610abc610a1c565b8060051b9150610acd848301610a32565b8181529183018401918481019089841115610ae757600080fd5b938501935b83851015610b0557843582529385019390850190610aec565b8096505050505050509250929050565b60008060208385031215610b2857600080fd5b823567ffffffffffffffff80821115610b4057600080fd5b818501915085601f830112610b5457600080fd5b813581811115610b6357600080fd5b866020828501011115610b7557600080fd5b60209290920196919550909350505050565b600060208284031215610b9957600080fd5b5035919050565b60006020808385031215610bb357600080fd5b823567ffffffffffffffff80821115610bcb57600080fd5b818501915085601f830112610bdf57600080fd5b813581811115610bf157610bf1610a1c565b610c03601f8201601f19168501610a32565b91508082528684828501011115610c1957600080fd5b8084840185840137600090820190930192909252509392505050565b821515815260006020604081840152835180604085015260005b81811015610c6b57858101830151858201606001528201610c4f565b506000606082860101526060601f19601f830116850101925050509392505050565b600060208284031215610c9f57600080fd5b5051919050565b634e487b7160e01b600052603260045260246000fd5b81810381811115610cdd57634e487b7160e01b600052601160045260246000fd5b92915050565b600082610d0057634e487b7160e01b600052601260045260246000fd5b50069056fea2646970667358221220ac49937fe08381c4eb2e3db1a8ff4ace31d92a515df070e30524ad4f948be98164736f6c63430008140033",
  "devdoc": {
    "kind": "dev",
    "methods": {},
    "version": 1
  },
  "userdoc": {
    "kind": "user",
    "methods": {},
    "version": 1
  },
  "storageLayout": {
    "storage": [
      {
        "astId": 964,
        "contract": "contracts/Raffle.sol:Raffle",
        "label": "players",
        "offset": 0,
        "slot": "0",
        "type": "t_array(t_address_payable)dyn_storage"
      },
      {
        "astId": 981,
        "contract": "contracts/Raffle.sol:Raffle",
        "label": "recentWinner",
        "offset": 0,
        "slot": "1",
        "type": "t_address"
      },
      {
        "astId": 984,
        "contract": "contracts/Raffle.sol:Raffle",
        "label": "raffleState",
        "offset": 20,
        "slot": "1",
        "type": "t_enum(RaffleState)959"
      },
      {
        "astId": 986,
        "contract": "contracts/Raffle.sol:Raffle",
        "label": "lastTimeStamp",
        "offset": 0,
        "slot": "2",
        "type": "t_uint256"
      }
    ],
    "types": {
      "t_address": {
        "encoding": "inplace",
        "label": "address",
        "numberOfBytes": "20"
      },
      "t_address_payable": {
        "encoding": "inplace",
        "label": "address payable",
        "numberOfBytes": "20"
      },
      "t_array(t_address_payable)dyn_storage": {
        "base": "t_address_payable",
        "encoding": "dynamic_array",
        "label": "address payable[]",
        "numberOfBytes": "32"
      },
      "t_enum(RaffleState)959": {
        "encoding": "inplace",
        "label": "enum Raffle.RaffleState",
        "numberOfBytes": "1"
      },
      "t_uint256": {
        "encoding": "inplace",
        "label": "uint256",
        "numberOfBytes": "32"
      }
    }
  }
}