{
  "address": "0x6E895349215952C374c30AfC13b30A2B1758c17E",
  "abi": [
    {
      "anonymous": false,
      "inputs": [
        {
          "indexed": true,
          "internalType": "address",
          "name": "contractAddress",
          "type": "address"
        },
        {
          "indexed": true,
          "internalType": "address",
          "name": "creator",
          "type": "address"
        }
      ],
      "name": "EthqubCreated",
      "type": "event"
    },
    {
      "inputs": [
        {
          "internalType": "address",
          "name": "_creator",
          "type": "address"
        },
        {
          "internalType": "string",
          "name": "_equbTitle",
          "type": "string"
        },
        {
          "internalType": "uint256",
          "name": "_poolAmount",
          "type": "uint256"
        },
        {
          "internalType": "uint256",
          "name": "_totalCycles",
          "type": "uint256"
        },
        {
          "internalType": "uint256",
          "name": "_cycleDuration",
          "type": "uint256"
        },
        {
          "internalType": "string",
          "name": "_ipfsHash",
          "type": "string"
        },
        {
          "internalType": "uint256",
          "name": "_startingTime",
          "type": "uint256"
        },
        {
          "internalType": "uint256",
          "name": "_creditScore",
          "type": "uint256"
        },
        {
          "internalType": "address",
          "name": "priceFeedAddress",
          "type": "address"
        }
      ],
      "name": "createEthqub",
      "outputs": [
        {
          "internalType": "address",
          "name": "",
          "type": "address"
        }
      ],
      "stateMutability": "nonpayable",
      "type": "function"
    },
    {
      "inputs": [
        {
          "internalType": "uint256",
          "name": "",
          "type": "uint256"
        }
      ],
      "name": "ethqubArray",
      "outputs": [
        {
          "internalType": "contract Ethqub",
          "name": "",
          "type": "address"
        }
      ],
      "stateMutability": "view",
      "type": "function"
    },
    {
      "inputs": [
        {
          "internalType": "address",
          "name": "",
          "type": "address"
        }
      ],
      "name": "ethqubMapping",
      "outputs": [
        {
          "internalType": "contract Ethqub",
          "name": "",
          "type": "address"
        }
      ],
      "stateMutability": "view",
      "type": "function"
    },
    {
      "inputs": [],
      "name": "getDeployedContracts",
      "outputs": [
        {
          "internalType": "contract Ethqub[]",
          "name": "",
          "type": "address[]"
        }
      ],
      "stateMutability": "view",
      "type": "function"
    },
    {
      "inputs": [
        {
          "internalType": "address",
          "name": "contractAddress",
          "type": "address"
        }
      ],
      "name": "getEthqubDetails",
      "outputs": [
        {
          "internalType": "string",
          "name": "",
          "type": "string"
        },
        {
          "internalType": "uint256",
          "name": "",
          "type": "uint256"
        },
        {
          "internalType": "uint256",
          "name": "",
          "type": "uint256"
        },
        {
          "internalType": "uint256",
          "name": "",
          "type": "uint256"
        },
        {
          "internalType": "uint256",
          "name": "",
          "type": "uint256"
        },
        {
          "internalType": "uint256",
          "name": "",
          "type": "uint256"
        },
        {
          "internalType": "uint256",
          "name": "",
          "type": "uint256"
        },
        {
          "internalType": "uint256",
          "name": "",
          "type": "uint256"
        },
        {
          "internalType": "uint256",
          "name": "",
          "type": "uint256"
        },
        {
          "internalType": "uint256",
          "name": "",
          "type": "uint256"
        },
        {
          "internalType": "uint256",
          "name": "",
          "type": "uint256"
        },
        {
          "internalType": "string",
          "name": "",
          "type": "string"
        },
        {
          "internalType": "address",
          "name": "",
          "type": "address"
        }
      ],
      "stateMutability": "view",
      "type": "function"
    }
  ],
  "transactionHash": "0x1be7822b4657a6da1e2a9128acaec211e356f70cbe32dc5165796d14386062dc",
  "args": [],
  "numDeployments": 4,
  "solcInputHash": "c19b4449e15967e5e9560d7b9efaa4a9",
  "bytecode": "0x6080806040523461001657612034908161001c8239f35b600080fdfe604060808152600490813610156200001657600080fd5b600090813560e01c806316dc68ee146200054b578063333f5bd1146200050d578063aa9a068f146200043f578063b5b0e80b14620002305763bb762ad1146200005e57600080fd5b346200022c576101208060031936011262000228576200007d620005db565b67ffffffffffffffff92906024358481116200022457620000a2903690880162000699565b9360a4358181116200022057620000bd903690890162000699565b6001600160a01b0395610104358781169291908390036200021c578551946118cb808701958611878710176200020957926200011a610100938b62000140948a999897620007348b39169a8b88528060208901528701906200061c565b90604435898701526064356060870152608435608087015285820360a08701526200061c565b9260c43560c082015260e43560e08201520152039085f08015620001ff57845468010000000000000000811015620001ec5760209650917ffbb20e1d7e6324290fb1e279ba173c2aed27229abdb8292ba483c04067bbd77d91620001ab846001889601895562000590565b9490911695869482549060031b9186831b921b191617905582865260018752808620836bffffffffffffffffffffffff60a01b825416179055519480a38152f35b634e487b7160e01b865260418752602486fd5b81513d86823e3d90fd5b634e487b7160e01b8b5260418c5260248bfd5b8880fd5b8680fd5b8580fd5b8280fd5b5080fd5b5091346200022c5760203660031901126200022c576001600160a01b038062000258620005db565b16808452600160205281858520541615620003fc5783908551938480926315b6b63760e21b82525afa918215620003f257838080818283849085928694879688809b819e62000311575b50508e519e8f9e8f906101a08083528201620002be916200061c565b9b6020820152015260608d015260808c015260a08b015260c08a015260e089015261010088015261012087015261014086015284810361016086015262000305916200061c565b91166101808301520390f35b9d509e9d5050505050505050505050503d8085843e62000332818462000643565b8201916101a081840312620003ee5780519267ffffffffffffffff9384811162000220578162000364918401620006e6565b9160208101519486820151926060830151608084015160a085015160c08601519060e08701519261010088015194610120890151966101408a0151986101608b0151908111620003e95761018091620003bf918c01620006e6565b9901519a8c8c168c03620003e5578e9f509d9c999091929394959697989a9c38620002a2565b8f80fd5b508f80fd5b8480fd5b84513d85823e3d90fd5b845162461bcd60e51b8152602081850152601760248201527f436f6e747261637420646f6573206e6f742065786973740000000000000000006044820152606490fd5b5090346200050a57806003193601126200050a57908051918290805491828552602080950180938380527f290decd9548b62a8d60345a988386fc84ba6bc95484008f6362f93160ef3e56390845b818110620004ec5750505081620004a691038262000643565b83519485948186019282875251809352850193925b828110620004cb57505050500390f35b83516001600160a01b031685528695509381019392810192600101620004bb565b82546001600160a01b0316845292880192600192830192016200048d565b80fd5b50346200022c5760203660031901126200022c576020916001600160a01b03908290826200053a620005db565b168152600185522054169051908152f35b508234620002285760203660031901126200022857359180548310156200050a57506200057a60209262000590565b905491519160018060a01b039160031b1c168152f35b906000918254811015620005c7578280527f290decd9548b62a8d60345a988386fc84ba6bc95484008f6362f93160ef3e563019190565b634e487b7160e01b83526032600452602483fd5b600435906001600160a01b0382168203620005f257565b600080fd5b60005b8381106200060b5750506000910152565b8181015183820152602001620005fa565b906020916200063781518092818552858086019101620005f7565b601f01601f1916010190565b90601f8019910116810190811067ffffffffffffffff8211176200066657604052565b634e487b7160e01b600052604160045260246000fd5b67ffffffffffffffff81116200066657601f01601f191660200190565b81601f82011215620005f257803590620006b3826200067c565b92620006c3604051948562000643565b82845260208383010111620005f257816000926020809301838601378301015290565b81601f82011215620005f2578051620006ff816200067c565b926200070f604051948562000643565b81845260208284010111620005f257620007309160208085019101620005f7565b9056fe60c060405234620004ce57620018cb803803806200001d81620004d3565b928339810161012082820312620004ce576200003982620004f9565b60208381015190936001600160401b03939091848111620004ce5781620000629184016200050e565b9260408301519060608401519360808101519360a082015190888211620004ce57620000909183016200050e565b93620000a561010060c08401519301620004f9565b504260a0526080839052600c80546001600160a01b039094166001600160a01b0319948516179055865195888711620004b8576000968754986001998a81811c91168015620004ad575b8d8210146200049957908c82601f85941162000442575b50508c908d601f8411600114620003da57508a92620003ce575b5050600019600383901b1c191690891b1787555b6004948086558115620003bb5781900460055560075560085580865560025583600655600954680100000000000000009081811015620003a85786810180600955811015620003955760098652888620013383825416179055600a5490811015620003825785810180600a558110156200036f57600a855287852001903390825416179055338352600b8652604083208054908582018092116200035c575581519485116200034957600e54908482811c921680156200033e575b878310146200032b5750601f8111620002df575b508491601f8511600114620002765793945084929190836200026a575b50501b916000199060031b1c191617600e555b60405161134a90816200058182396080518181816108c701528181610ac90152610ffb015260a05181818161021f01526108640152f35b01519250388062000220565b600e815285812093958591601f198316915b88838310620002c45750505010620002aa575b505050811b01600e5562000233565b015160001960f88460031b161c191690553880806200029b565b85870151885590960195948501948793509081019062000288565b600e8352858320601f860160051c81019187871062000320575b601f0160051c019084905b8281106200031457505062000203565b84815501849062000304565b9091508190620002f9565b634e487b7160e01b845260229052602483fd5b91607f1691620001ef565b634e487b7160e01b835260419052602482fd5b634e487b7160e01b855260118352602485fd5b634e487b7160e01b855260328352602485fd5b634e487b7160e01b855260418352602485fd5b634e487b7160e01b865260328452602486fd5b634e487b7160e01b865260418452602486fd5b634e487b7160e01b885260128652602488fd5b01519050388062000120565b91908c9450601f1984168c8052838d20938d905b8282106200042857505084116200040e575b505050811b01875562000134565b015160001960f88460031b161c1916905538808062000400565b8484015186558f97909501949384019390810190620003ee565b8b8052818c20929350601f850160051c8301929185106200048e575b84939291601f8e920160051c01915b8281106200047f57508e915062000106565b8c81558594508d91016200046d565b90915081906200045e565b634e487b7160e01b8a52602260045260248afd5b90607f1690620000ef565b634e487b7160e01b600052604160045260246000fd5b600080fd5b6040519190601f01601f191682016001600160401b03811183821017620004b857604052565b51906001600160a01b0382168203620004ce57565b919080601f84011215620004ce5782516001600160401b038111620004b85760209062000544601f8201601f19168301620004d3565b92818452828287010111620004ce5760005b8181106200056c57508260009394955001015290565b85810183015184820184015282016200055656fe6080604081815260049182361015610022575b505050361561002057600080fd5b005b600092833560e01c91826302d05d3f14610fe75750816306e4a5d814610e99578163148c0c7514610ca45781632a289e6714610aac5781632fcc345b14610a7b578163335e536c14610a5c57816339518b5e14610a3d57816339da315214610a1e5781633f3b3b27146109ff578163446ad549146109be57816348d555eb1461099f57816356dad8dc146107b8578163570f8813146107895781635bec4cb41461076a5781635daf08ca14610713578163a1657681146106f4578163a447ce5b146106ba578163a693600b1461069c578163bab2f5521461067d578163bf85ef32146105a3578163c623674f14610485578163ccbac9f514610466578163d393b97814610242578163d8270dce14610207578163dbdff2c1146101e3578163f8b2cb4f146101af57508063fcf488a9146101875763ff186b2e146101665780610012565b346101835781600319360112610183576020906010549051908152f35b5080fd5b5034610183578160031936011261018357600c5490516001600160a01b039091168152602090f35b9050346101df5760203660031901126101df57356001600160a01b03811681036101df5760209250319051908152f35b8280fd5b505034610183578160031936011261018357602090610200611222565b9051908152f35b505034610183578160031936011261018357602090517f00000000000000000000000000000000000000000000000000000000000000008152f35b9050826003193601126101df576009546007548110156104345733316005548091106103fa57338552600b602052838520546103c4576102839034146111d6565b6801000000000000000090818110156103b157600181018060095581101561039e57600985527f6e1540171b6c0c960b71a7020d9f60077f6af931a8bbf590da0223dacf75c7af0180546001600160a01b03191633179055600a549081101561038b576102f98160016103179301600a55611189565b81546001600160a01b0360039290921b91821b19163390911b179055565b338352600b602052818320805491600183018093116103785750556009546007541461036f575b60055490519081527f7f3b9effe05cfb4f31f854004de03199fd03fe56bf38a48b2aa9a9f4402d6e2360203392a280f35b4260015561033e565b634e487b7160e01b855260119052602484fd5b634e487b7160e01b845260418252602484fd5b634e487b7160e01b855260328352602485fd5b634e487b7160e01b855260418352602485fd5b835162461bcd60e51b8152602081850152601060248201526f20b63932b0b23c90309036b2b6b132b960811b6044820152606490fd5b835162461bcd60e51b81526020818501526014602482015273496e73756666696369656e742062616c616e636560601b6044820152606490fd5b506020606492519162461bcd60e51b8352820152600c60248201526b115c5d58881a5cc8199d5b1b60a21b6044820152fd5b505034610183578160031936011261018357602090600d549051908152f35b8284346105a057806003193601126105a05781519181600e5492600184811c91818616958615610596575b6020968785108114610583578899509688969785829a52918260001461055c575050600114610500575b5050506104fc92916104ed91038561102a565b51928284938452830190611149565b0390f35b9190869350600e83527fbb7b4a454dc3493923482f07822329ed19e8244eff582cc204f8554c3620c3fd5b82841061054457505050820101816104ed6104fc6104da565b8054848a01860152889550879490930192810161052b565b60ff19168782015293151560051b860190930193508492506104ed91506104fc90506104da565b634e487b7160e01b835260228a52602483fd5b92607f16926104b0565b80fd5b919050346101df57826003193601126101df576011548151633fabe5a360e21b815292939060a0908490869082906001600160a01b03165afa928315610671578193610623575b506402540be4009283810293818505149015171561061057602083838160105551908152f35b634e487b7160e01b815260118452602490fd5b90925060a0813d8211610669575b8161063e60a0938361102a565b810103126101df5761064f816112f8565b506106616080602083015192016112f8565b5091386105ea565b3d9150610631565b509051903d90823e3d90fd5b5050346101835781600319360112610183576020906006549051908152f35b9050346101df57826003193601126101df5760209250549051908152f35b9050346101df5760203660031901126101df57356001600160a01b038116908190036101df5782829160209452600b845220549051908152f35b5050346101835781600319360112610183576020906007549051908152f35b9050346101df5760203660031901126101df57356009548110156101df5760096020935260018060a01b03907f6e1540171b6c0c960b71a7020d9f60077f6af931a8bbf590da0223dacf75c7af0154169051908152f35b5050346101835781600319360112610183576020906008549051908152f35b5050346101835781600319360112610183576020905173694aa1769357215de4fac081bf1f309adc3253068152f35b8284346105a057806003193601126105a05760015492600254936003548254600554600654916007549360085499600954966107f2611062565b998b519981600e548060011c9260018216908115610995575b6020851082146109825750838e5290811561095357509d9e9a9b9c9d6001146108f9575b5050916108629c999795939161084e8c6108c59d9b999795038b61102a565b8a519d8e9d8e6101a0908181520190611149565b7f000000000000000000000000000000000000000000000000000000000000000060208f01529a8d015260608c015260808b015260a08a015260c089015260e0880152610100870152610120860152610140850152838203610160850152611149565b7f00000000000000000000000000000000000000000000000000000000000000006001600160a01b03166101808301520390f35b9150600e82527fbb7b4a454dc3493923482f07822329ed19e8244eff582cc204f8554c3620c3fd5b8183106109385750508a016020018161084e61082f565b6001818e602086819597969754920101520191019190610921565b60ff19166020808f01919091529e9f9d9e9c9d9b9c92151560051b8e01909201925083915061084e905061082f565b634e487b7160e01b845260229052602483fd5b93607f169361080b565b5050346101835781600319360112610183576020906005549051908152f35b9050346101df5760203660031901126101df573591600a548310156105a057506109e9602092611189565b905491519160018060a01b039160031b1c168152f35b5050346101835781600319360112610183576020906003549051908152f35b505034610183578160031936011261018357602090600f549051908152f35b5050346101835781600319360112610183576020906001549051908152f35b5050346101835781600319360112610183576020906002549051908152f35b5050346101835781600319360112610183576104fc90610a99611062565b9051918291602083526020830190611149565b9050346101df57826003193601126101df576001600160a01b03917f000000000000000000000000000000000000000000000000000000000000000083163303610c5157506003546008548101809111610c3e57610b0c904210156112b6565b610b14611222565b82610b1e82611189565b90549060031b1c166bffffffffffffffffffffffff60a01b600c541617600c5542600355600a5460018111610bda575b5050600a54908115610bc757600019918201610b6981611189565b8582549160031b1b19169055600a55600654918214610bb45750600101600655600c54167f5b690ec4a06fe979403046eaeea5b3ce38524683c3001f662c8b5a829632f7df8280a280f35b634e487b7160e01b845260119052602483fd5b634e487b7160e01b845260319052602483fd5b6000198101908111610c2b5790610c0584610bf7610c2494611189565b90549060031b1c1691611189565b90919082549060031b9160018060a01b03809116831b921b1916179055565b3880610b4e565b634e487b7160e01b855260118352602485fd5b634e487b7160e01b845260118252602484fd5b906020608492519162461bcd60e51b8352820152602760248201527f4f6e6c79207468652063726561746f722063616e2063616c6c207468697320666044820152663ab731ba34b7b760c91b6064820152fd5b919050346101df57826003193601126101df57600c546001600160a01b0381169290919033849003610e605760015415610e2757610ce66008544210156112b6565b479260055460095490818102918183041490151715610e1457808511610e0c575b506001600160a01b031916600c558480808086885af13d15610e07573d67ffffffffffffffff8111610df457835190610d4a601f8201601f19166020018361102a565b81528660203d92013e5b15610dbb5750602083927f9206244e7d07ef9a49c1dae86e820d494f0dd268fa04f434eb1de8475a4bb5549251908152a260065460075414610d94575080f35b7fd29e8545d33d16738453f73ba7267664418170c341c7ab7e3eb60e1fa27dd18e8280a280f35b6020606492519162461bcd60e51b835282015260146024820152732330b4b632b2103a379039b2b7321022ba3432b960611b6044820152fd5b634e487b7160e01b875260418352602487fd5b610d54565b935038610d07565b634e487b7160e01b875260118352602487fd5b6020606492519162461bcd60e51b83528201526014602482015273115c5d58881b9bdd081cdd185c9d1959081e595d60621b6044820152fd5b6020606492519162461bcd60e51b835282015260146024820152732737ba103a343290363ab1b5bc903bb4b73732b960611b6044820152fd5b838381600319360112610183573382526020600b81528183205415610fb657338352600b815281832054600654809111610f73576007541115610f4057610ee360055434146111d6565b338352600b815281832080549060018201809211610f2d5755600554915191825233917f2042b7712cb5296596d92ab14e92638ac307b3b6300fa48c5ccd37ad6adbbeb19190a280f35b634e487b7160e01b855260118652602485fd5b8390606492519162461bcd60e51b8352820152600e60248201526d115c5d58881a185cc8195b99195960921b6044820152fd5b825162461bcd60e51b8152808601839052601b60248201527f416c7265616479207061696420666f722074686973206379636c6500000000006044820152606490fd5b8390606492519162461bcd60e51b8352820152600c60248201526b2737ba10309036b2b6b132b960a11b6044820152fd5b8490346101835781600319360112610183577f00000000000000000000000000000000000000000000000000000000000000006001600160a01b03168152602090f35b90601f8019910116810190811067ffffffffffffffff82111761104c57604052565b634e487b7160e01b600052604160045260246000fd5b604051906000805490600182811c9080841693841561113f575b602094858410811461112b578388528794939291811561110b57506001146110af575b50506110ad9250038361102a565b565b60008080527f290decd9548b62a8d60345a988386fc84ba6bc95484008f6362f93160ef3e56395935091905b8183106110f35750506110ad9350820101388061109f565b855488840185015294850194879450918301916110db565b9150506110ad94925060ff191682840152151560051b820101388061109f565b634e487b7160e01b85526022600452602485fd5b91607f169161107c565b919082519283825260005b848110611175575050826000602080949584010152601f8019910116010190565b602081830181015184830182015201611154565b600a548110156111c057600a6000527fc65a7bb8d6351c1cf70c95a316cc6a92839c986682d98bc35f958f4883f9d2a80190600090565b634e487b7160e01b600052603260045260246000fd5b156111dd57565b60405162461bcd60e51b815260206004820152601d60248201527f496e636f727265637420636f6e747269627574696f6e20616d6f756e740000006044820152606490fd5b60001943014381116112a0576006545a6040519160208301934084524260408401523360601b6060840152607483015260948201526094815260c0810181811067ffffffffffffffff82111761104c5760405251902080600d55600a5490811561128a570690565b634e487b7160e01b600052601260045260246000fd5b634e487b7160e01b600052601160045260246000fd5b156112bd57565b60405162461bcd60e51b815260206004820152601360248201527210de58db19481b9bdd08195b991959081e595d606a1b6044820152606490fd5b519069ffffffffffffffffffff8216820361130f57565b600080fdfea26469706673582212201e267a8dea097cf4361806dc1ebc5b1af4230a6a808e7290879cb615c41c7bdd64736f6c63430008140033a26469706673582212201ec855afbda4593f83d6b3e8704713487192e30b1d4796589954a6eef3aee49664736f6c63430008140033",
  "devdoc": {
    "kind": "dev",
    "methods": {},
    "version": 1
  },
  "userdoc": {
    "kind": "user",
    "methods": {},
    "version": 1
  },
  "storageLayout": {
    "storage": [
      {
        "astId": 822,
        "contract": "contracts/EthqubFactory.sol:EthqubFactory",
        "label": "ethqubArray",
        "offset": 0,
        "slot": "0",
        "type": "t_array(t_contract(Ethqub)813)dyn_storage"
      },
      {
        "astId": 827,
        "contract": "contracts/EthqubFactory.sol:EthqubFactory",
        "label": "ethqubMapping",
        "offset": 0,
        "slot": "1",
        "type": "t_mapping(t_address,t_contract(Ethqub)813)"
      }
    ],
    "types": {
      "t_address": {
        "encoding": "inplace",
        "label": "address",
        "numberOfBytes": "20"
      },
      "t_array(t_contract(Ethqub)813)dyn_storage": {
        "base": "t_contract(Ethqub)813",
        "encoding": "dynamic_array",
        "label": "contract Ethqub[]",
        "numberOfBytes": "32"
      },
      "t_contract(Ethqub)813": {
        "encoding": "inplace",
        "label": "contract Ethqub",
        "numberOfBytes": "20"
      },
      "t_mapping(t_address,t_contract(Ethqub)813)": {
        "encoding": "mapping",
        "key": "t_address",
        "label": "mapping(address => contract Ethqub)",
        "numberOfBytes": "32",
        "value": "t_contract(Ethqub)813"
      }
    }
  }
}