{
  "address": "0xaFce9744349fD1bA34C350caA64f6A01dBccD8c7",
  "abi": [
    {
      "anonymous": false,
      "inputs": [
        {
          "indexed": true,
          "internalType": "address",
          "name": "contractAddress",
          "type": "address"
        },
        {
          "indexed": true,
          "internalType": "address",
          "name": "creator",
          "type": "address"
        }
      ],
      "name": "EthqubCreated",
      "type": "event"
    },
    {
      "inputs": [
        {
          "internalType": "address",
          "name": "_creator",
          "type": "address"
        },
        {
          "internalType": "string",
          "name": "_equbTitle",
          "type": "string"
        },
        {
          "internalType": "uint256",
          "name": "_poolAmount",
          "type": "uint256"
        },
        {
          "internalType": "uint256",
          "name": "_totalCycles",
          "type": "uint256"
        },
        {
          "internalType": "uint256",
          "name": "_cycleDuration",
          "type": "uint256"
        },
        {
          "internalType": "string",
          "name": "_ipfsHash",
          "type": "string"
        },
        {
          "internalType": "uint256",
          "name": "_startingTime",
          "type": "uint256"
        },
        {
          "internalType": "uint256",
          "name": "_creditScore",
          "type": "uint256"
        },
        {
          "internalType": "address",
          "name": "priceFeedAddress",
          "type": "address"
        }
      ],
      "name": "createEthqub",
      "outputs": [
        {
          "internalType": "address",
          "name": "",
          "type": "address"
        }
      ],
      "stateMutability": "payable",
      "type": "function"
    },
    {
      "inputs": [
        {
          "internalType": "uint256",
          "name": "",
          "type": "uint256"
        }
      ],
      "name": "ethqubArray",
      "outputs": [
        {
          "internalType": "contract Ethqub",
          "name": "",
          "type": "address"
        }
      ],
      "stateMutability": "view",
      "type": "function"
    },
    {
      "inputs": [
        {
          "internalType": "address",
          "name": "",
          "type": "address"
        }
      ],
      "name": "ethqubMapping",
      "outputs": [
        {
          "internalType": "contract Ethqub",
          "name": "",
          "type": "address"
        }
      ],
      "stateMutability": "view",
      "type": "function"
    },
    {
      "inputs": [],
      "name": "getDeployedContracts",
      "outputs": [
        {
          "internalType": "contract Ethqub[]",
          "name": "",
          "type": "address[]"
        }
      ],
      "stateMutability": "view",
      "type": "function"
    },
    {
      "inputs": [
        {
          "internalType": "address",
          "name": "contractAddress",
          "type": "address"
        }
      ],
      "name": "getEthqubDetails",
      "outputs": [
        {
          "internalType": "string",
          "name": "",
          "type": "string"
        },
        {
          "internalType": "uint256",
          "name": "",
          "type": "uint256"
        },
        {
          "internalType": "uint256",
          "name": "",
          "type": "uint256"
        },
        {
          "internalType": "uint256",
          "name": "",
          "type": "uint256"
        },
        {
          "internalType": "uint256",
          "name": "",
          "type": "uint256"
        },
        {
          "internalType": "uint256",
          "name": "",
          "type": "uint256"
        },
        {
          "internalType": "uint256",
          "name": "",
          "type": "uint256"
        },
        {
          "internalType": "uint256",
          "name": "",
          "type": "uint256"
        },
        {
          "internalType": "uint256",
          "name": "",
          "type": "uint256"
        },
        {
          "internalType": "uint256",
          "name": "",
          "type": "uint256"
        },
        {
          "internalType": "uint256",
          "name": "",
          "type": "uint256"
        },
        {
          "internalType": "string",
          "name": "",
          "type": "string"
        },
        {
          "internalType": "address",
          "name": "",
          "type": "address"
        },
        {
          "internalType": "address[]",
          "name": "",
          "type": "address[]"
        },
        {
          "internalType": "address[]",
          "name": "",
          "type": "address[]"
        },
        {
          "internalType": "address[]",
          "name": "",
          "type": "address[]"
        },
        {
          "internalType": "uint256[]",
          "name": "",
          "type": "uint256[]"
        }
      ],
      "stateMutability": "view",
      "type": "function"
    },
    {
      "inputs": [
        {
          "internalType": "address",
          "name": "contractAddress",
          "type": "address"
        },
        {
          "internalType": "address",
          "name": "_joiner",
          "type": "address"
        }
      ],
      "name": "joinEthqub",
      "outputs": [],
      "stateMutability": "payable",
      "type": "function"
    }
  ],
  "transactionHash": "0x8af72067689b67efff4855b01dee1e1ec190ceae14b0fa75c7f97a6e9f719268",
  "args": [],
  "numDeployments": 21,
  "solcInputHash": "62d2cc202e728799a8e5401895b270e3",
  "bytecode": "0x60808060405234610016576127df908161001c8239f35b600080fdfe6102606040526004803610156200001557600080fd5b6000806101e052803560e01c806316dc68ee1462000858578063333f5bd11462000815578063aa9a068f146200073d578063af634c191462000678578063b5b0e80b14620002505763bb762ad1146200006d57600080fd5b6101209081600319360112620002495762000087620008ee565b67ffffffffffffffff6024358181116200024957620000aa9036908701620009eb565b60a4358281116200024957620000c49036908801620009eb565b6001600160a01b03946101043586811693919084900362000246575060405194611c39808701958611878710176200022d57926200012361010093896200014a948a99989762000b718b39169a8b88528060208901528701906200092f565b9060443560408701526064356060870152608435608087015285820360a08701526200092f565b9260c43560c082015260e43560e08201520152039034f080156200021f576101e051938454946801000000000000000086101562000207575050816200019b856001602097016101e05155620008a3565b939092169282549060031b9184831b921b1916179055806101e05152600183526101e0519160408320826bffffffffffffffffffffffff60a01b825416179055817ffbb20e1d7e6324290fb1e279ba173c2aed27229abdb8292ba483c04067bbd77d6040519480a38152f35b634e487b7160e01b905260419052506101e051602490fd5b6040513d6101e051823e3d90fd5b60418a634e487b7160e01b6101e051525260246101e051fd5b80fd5b6101e05180fd5b82346200024957602036600319011262000249576001600160a01b0362000276620008ee565b16806101e0515260016020526200029e60018060a01b0360406101e051205416151562000a38565b60405180926315b6b63760e21b8252816101e051935afa8061016052156200021f576101e0519081826101a05282610180528283918485868790889289948a988b988c809c81610120526101605162000426575b5093620003d89d9a97936200038f9793620003b29b97936200032c620003c59f9c986040518060e05261022080915260e05101906200092f565b98602060e05101526101a051604060e051015261018051606060e0510152608060e051015260a060e051015260c060e051015260e08051015261010060e051015261012060e051015261014060e051015260e0516101608184039101526200092f565b9160018060a01b031661018060e051015260e0516101a081840391015262000956565b9060e0516101c081840391015262000956565b9060e0516101e081840391015262000956565b60e0516102008183039101526020610120515191828152019060206101205101906101e0515b8181106200040f5760e05180850390f35b8251845260209384019390920191600101620003fe565b9c509c5050505050505050505050503d8092823e62000446828262000995565b6102208183810103126200024957805167ffffffffffffffff81116200024957620004779083830190830162000a85565b91602082015192604083015191606084015160805260808401519160a08501519060c08601519360e08701519761010088015196610120890151956101408a0151936101608b015167ffffffffffffffff81116200024957620004e090838d01908d0162000a85565b95620004f06101808d0162000ad2565b926101a08d015167ffffffffffffffff811162000249578d6200051891838201910162000b00565b60c0526101c08d015167ffffffffffffffff811162000249578d6200054291838201910162000b00565b6101c0526101e08d015167ffffffffffffffff811162000249578d6200056d91838201910162000b00565b610140526102008d01518060a05267ffffffffffffffff81116200024957818e01818f01601f01121562000249578d015161024052620005c7620005b46102405162000ae7565b8061010052604051806102005262000995565b6102005161022052610240516102205152602061020051016102205260a0518d01908d0160206102405160051b8301011162000249576020015b60208d6102405160051b9060a051010101811015620006385760208181925161022051528161022051016102205201905062000601565b506101a0939093526080516101805260c0516101c051610140516102005161012052909d909c50929a909994989697959695909492939091908e620002f2565b826040366003190112620002495762000690620008ee565b6001600160a01b03602435818116939290849003620002495781620006cd911691826101e05152600160205260406101e051205416151562000a38565b803b15620002495760405192636a49cc5760e11b845282840152826024816101e0519334905af180156200021f5762000708575b6101e05180f35b67ffffffffffffffff8211620007245750604052808062000701565b604190634e487b7160e01b6101e051525260246101e051fd5b3462000249576101e05180600319360112620002465760405190819054808352602080930180916101e05180527f290decd9548b62a8d60345a988386fc84ba6bc95484008f6362f93160ef3e563906101e0515b86828210620007f7578686620007aa8288038362000995565b60405192839281840190828552518091526040840192916101e0515b828110620007d657505050500390f35b83516001600160a01b031685528695509381019392810192600101620007c6565b83546001600160a01b03168552909301926001928301920162000791565b3462000249576020366003190112620002495760206001600160a01b03806200083d620008ee565b166101e051526001825260406101e051205416604051908152f35b5090346200089f5760203660031901126200089f5735908054821015620002465760206200088683620008a3565b905460405160039290921b1c6001600160a01b03168152f35b5080fd5b906000918254811015620008da578280527f290decd9548b62a8d60345a988386fc84ba6bc95484008f6362f93160ef3e563019190565b634e487b7160e01b83526032600452602483fd5b600435906001600160a01b03821682036200090557565b600080fd5b60005b8381106200091e5750506000910152565b81810151838201526020016200090d565b906020916200094a815180928185528580860191016200090a565b601f01601f1916010190565b90815180825260208080930193019160005b82811062000977575050505090565b83516001600160a01b03168552938101939281019260010162000968565b90601f8019910116810190811067ffffffffffffffff821117620009b857604052565b634e487b7160e01b600052604160045260246000fd5b67ffffffffffffffff8111620009b857601f01601f191660200190565b81601f82011215620009055780359062000a0582620009ce565b9262000a15604051948562000995565b828452602083830101116200090557816000926020809301838601378301015290565b1562000a4057565b60405162461bcd60e51b815260206004820152601760248201527f436f6e747261637420646f6573206e6f742065786973740000000000000000006044820152606490fd5b81601f820112156200090557805162000a9e81620009ce565b9262000aae604051948562000995565b81845260208284010111620009055762000acf91602080850191016200090a565b90565b51906001600160a01b03821682036200090557565b67ffffffffffffffff8111620009b85760051b60200190565b81601f82011215620009055780519162000b1a8362000ae7565b9262000b2a604051948562000995565b808452602092838086019260051b82010192831162000905578301905b82821062000b56575050505090565b83809162000b648462000ad2565b81520191019062000b4756fe60c060405262001c39803803806200001781620004fe565b92833981019061012081830312620004f957620000348162000524565b602080830151919290916001600160401b0390818111620004f957856200005d91840162000539565b9460408301519060608401519060808501519060a086015190858211620004f9576200008b91870162000539565b91620000a061010060c0880151970162000524565b504260a05287608052885193858511620004e3576002549460019a8b87811c97168015620004d8575b8a881014620004c2578190601f978881116200046b575b508a90888311600114620003f657600092620003ea575b5050600019600383901b1c1916908b1b176002555b806006558115620003d457819004600755600955600a5583600355600493845560006008558051928311620002a6576011548781811c91168015620003c9575b86821014620003b457908183859493116200035b575b5085918311600114620002f157600092620002e5575b5050600019600383901b1c191690851b176011555b600b5492680100000000000000009384811015620002d05785810180600b55811015620002bb57600b60009081528490200180546001600160a01b03929092166001600160a01b03199283168117909155600d5485811015620002a65786810180600d558110156200029157600d600052846000200191825416179055600e54928310156200027c5783830180600e55831015620002675750600e600052600020015560405161168d9081620005ac823960805181818161095f01528181610bba0152611176015260a05181818161023901526108da0152f35b603290634e487b7160e01b6000525260246000fd5b604190634e487b7160e01b6000525260246000fd5b603284634e487b7160e01b6000525260246000fd5b604184634e487b7160e01b6000525260246000fd5b603283634e487b7160e01b6000525260246000fd5b604183634e487b7160e01b6000525260246000fd5b01519050388062000178565b90879350601f198316916011600052866000209260005b888282106200034457505084116200032a575b505050811b016011556200018d565b015160001960f88460031b161c191690553880806200031b565b8385015186558b9790950194938401930162000308565b909192506011600052856000208380860160051c820192888710620003aa575b9186958b929594930160051c01915b8281106200039a57505062000162565b600081558695508a91016200038a565b925081926200037b565b602285634e487b7160e01b6000525260246000fd5b90607f16906200014c565b634e487b7160e01b600052601260045260246000fd5b015190503880620000f7565b908d9350601f1983169160026000528c600020928d6000905b8282106200044a575050841162000430575b505050811b016002556200010c565b015160001960f88460031b161c1916905538808062000421565b91929395968291958786015181550195019301908f95949392918e6200040f565b90915060026000528a6000208880850160051c8201928d8610620004b8575b918f91869594930160051c01915b828110620004a8575050620000e0565b600081558594508f910162000498565b925081926200048a565b634e487b7160e01b600052602260045260246000fd5b96607f1696620000c9565b634e487b7160e01b600052604160045260246000fd5b600080fd5b6040519190601f01601f191682016001600160401b03811183821017620004e357604052565b51906001600160a01b0382168203620004f957565b919080601f84011215620004f95782516001600160401b038111620004e3576020906200056f601f8201601f19168301620004fe565b92818452828287010111620004f95760005b8181106200059757508260009394955001015290565b85810183015184820184015282016200058156fe61014080604052600480361015610020575b5050361561001e57600080fd5b005b60003560e01c91826302d05d3f146111635750816306e4a5d814610fb8578163148c0c7514610d655781632a289e6714610b9e5781632fcc345b14610b82578163335e536c14610b6557816339518b5e14610b4757816339da315214610b295781633f3b3b2714610b0b578163446ad54914610ae457816348d555eb14610ac65781634a76d31214610a9157816356dad8dc1461070d578163570f8813146106de5781635bec4cb4146106c05781635daf08ca14610680578163a165768114610662578163a230c5241461062b578163a693600b1461060d578163bab2f552146105ef578163bf85ef3214610513578163c2522598146104ba578163c5a0a74d1461048d578163c623674f14610459578163ccbac9f51461043b578163d49398ae1461025c578163d8270dce14610221578163dbdff2c1146101fe578163f8b2cb4f146101d057508063fcf488a9146101a75763ff186b2e14610184573880610011565b346101a25760003660031901126101a2576020600054604051908152f35b600080fd5b346101a25760003660031901126101a257600f546040516001600160a01b039091168152602090f35b346101a25760203660031901126101a257356001600160a01b03811681036101a25760209031604051908152f35b346101a25760003660031901126101a257602061021961152f565b604051908152f35b346101a25760003660031901126101a25760206040517f00000000000000000000000000000000000000000000000000000000000000008152f35b60203660031901126101a25780356001600160a01b038116918282036101a257600b5491600954831015610408578031600754116103cd57678ac7230489e800006102a6826114d9565b0361039657600160401b928381101561038157816102cd8260016102ec9401600b55611440565b90919082549060031b9160018060a01b03809116831b921b1916179055565b600d548381101561038157906102cd82600161030b9401600d55611409565b600e549182101561036c57508060016103279201600e556113bc565b81549060031b906001821b91600019901b19161790557f7f3b9effe05cfb4f31f854004de03199fd03fe56bf38a48b2aa9a9f4402d6e236020600754604051908152a2005b604190634e487b7160e01b6000525260246000fd5b604183634e487b7160e01b6000525260246000fd5b60405162461bcd60e51b8152602081840152601060248201526f20b63932b0b23c90309036b2b6b132b960811b6044820152606490fd5b60405162461bcd60e51b81526020818401526014602482015273496e73756666696369656e742062616c616e636560601b6044820152606490fd5b60405162461bcd60e51b8152602081840152600c60248201526b115c5d58881a5cc8199d5b1b60a21b6044820152606490fd5b346101a25760003660031901126101a2576020601054604051908152f35b346101a25760003660031901126101a2576104896104756112c8565b60405191829160208352602083019061137c565b0390f35b346101a25760203660031901126101a257356001600160a01b03811681036101a2576102196020916114d9565b346101a25760203660031901126101a25735600c548110156101a257600c6000527fdf6966c971051c3d54ec59162606531493a51404a002842f56009d7e5cf4a8c701546040516001600160a01b039091168152602090f35b346101a25760003660031901126101a257600154604051633fabe5a360e21b8152919060a0908390839082906001600160a01b03165afa9182156105e357600092610595575b506402540be400918281029281840514901517156105805760208280600055604051908152f35b601190634e487b7160e01b6000525260246000fd5b90915060a0813d82116105db575b816105b060a093836111a5565b810103126101a2576105c181611640565b506105d3608060208301519201611640565b509082610559565b3d91506105a3565b6040513d6000823e3d90fd5b346101a25760003660031901126101a2576020600854604051908152f35b346101a25760003660031901126101a2576020600654604051908152f35b346101a25760203660031901126101a257356001600160a01b03811681036101a2576106586020916115ef565b6040519015158152f35b346101a25760003660031901126101a2576020600954604051908152f35b346101a25760203660031901126101a25735600b548110156101a2576106a7602091611440565b905460405160039290921b1c6001600160a01b03168152f35b346101a25760003660031901126101a2576020600a54604051908152f35b346101a25760003660031901126101a257602060405173694aa1769357215de4fac081bf1f309adc3253068152f35b346101a25760003660031901126101a25760035490549060055460e0526006546007549160085492600954600a54600b54916107476111dd565b966107506112c8565b946040519788896020600d549283815201600d6000527fd7b6990105719101dabeb77144f2a3385c8033acd3af97e9423a695e81ad1eb59260005b818110610a6f5750506107a09250038a6111a5565b6040519a60208c88815201600b6000528c7f0175b7a638427703f0dbe7bb9bbf987a2551717b34e79f33b5b1008d1fa01db99160005b8a8110610a4e57506107ea9250038d6111a5565b6040519a8b8c6020600c549283815201600c6000527fdf6966c971051c3d54ec59162606531493a51404a002842f56009d7e5cf4a8c79260005b818110610a295750506108399250038d6111a5565b60405180610100528060a052600e54809152602061010051018061010052608052600e6000527fbb7b4a454dc3493923482f07822329ed19e8244eff582cc204f8554c3620c3fd6000610120525b816101205110610a01575050936109aa9a979361095597936109bc9e9b97936108d76109989c986108c060a051806101005103906111a5565b6040518060c05261022080915260c051019061137c565b987f0000000000000000000000000000000000000000000000000000000000000000602060c0510152604060c0510152606060c051015260e051608060c051015260a060c051015260c08051015260e060c051015261010060c051015261012060c051015261014060c051015260c05161016081840391015261137c565b9060018060a01b037f00000000000000000000000000000000000000000000000000000000000000001661018060c051015260c0516101a0818403910152611477565b9060c0516101c0818403910152611477565b9060c0516101e0818403910152611477565b60c051610200818303910152602060a051519182815201906080519060005b8181106109eb5760c05180850390f35b82518452602093840193909201916001016109db565b8060019154610100515260206101005101610100520190600161012051016101205290610887565b91600191935060208291828060a01b0387541681520194019101918f92939193610824565b9150600160208192828060a01b0386541681520193019101918e91926107d6565b84546001600160a01b031683526001948501948e94506020909301920161078b565b346101a25760203660031901126101a25735600e548110156101a257610ab86020916113bc565b90546040519160031b1c8152f35b346101a25760003660031901126101a2576020600754604051908152f35b346101a25760203660031901126101a25735600d548110156101a2576106a7602091611409565b346101a25760003660031901126101a2576020600554604051908152f35b346101a25760003660031901126101a2576020601254604051908152f35b346101a25760003660031901126101a2576020600354604051908152f35b346101a25760003660031901126101a25760209054604051908152f35b346101a25760003660031901126101a2576104896104756111dd565b346101a25760003660031901126101a2576001600160a01b03907f000000000000000000000000000000000000000000000000000000000000000082163303610d1157600554600a548101809111610cfc57610bfc904210156115ad565b610c0461152f565b82610c0e82611409565b90549060031b1c166bffffffffffffffffffffffff60a01b600f541617600f5542600555600d5460018111610cb5575b5050600d54908115610ca0575060001901610c5881611409565b8382549160031b1b19169055600d55610c726008546114b4565b600855600f54167f5b690ec4a06fe979403046eaeea5b3ce38524683c3001f662c8b5a829632f7df600080a2005b603190634e487b7160e01b6000525260246000fd5b6000198101908111610ce757906102cd84610cd2610ce094611409565b90549060031b1c1691611409565b8280610c3e565b601183634e487b7160e01b6000525260246000fd5b601182634e487b7160e01b6000525260246000fd5b60849060206040519162461bcd60e51b8352820152602760248201527f4f6e6c79207468652063726561746f722063616e2063616c6c207468697320666044820152663ab731ba34b7b760c91b6064820152fd5b346101a25760003660031901126101a257600f546001600160a01b03169033829003610f7d5760035415610f4257610da1600a544210156115ad565b4790600754600b5490818102918183041490151715610cfc57808311610f3a575b50600c54600160401b811015610f25576001810180600c55811015610f1057600c6000527fdf6966c971051c3d54ec59162606531493a51404a002842f56009d7e5cf4a8c7016bffffffffffffffffffffffff60a01b908482825416179055600f5416600f55600080808085875af13d15610f0b573d67ffffffffffffffff81116103815760405190610e5f601f8201601f1916602001836111a5565b8152600060203d92013e5b15610ed057507f9206244e7d07ef9a49c1dae86e820d494f0dd268fa04f434eb1de8475a4bb55460208392604051908152a260085460095414610ea957005b7fd29e8545d33d16738453f73ba7267664418170c341c7ab7e3eb60e1fa27dd18e600080a2005b60649060206040519162461bcd60e51b835282015260146024820152732330b4b632b2103a379039b2b7321022ba3432b960611b6044820152fd5b610e6a565b603282634e487b7160e01b6000525260246000fd5b604182634e487b7160e01b6000525260246000fd5b915083610dc2565b60649060206040519162461bcd60e51b83528201526014602482015273115c5d58881b9bdd081cdd185c9d1959081e595d60621b6044820152fd5b60649060206040519162461bcd60e51b835282015260146024820152732737ba103a343290363ab1b5bc903bb4b73732b960611b6044820152fd5b60003660031901126101a257610fd5610fd0336114d9565b6113bc565b90549060031b1c1561113057610fed610fd0336114d9565b90549060031b1c6008548091116110ec5760095411156110b75760075434036110735761101c610fd0336114d9565b819291549060031b9181831c90600182018092116105805750821b91600019901b19161790556007546040519081527f2042b7712cb5296596d92ab14e92638ac307b3b6300fa48c5ccd37ad6adbbeb160203392a2005b60649060206040519162461bcd60e51b8352820152601d60248201527f496e636f727265637420636f6e747269627574696f6e20616d6f756e740000006044820152fd5b60649060206040519162461bcd60e51b8352820152600e60248201526d115c5d58881a185cc8195b99195960921b6044820152fd5b60405162461bcd60e51b8152602081840152601b60248201527f416c7265616479207061696420666f722074686973206379636c6500000000006044820152606490fd5b60649060206040519162461bcd60e51b8352820152600c60248201526b2737ba10309036b2b6b132b960a11b6044820152fd5b346101a25760003660031901126101a2577f00000000000000000000000000000000000000000000000000000000000000006001600160a01b03168152602090f35b90601f8019910116810190811067ffffffffffffffff8211176111c757604052565b634e487b7160e01b600052604160045260246000fd5b60405190600060025490600182811c908084169384156112be575b60209485841081146112aa578388528794939291811561128a575060011461122b575b5050611229925003836111a5565b565b9093915060026000527f405787fa12a823e0f2b7631cc41b3ba8828b3321ca811111fa75cd3aa3bb5ace936000915b8183106112725750506112299350820101388061121b565b8554888401850152948501948794509183019161125a565b91505061122994925060ff191682840152151560051b820101388061121b565b634e487b7160e01b85526022600452602485fd5b91607f16916111f8565b60405190600060115490600182811c90808416938415611372575b60209485841081146112aa578388528794939291811561128a5750600114611313575050611229925003836111a5565b9093915060116000527f31ecc21a745e3968a04e9570e4425bc18fa8019c68028196b546d1669c200c68936000915b81831061135a5750506112299350820101388061121b565b85548884018501529485019487945091830191611342565b91607f16916112e3565b919082519283825260005b8481106113a8575050826000602080949584010152601f8019910116010190565b602081830181015184830182015201611387565b600e548110156113f357600e6000527fbb7b4a454dc3493923482f07822329ed19e8244eff582cc204f8554c3620c3fd0190600090565b634e487b7160e01b600052603260045260246000fd5b600d548110156113f357600d6000527fd7b6990105719101dabeb77144f2a3385c8033acd3af97e9423a695e81ad1eb50190600090565b600b548110156113f357600b6000527f0175b7a638427703f0dbe7bb9bbf987a2551717b34e79f33b5b1008d1fa01db90190600090565b90815180825260208080930193019160005b828110611497575050505090565b83516001600160a01b031685529381019392810192600101611489565b60001981146114c35760010190565b634e487b7160e01b600052601160045260246000fd5b600b549060005b8281106114f657505050678ac7230489e8000090565b6114ff81611440565b905460039190911b1c6001600160a01b039081169083161461152957611524906114b4565b6114e0565b91505090565b60001943014381116114c3576008545a6040519160208301934084524260408401523360601b6060840152607483015260948201526094815260c0810181811067ffffffffffffffff8211176111c75760405251902080601055600d54908115611597570690565b634e487b7160e01b600052601260045260246000fd5b156115b457565b60405162461bcd60e51b815260206004820152601360248201527210de58db19481b9bdd08195b991959081e595d606a1b6044820152606490fd5b600b549060005b82811061160557505050600090565b61160e81611440565b905460039190911b1c6001600160a01b039081169083161461163857611633906114b4565b6115f6565b505050600190565b519069ffffffffffffffffffff821682036101a25756fea264697066735822122005fe96e2b9f16a7081d89de60c837a52b32981ad78f6e0dea75d2df72ecd087c64736f6c63430008140033a2646970667358221220de54b4210fcb045d489e205c7b1e286b496b8b0cdbebfd7ce08cc68d851338d964736f6c63430008140033",
  "devdoc": {
    "kind": "dev",
    "methods": {},
    "version": 1
  },
  "userdoc": {
    "kind": "user",
    "methods": {},
    "version": 1
  },
  "storageLayout": {
    "storage": [
      {
        "astId": 886,
        "contract": "contracts/EthqubFactory.sol:EthqubFactory",
        "label": "ethqubArray",
        "offset": 0,
        "slot": "0",
        "type": "t_array(t_contract(Ethqub)877)dyn_storage"
      },
      {
        "astId": 891,
        "contract": "contracts/EthqubFactory.sol:EthqubFactory",
        "label": "ethqubMapping",
        "offset": 0,
        "slot": "1",
        "type": "t_mapping(t_address,t_contract(Ethqub)877)"
      }
    ],
    "types": {
      "t_address": {
        "encoding": "inplace",
        "label": "address",
        "numberOfBytes": "20"
      },
      "t_array(t_contract(Ethqub)877)dyn_storage": {
        "base": "t_contract(Ethqub)877",
        "encoding": "dynamic_array",
        "label": "contract Ethqub[]",
        "numberOfBytes": "32"
      },
      "t_contract(Ethqub)877": {
        "encoding": "inplace",
        "label": "contract Ethqub",
        "numberOfBytes": "20"
      },
      "t_mapping(t_address,t_contract(Ethqub)877)": {
        "encoding": "mapping",
        "key": "t_address",
        "label": "mapping(address => contract Ethqub)",
        "numberOfBytes": "32",
        "value": "t_contract(Ethqub)877"
      }
    }
  }
}