{
  "address": "0x8bDc1c48C34f0260d175f1E1A3E950Bc00691632",
  "abi": [
    {
      "anonymous": false,
      "inputs": [
        {
          "indexed": true,
          "internalType": "address",
          "name": "contractAddress",
          "type": "address"
        },
        {
          "indexed": true,
          "internalType": "address",
          "name": "creator",
          "type": "address"
        }
      ],
      "name": "EthqubCreated",
      "type": "event"
    },
    {
      "inputs": [
        {
          "internalType": "address",
          "name": "_creator",
          "type": "address"
        },
        {
          "internalType": "string",
          "name": "_equbTitle",
          "type": "string"
        },
        {
          "internalType": "uint256",
          "name": "_poolAmount",
          "type": "uint256"
        },
        {
          "internalType": "uint256",
          "name": "_totalCycles",
          "type": "uint256"
        },
        {
          "internalType": "uint256",
          "name": "_cycleDuration",
          "type": "uint256"
        },
        {
          "internalType": "string",
          "name": "_ipfsHash",
          "type": "string"
        },
        {
          "internalType": "uint256",
          "name": "_startingTime",
          "type": "uint256"
        },
        {
          "internalType": "uint256",
          "name": "_creditScore",
          "type": "uint256"
        },
        {
          "internalType": "address",
          "name": "priceFeedAddress",
          "type": "address"
        }
      ],
      "name": "createEthqub",
      "outputs": [
        {
          "internalType": "address",
          "name": "",
          "type": "address"
        }
      ],
      "stateMutability": "nonpayable",
      "type": "function"
    },
    {
      "inputs": [
        {
          "internalType": "uint256",
          "name": "",
          "type": "uint256"
        }
      ],
      "name": "ethqubArray",
      "outputs": [
        {
          "internalType": "contract Ethqub",
          "name": "",
          "type": "address"
        }
      ],
      "stateMutability": "view",
      "type": "function"
    },
    {
      "inputs": [
        {
          "internalType": "address",
          "name": "",
          "type": "address"
        }
      ],
      "name": "ethqubMapping",
      "outputs": [
        {
          "internalType": "contract Ethqub",
          "name": "",
          "type": "address"
        }
      ],
      "stateMutability": "view",
      "type": "function"
    },
    {
      "inputs": [],
      "name": "getDeployedContracts",
      "outputs": [
        {
          "internalType": "contract Ethqub[]",
          "name": "",
          "type": "address[]"
        }
      ],
      "stateMutability": "view",
      "type": "function"
    },
    {
      "inputs": [
        {
          "internalType": "address",
          "name": "contractAddress",
          "type": "address"
        }
      ],
      "name": "getEthqubDetails",
      "outputs": [
        {
          "internalType": "string",
          "name": "",
          "type": "string"
        },
        {
          "internalType": "uint256",
          "name": "",
          "type": "uint256"
        },
        {
          "internalType": "uint256",
          "name": "",
          "type": "uint256"
        },
        {
          "internalType": "uint256",
          "name": "",
          "type": "uint256"
        },
        {
          "internalType": "uint256",
          "name": "",
          "type": "uint256"
        },
        {
          "internalType": "uint256",
          "name": "",
          "type": "uint256"
        },
        {
          "internalType": "uint256",
          "name": "",
          "type": "uint256"
        },
        {
          "internalType": "uint256",
          "name": "",
          "type": "uint256"
        },
        {
          "internalType": "uint256",
          "name": "",
          "type": "uint256"
        },
        {
          "internalType": "uint256",
          "name": "",
          "type": "uint256"
        },
        {
          "internalType": "uint256",
          "name": "",
          "type": "uint256"
        },
        {
          "internalType": "string",
          "name": "",
          "type": "string"
        },
        {
          "internalType": "address",
          "name": "",
          "type": "address"
        }
      ],
      "stateMutability": "view",
      "type": "function"
    },
    {
      "inputs": [
        {
          "internalType": "address",
          "name": "contractAddress",
          "type": "address"
        }
      ],
      "name": "joinEthqub",
      "outputs": [],
      "stateMutability": "payable",
      "type": "function"
    }
  ],
  "transactionHash": "0xa59b7ddf7ab172cc4ee24d0e83f0f5218a3ca8906b6190bb2eb10338362880f2",
  "args": [],
  "numDeployments": 5,
  "solcInputHash": "7c8b1388a45e989c69adcb413b659d36",
  "bytecode": "0x6080806040523461001657611fab908161001c8239f35b600080fdfe604060808152600490813610156200001657600080fd5b600090813560e01c806316dc68ee14620005c5578063333f5bd11462000587578063810d5e4214620004dd578063aa9a068f146200040f578063b5b0e80b146200023d5763bb762ad1146200006a57600080fd5b3462000239576101208060031936011262000235576200008962000655565b67ffffffffffffffff92906024358481116200023157620000ae90369088016200070e565b9360a4358181116200022d57620000c990369089016200070e565b6001600160a01b03956101043587811692919083900362000228578551946117808087019586118787101762000215579262000126610100938b6200014c948a999897620007f68b39169a8b885280602089015287019062000691565b90604435898701526064356060870152608435608087015285820360a087015262000691565b9260c43560c082015260e43560e08201520152039085f080156200020b57845468010000000000000000811015620001f85760209650917ffbb20e1d7e6324290fb1e279ba173c2aed27229abdb8292ba483c04067bbd77d91620001b784600188960189556200060a565b9490911695869482549060031b9186831b921b191617905582865260018752808620836bffffffffffffffffffffffff60a01b825416179055519480a38152f35b634e487b7160e01b865260418752602486fd5b81513d86823e3d90fd5b634e487b7160e01b8b5260418c5260248bfd5b600080fd5b8680fd5b8580fd5b8280fd5b5080fd5b5091346200023957602036600319011262000239576001600160a01b0382816200026662000655565b1680825260016020526200028183878420541615156200075b565b85516315b6b63760e21b815293849182905afa9182156200040557838080818283849085928694879688809b819e62000324575b50508e519e8f9e8f906101a08083528201620002d19162000691565b9b6020820152015260608d015260808c015260a08b015260c08a015260e0890152610100880152610120870152610140860152848103610160860152620003189162000691565b91166101808301520390f35b9d509e9d5050505050505050505050503d8085843e620003458184620006b8565b8201916101a081840312620004015780519267ffffffffffffffff938481116200022d578162000377918401620007a8565b9160208101519486820151926060830151608084015160a085015160c08601519060e08701519261010088015194610120890151966101408a0151986101608b0151908111620003fc5761018091620003d2918c01620007a8565b9901519a8c8c168c03620003f8578e9f509d9c999091929394959697989a9c38620002b5565b8f80fd5b508f80fd5b8480fd5b84513d85823e3d90fd5b509034620004da5780600319360112620004da57908051918290805491828552602080950180938380527f290decd9548b62a8d60345a988386fc84ba6bc95484008f6362f93160ef3e56390845b818110620004bc575050508162000476910382620006b8565b83519485948186019282875251809352850193925b8281106200049b57505050500390f35b83516001600160a01b0316855286955093810193928101926001016200048b565b82546001600160a01b0316845292880192600192830192016200045d565b80fd5b508192602060031936011262000583576001600160a01b036200051b816200050462000655565b16918286526001602052848620541615156200075b565b803b156200057e57839082845180968193631a72772f60e31b83525af18015620005745762000548578380f35b67ffffffffffffffff8311620005615750523880808380f35b634e487b7160e01b845260419052602483fd5b82513d86823e3d90fd5b505050fd5b5050fd5b50346200023957602036600319011262000239576020916001600160a01b0390829082620005b462000655565b168152600185522054169051908152f35b50823462000235576020366003190112620002355735918054831015620004da5750620005f46020926200060a565b905491519160018060a01b039160031b1c168152f35b90600091825481101562000641578280527f290decd9548b62a8d60345a988386fc84ba6bc95484008f6362f93160ef3e563019190565b634e487b7160e01b83526032600452602483fd5b600435906001600160a01b03821682036200022857565b60005b838110620006805750506000910152565b81810151838201526020016200066f565b90602091620006ac815180928185528580860191016200066c565b601f01601f1916010190565b90601f8019910116810190811067ffffffffffffffff821117620006db57604052565b634e487b7160e01b600052604160045260246000fd5b67ffffffffffffffff8111620006db57601f01601f191660200190565b81601f8201121562000228578035906200072882620006f1565b92620007386040519485620006b8565b828452602083830101116200022857816000926020809301838601378301015290565b156200076357565b60405162461bcd60e51b815260206004820152601760248201527f436f6e747261637420646f6573206e6f742065786973740000000000000000006044820152606490fd5b81601f8201121562000228578051620007c181620006f1565b92620007d16040519485620006b8565b818452602082840101116200022857620007f291602080850191016200066c565b9056fe60c060405234620004ce5762001780803803806200001d81620004d3565b928339810161012082820312620004ce576200003982620004f9565b60208381015190936001600160401b03939091848111620004ce5781620000629184016200050e565b9260408301519060608401519360808101519360a082015190888211620004ce57620000909183016200050e565b93620000a561010060c08401519301620004f9565b504260a0526080839052600c80546001600160a01b039094166001600160a01b0319948516179055865195888711620004b8576000968754986001998a81811c91168015620004ad575b8d8210146200049957908c82601f85941162000442575b50508c908d601f8411600114620003da57508a92620003ce575b5050600019600383901b1c191690891b1787555b6004948086558115620003bb5781900460055560075560085580865560025583600655600954680100000000000000009081811015620003a85786810180600955811015620003955760098652888620013383825416179055600a5490811015620003825785810180600a558110156200036f57600a855287852001903390825416179055338352600b8652604083208054908582018092116200035c575581519485116200034957600e54908482811c921680156200033e575b878310146200032b5750601f8111620002df575b508491601f8511600114620002765793945084929190836200026a575b50501b916000199060031b1c191617600e555b6040516111ff908162000581823960805181818161077e015281816108ca0152610dfc015260a05181818161021f015261071b0152f35b01519250388062000220565b600e815285812093958591601f198316915b88838310620002c45750505010620002aa575b505050811b01600e5562000233565b015160001960f88460031b161c191690553880806200029b565b85870151885590960195948501948793509081019062000288565b600e8352858320601f860160051c81019187871062000320575b601f0160051c019084905b8281106200031457505062000203565b84815501849062000304565b9091508190620002f9565b634e487b7160e01b845260229052602483fd5b91607f1691620001ef565b634e487b7160e01b835260419052602482fd5b634e487b7160e01b855260118352602485fd5b634e487b7160e01b855260328352602485fd5b634e487b7160e01b855260418352602485fd5b634e487b7160e01b865260328452602486fd5b634e487b7160e01b865260418452602486fd5b634e487b7160e01b885260128652602488fd5b01519050388062000120565b91908c9450601f1984168c8052838d20938d905b8282106200042857505084116200040e575b505050811b01875562000134565b015160001960f88460031b161c1916905538808062000400565b8484015186558f97909501949384019390810190620003ee565b8b8052818c20929350601f850160051c8301929185106200048e575b84939291601f8e920160051c01915b8281106200047f57508e915062000106565b8c81558594508d91016200046d565b90915081906200045e565b634e487b7160e01b8a52602260045260248afd5b90607f1690620000ef565b634e487b7160e01b600052604160045260246000fd5b600080fd5b6040519190601f01601f191682016001600160401b03811183821017620004b857604052565b51906001600160a01b0382168203620004ce57565b919080601f84011215620004ce5782516001600160401b038111620004b85760209062000544601f8201601f19168301620004d3565b92818452828287010111620004ce5760005b8181106200056c57508260009394955001015290565b85810183015184820184015282016200055656fe6080604081815260049182361015610022575b505050361561002057600080fd5b005b600092833560e01c91826302d05d3f14610de85750816306e4a5d814610c9a578163148c0c7514610aa55781632a289e67146108ad5781632fcc345b1461088f578163335e536c1461087057816339518b5e1461085157816339da3152146108325781633f3b3b2714610813578163446ad549146107d257816348d555eb146107b357816356dad8dc146106ba578163570f88131461068b5781635bec4cb41461066c5781635daf08ca14610615578163a1657681146105f6578163a447ce5b146105bc578163a693600b1461059e578163bab2f5521461057f578163bf85ef32146104a5578163c623674f14610470578163ccbac9f514610451578163d393b97814610242578163d8270dce14610207578163dbdff2c1146101e3578163f8b2cb4f146101af57508063fcf488a9146101875763ff186b2e146101665780610012565b346101835781600319360112610183576020906010549051908152f35b5080fd5b5034610183578160031936011261018357600c5490516001600160a01b039091168152602090f35b9050346101df5760203660031901126101df57356001600160a01b03811681036101df5760209250319051908152f35b8280fd5b5050346101835781600319360112610183576020906102006110d7565b9051908152f35b505034610183578160031936011261018357602090517f00000000000000000000000000000000000000000000000000000000000000008152f35b9050826003193601126101df5760095460075481101561041f5733316005548091106103e557338552600b602052838520546103af5761028390341461108b565b68010000000000000000908181101561039c57600181018060095581101561038957600985527f6e1540171b6c0c960b71a7020d9f60077f6af931a8bbf590da0223dacf75c7af0180546001600160a01b03191633179055600a5490811015610376576102f98160016103179301600a5561103e565b81546001600160a01b0360039290921b91821b19163390911b179055565b338352600b6020528183208054916001830180931161036357505560055490519081527f7f3b9effe05cfb4f31f854004de03199fd03fe56bf38a48b2aa9a9f4402d6e2360203392a280f35b634e487b7160e01b855260119052602484fd5b634e487b7160e01b845260418252602484fd5b634e487b7160e01b855260328352602485fd5b634e487b7160e01b855260418352602485fd5b835162461bcd60e51b8152602081850152601060248201526f20b63932b0b23c90309036b2b6b132b960811b6044820152606490fd5b835162461bcd60e51b81526020818501526014602482015273496e73756666696369656e742062616c616e636560601b6044820152606490fd5b506020606492519162461bcd60e51b8352820152600c60248201526b115c5d58881a5cc8199d5b1b60a21b6044820152fd5b505034610183578160031936011261018357602090600d549051908152f35b5050346101835781600319360112610183576104a19061048e610f4a565b9051918291602083526020830190610ffe565b0390f35b919050346101df57826003193601126101df576011548151633fabe5a360e21b815292939060a0908490869082906001600160a01b03165afa928315610573578193610525575b506402540be4009283810293818505149015171561051257602083838160105551908152f35b634e487b7160e01b815260118452602490fd5b90925060a0813d821161056b575b8161054060a09383610e2b565b810103126101df57610551816111ad565b506105636080602083015192016111ad565b5091386104ec565b3d9150610533565b509051903d90823e3d90fd5b5050346101835781600319360112610183576020906006549051908152f35b9050346101df57826003193601126101df5760209250549051908152f35b9050346101df5760203660031901126101df57356001600160a01b038116908190036101df5782829160209452600b845220549051908152f35b5050346101835781600319360112610183576020906007549051908152f35b9050346101df5760203660031901126101df57356009548110156101df5760096020935260018060a01b03907f6e1540171b6c0c960b71a7020d9f60077f6af931a8bbf590da0223dacf75c7af0154169051908152f35b5050346101835781600319360112610183576020906008549051908152f35b5050346101835781600319360112610183576020905173694aa1769357215de4fac081bf1f309adc3253068152f35b905082346107b057806003193601126107b0575061077c610719926001546002549360035490546005546006546007549160085493600954956106fb610e63565b9a610704610f4a565b988a519d8e9d8e6101a0908181520190610ffe565b7f000000000000000000000000000000000000000000000000000000000000000060208f01529a8d015260608c015260808b015260a08a015260c089015260e0880152610100870152610120860152610140850152838203610160850152610ffe565b7f00000000000000000000000000000000000000000000000000000000000000006001600160a01b03166101808301520390f35b80fd5b5050346101835781600319360112610183576020906005549051908152f35b9050346101df5760203660031901126101df573591600a548310156107b057506107fd60209261103e565b905491519160018060a01b039160031b1c168152f35b5050346101835781600319360112610183576020906003549051908152f35b505034610183578160031936011261018357602090600f549051908152f35b5050346101835781600319360112610183576020906001549051908152f35b5050346101835781600319360112610183576020906002549051908152f35b5050346101835781600319360112610183576104a19061048e610e63565b9050346101df57826003193601126101df576001600160a01b03917f000000000000000000000000000000000000000000000000000000000000000083163303610a5257506003546008548101809111610a3f5761090d9042101561116b565b6109156110d7565b8261091f8261103e565b90549060031b1c166bffffffffffffffffffffffff60a01b600c541617600c5542600355600a54600181116109db575b5050600a549081156109c85760001991820161096a8161103e565b8582549160031b1b19169055600a556006549182146109b55750600101600655600c54167f5b690ec4a06fe979403046eaeea5b3ce38524683c3001f662c8b5a829632f7df8280a280f35b634e487b7160e01b845260119052602483fd5b634e487b7160e01b845260319052602483fd5b6000198101908111610a2c5790610a06846109f8610a259461103e565b90549060031b1c169161103e565b90919082549060031b9160018060a01b03809116831b921b1916179055565b388061094f565b634e487b7160e01b855260118352602485fd5b634e487b7160e01b845260118252602484fd5b906020608492519162461bcd60e51b8352820152602760248201527f4f6e6c79207468652063726561746f722063616e2063616c6c207468697320666044820152663ab731ba34b7b760c91b6064820152fd5b919050346101df57826003193601126101df57600c546001600160a01b0381169290919033849003610c615760015415610c2857610ae760085442101561116b565b479260055460095490818102918183041490151715610c1557808511610c0d575b506001600160a01b031916600c558480808086885af13d15610c08573d67ffffffffffffffff8111610bf557835190610b4b601f8201601f191660200183610e2b565b81528660203d92013e5b15610bbc5750602083927f9206244e7d07ef9a49c1dae86e820d494f0dd268fa04f434eb1de8475a4bb5549251908152a260065460075414610b95575080f35b7fd29e8545d33d16738453f73ba7267664418170c341c7ab7e3eb60e1fa27dd18e8280a280f35b6020606492519162461bcd60e51b835282015260146024820152732330b4b632b2103a379039b2b7321022ba3432b960611b6044820152fd5b634e487b7160e01b875260418352602487fd5b610b55565b935038610b08565b634e487b7160e01b875260118352602487fd5b6020606492519162461bcd60e51b83528201526014602482015273115c5d58881b9bdd081cdd185c9d1959081e595d60621b6044820152fd5b6020606492519162461bcd60e51b835282015260146024820152732737ba103a343290363ab1b5bc903bb4b73732b960611b6044820152fd5b838381600319360112610183573382526020600b81528183205415610db757338352600b815281832054600654809111610d74576007541115610d4157610ce4600554341461108b565b338352600b815281832080549060018201809211610d2e5755600554915191825233917f2042b7712cb5296596d92ab14e92638ac307b3b6300fa48c5ccd37ad6adbbeb19190a280f35b634e487b7160e01b855260118652602485fd5b8390606492519162461bcd60e51b8352820152600e60248201526d115c5d58881a185cc8195b99195960921b6044820152fd5b825162461bcd60e51b8152808601839052601b60248201527f416c7265616479207061696420666f722074686973206379636c6500000000006044820152606490fd5b8390606492519162461bcd60e51b8352820152600c60248201526b2737ba10309036b2b6b132b960a11b6044820152fd5b8490346101835781600319360112610183577f00000000000000000000000000000000000000000000000000000000000000006001600160a01b03168152602090f35b90601f8019910116810190811067ffffffffffffffff821117610e4d57604052565b634e487b7160e01b600052604160045260246000fd5b604051906000805490600182811c90808416938415610f40575b6020948584108114610f2c5783885287949392918115610f0c5750600114610eb0575b5050610eae92500383610e2b565b565b60008080527f290decd9548b62a8d60345a988386fc84ba6bc95484008f6362f93160ef3e56395935091905b818310610ef4575050610eae93508201013880610ea0565b85548884018501529485019487945091830191610edc565b915050610eae94925060ff191682840152151560051b8201013880610ea0565b634e487b7160e01b85526022600452602485fd5b91607f1691610e7d565b604051906000600e5490600182811c90808416938415610ff4575b6020948584108114610f2c5783885287949392918115610f0c5750600114610f95575050610eae92500383610e2b565b90939150600e6000527fbb7b4a454dc3493923482f07822329ed19e8244eff582cc204f8554c3620c3fd936000915b818310610fdc575050610eae93508201013880610ea0565b85548884018501529485019487945091830191610fc4565b91607f1691610f65565b919082519283825260005b84811061102a575050826000602080949584010152601f8019910116010190565b602081830181015184830182015201611009565b600a5481101561107557600a6000527fc65a7bb8d6351c1cf70c95a316cc6a92839c986682d98bc35f958f4883f9d2a80190600090565b634e487b7160e01b600052603260045260246000fd5b1561109257565b60405162461bcd60e51b815260206004820152601d60248201527f496e636f727265637420636f6e747269627574696f6e20616d6f756e740000006044820152606490fd5b6000194301438111611155576006545a6040519160208301934084524260408401523360601b6060840152607483015260948201526094815260c0810181811067ffffffffffffffff821117610e4d5760405251902080600d55600a5490811561113f570690565b634e487b7160e01b600052601260045260246000fd5b634e487b7160e01b600052601160045260246000fd5b1561117257565b60405162461bcd60e51b815260206004820152601360248201527210de58db19481b9bdd08195b991959081e595d606a1b6044820152606490fd5b519069ffffffffffffffffffff821682036111c457565b600080fdfea26469706673582212203bbcb878d45181706c4b72f4716e31a53c43088f2059a7c0925b63c244868fd964736f6c63430008140033a2646970667358221220936e23a0cacc84352d08140feecdc31770909f13c0ed5df228080230a869b99164736f6c63430008140033",
  "devdoc": {
    "kind": "dev",
    "methods": {},
    "version": 1
  },
  "userdoc": {
    "kind": "user",
    "methods": {},
    "version": 1
  },
  "storageLayout": {
    "storage": [
      {
        "astId": 811,
        "contract": "contracts/EthqubFactory.sol:EthqubFactory",
        "label": "ethqubArray",
        "offset": 0,
        "slot": "0",
        "type": "t_array(t_contract(Ethqub)802)dyn_storage"
      },
      {
        "astId": 816,
        "contract": "contracts/EthqubFactory.sol:EthqubFactory",
        "label": "ethqubMapping",
        "offset": 0,
        "slot": "1",
        "type": "t_mapping(t_address,t_contract(Ethqub)802)"
      }
    ],
    "types": {
      "t_address": {
        "encoding": "inplace",
        "label": "address",
        "numberOfBytes": "20"
      },
      "t_array(t_contract(Ethqub)802)dyn_storage": {
        "base": "t_contract(Ethqub)802",
        "encoding": "dynamic_array",
        "label": "contract Ethqub[]",
        "numberOfBytes": "32"
      },
      "t_contract(Ethqub)802": {
        "encoding": "inplace",
        "label": "contract Ethqub",
        "numberOfBytes": "20"
      },
      "t_mapping(t_address,t_contract(Ethqub)802)": {
        "encoding": "mapping",
        "key": "t_address",
        "label": "mapping(address => contract Ethqub)",
        "numberOfBytes": "32",
        "value": "t_contract(Ethqub)802"
      }
    }
  }
}