{
  "address": "0xBA92fa16Bf0416c8bC8325fdA31D2119c2EB3B99",
  "abi": [
    {
      "anonymous": false,
      "inputs": [
        {
          "indexed": true,
          "internalType": "address",
          "name": "contractAddress",
          "type": "address"
        },
        {
          "indexed": true,
          "internalType": "address",
          "name": "creator",
          "type": "address"
        }
      ],
      "name": "EthqubCreated",
      "type": "event"
    },
    {
      "inputs": [
        {
          "internalType": "address",
          "name": "_creator",
          "type": "address"
        },
        {
          "internalType": "string",
          "name": "_equbTitle",
          "type": "string"
        },
        {
          "internalType": "uint256",
          "name": "_poolAmount",
          "type": "uint256"
        },
        {
          "internalType": "uint256",
          "name": "_totalCycles",
          "type": "uint256"
        },
        {
          "internalType": "uint256",
          "name": "_cycleDuration",
          "type": "uint256"
        },
        {
          "internalType": "string",
          "name": "_ipfsHash",
          "type": "string"
        },
        {
          "internalType": "uint256",
          "name": "_startingTime",
          "type": "uint256"
        },
        {
          "internalType": "uint256",
          "name": "_creditScore",
          "type": "uint256"
        },
        {
          "internalType": "address",
          "name": "priceFeedAddress",
          "type": "address"
        }
      ],
      "name": "createEthqub",
      "outputs": [
        {
          "internalType": "address",
          "name": "",
          "type": "address"
        }
      ],
      "stateMutability": "payable",
      "type": "function"
    },
    {
      "inputs": [
        {
          "internalType": "uint256",
          "name": "",
          "type": "uint256"
        }
      ],
      "name": "ethqubArray",
      "outputs": [
        {
          "internalType": "contract Ethqub",
          "name": "",
          "type": "address"
        }
      ],
      "stateMutability": "view",
      "type": "function"
    },
    {
      "inputs": [
        {
          "internalType": "address",
          "name": "",
          "type": "address"
        }
      ],
      "name": "ethqubMapping",
      "outputs": [
        {
          "internalType": "contract Ethqub",
          "name": "",
          "type": "address"
        }
      ],
      "stateMutability": "view",
      "type": "function"
    },
    {
      "inputs": [
        {
          "internalType": "address",
          "name": "contractAddress",
          "type": "address"
        }
      ],
      "name": "getCycle",
      "outputs": [
        {
          "internalType": "uint256",
          "name": "",
          "type": "uint256"
        }
      ],
      "stateMutability": "nonpayable",
      "type": "function"
    },
    {
      "inputs": [],
      "name": "getDeployedContracts",
      "outputs": [
        {
          "internalType": "contract Ethqub[]",
          "name": "",
          "type": "address[]"
        }
      ],
      "stateMutability": "view",
      "type": "function"
    },
    {
      "inputs": [
        {
          "internalType": "address",
          "name": "contractAddress",
          "type": "address"
        }
      ],
      "name": "getEthqubDetails",
      "outputs": [
        {
          "internalType": "string",
          "name": "",
          "type": "string"
        },
        {
          "internalType": "uint256",
          "name": "",
          "type": "uint256"
        },
        {
          "internalType": "uint256",
          "name": "",
          "type": "uint256"
        },
        {
          "internalType": "uint256",
          "name": "",
          "type": "uint256"
        },
        {
          "internalType": "uint256",
          "name": "",
          "type": "uint256"
        },
        {
          "internalType": "uint256",
          "name": "",
          "type": "uint256"
        },
        {
          "internalType": "uint256",
          "name": "",
          "type": "uint256"
        },
        {
          "internalType": "uint256",
          "name": "",
          "type": "uint256"
        },
        {
          "internalType": "uint256",
          "name": "",
          "type": "uint256"
        },
        {
          "internalType": "uint256",
          "name": "",
          "type": "uint256"
        },
        {
          "internalType": "uint256",
          "name": "",
          "type": "uint256"
        },
        {
          "internalType": "string",
          "name": "",
          "type": "string"
        },
        {
          "internalType": "address",
          "name": "",
          "type": "address"
        },
        {
          "internalType": "address[]",
          "name": "",
          "type": "address[]"
        },
        {
          "internalType": "address[]",
          "name": "",
          "type": "address[]"
        },
        {
          "internalType": "address[]",
          "name": "",
          "type": "address[]"
        },
        {
          "internalType": "uint256[]",
          "name": "",
          "type": "uint256[]"
        }
      ],
      "stateMutability": "view",
      "type": "function"
    },
    {
      "inputs": [
        {
          "internalType": "address",
          "name": "contractAddress",
          "type": "address"
        },
        {
          "internalType": "address",
          "name": "_joiner",
          "type": "address"
        }
      ],
      "name": "joinEthqub",
      "outputs": [],
      "stateMutability": "payable",
      "type": "function"
    },
    {
      "inputs": [
        {
          "internalType": "address",
          "name": "contractAddress",
          "type": "address"
        }
      ],
      "name": "withdrawEthqub",
      "outputs": [],
      "stateMutability": "payable",
      "type": "function"
    }
  ],
  "transactionHash": "0xaf7c2a8a37f2411d30c5c971f0498ca564ef529432920a668d39ebd20bdaa0fd",
  "args": [],
  "numDeployments": 34,
  "solcInputHash": "3492b6a734d11ef2c0f2e74ddbd6ac80",
  "bytecode": "0x60808060405234610016576129b6908161001c8239f35b600080fdfe6102606040526004803610156200001557600080fd5b6000806101c052803560e01c806316dc68ee1462000989578063333f5bd114620009465780636626826a14620008be578063a5131b4f1462000810578063aa9a068f1462000738578063af634c19146200068e578063b5b0e80b14620002685763bb762ad1146200008557600080fd5b610120908160031936011262000261576200009f62000a1f565b67ffffffffffffffff6024358181116200026157620000c2903690870162000b31565b60a4358281116200026157620000dc903690880162000b31565b6001600160a01b0394610104358681169391908490036200025e575060405194611cca808701958611878710176200024557926200013b610100938962000162948a99989762000cb78b39169a8b885280602089015287019062000a60565b9060443560408701526064356060870152608435608087015285820360a087015262000a60565b9260c43560c082015260e43560e08201520152039034f0801562000237576101c05193845494680100000000000000008610156200021f57505081620001b3856001602097016101c05155620009d4565b939092169282549060031b9184831b921b1916179055806101c05152600183526101c0519160408320826bffffffffffffffffffffffff60a01b825416179055817ffbb20e1d7e6324290fb1e279ba173c2aed27229abdb8292ba483c04067bbd77d6040519480a38152f35b634e487b7160e01b905260419052506101c051602490fd5b6040513d6101c051823e3d90fd5b60418a634e487b7160e01b6101c051525260246101c051fd5b80fd5b6101c05180fd5b82346200026157602036600319011262000261576001600160a01b036200028e62000a1f565b16806101c051526001602052620002b660018060a01b0360406101c051205416151562000b7e565b60405180926315b6b63760e21b8252816101c051935afa8060a0521562000237576101c051908182610160528260c0528283918485868790889289948a988b988c809c816101205260a0516200043a575b5093620003ec9d9a9793620003a39793620003c69b979362000341620003d99f9c9860405180608052610220809152608051019062000a60565b9860206080510152610160516040608051015260c0516060608051015260808051015260a0608051015260c0608051015260e0608051015261010060805101526101206080510152610140608051015260805161016081840391015262000a60565b9160018060a01b031661018060805101526080516101a081840391015262000a87565b906080516101c081840391015262000a87565b906080516101e081840391015262000a87565b6080516102008183039101526020610120515191828152019060206101205101906101c0515b818110620004235760805180850390f35b825184526020938401939092019160010162000412565b9c509c5050505050505050505050503d8092823e6200045a828262000af1565b6102208183810103126200026157805167ffffffffffffffff811162000261576200048b9083830190830162000bcb565b9160208201519260408301519160608401516101405260808401519160a08501519060c08601519360e08701519761010088015196610120890151956101408a0151936101608b015167ffffffffffffffff81116200026157620004f590838d01908d0162000bcb565b95620005056101808d0162000c18565b926101a08d015167ffffffffffffffff811162000261578d6200052d91838201910162000c46565b610200526101c08d015167ffffffffffffffff811162000261578d6200055891838201910162000c46565b610100526101e08d015167ffffffffffffffff811162000261578d6200058391838201910162000c46565b6101e0526102008d0151806101805267ffffffffffffffff81116200026157818e01818f01601f01121562000261578d015161024052620005dd620005cb6102405162000c2d565b806101a0526040518060e05262000af1565b60e05161022052610240516102205152602060e0510161022052610180518d01908d0160206102405160051b8301011162000261576020015b60208d6102405160051b90610180510101018110156200064e5760208181925161022051528161022051016102205201905062000616565b50610160939093526101405160c05261020051610100516101e05160e05161012052909d909c50929a909994989697959695909492939091908e62000307565b5060403660031901126200026157620006a662000a1f565b6001600160a01b03916024358381169291908390036200025e575082620006e5911692836101c05152600160205260406101c051205416151562000b7e565b813b15620002615760405192636a49cc5760e11b8452830152816024816101c0519334905af1801562000237576200071f575b6101c05180f35b6200072a9062000ac6565b6101c0518015620007185780fd5b3462000261576101c051806003193601126200025e5760405190819054808352602080930180916101c05180527f290decd9548b62a8d60345a988386fc84ba6bc95484008f6362f93160ef3e563906101c0515b86828210620007f2578686620007a58288038362000af1565b60405192839281840190828552518091526040840192916101c0515b828110620007d157505050500390f35b83516001600160a01b031685528695509381019392810192600101620007c1565b83546001600160a01b0316855290930192600192830192016200078c565b82346200026157602090816003193601126200026157816001600160a01b036200085b816200083e62000a1f565b1691826101c051526001845260406101c051205416151562000b7e565b6040516332ade71160e11b815292839182905afa90811562000237576101c051916200088b575b50604051908152f35b90508181813d8311620008b6575b620008a5818362000af1565b810103126200026157518262000882565b503d62000899565b82602036600319011262000261576001600160a01b036200090181620008e362000a1f565b1691826101c05152600160205260406101c051205416151562000b7e565b803b156200026157604051809263148c0c7560e01b8252816101c05180945af18015620002375762000934576101c05180f35b6200093f9062000ac6565b8062000718565b3462000261576020366003190112620002615760206001600160a01b03806200096e62000a1f565b166101c051526001825260406101c051205416604051908152f35b509034620009d0576020366003190112620009d057359080548210156200025e576020620009b783620009d4565b905460405160039290921b1c6001600160a01b03168152f35b5080fd5b90600091825481101562000a0b578280527f290decd9548b62a8d60345a988386fc84ba6bc95484008f6362f93160ef3e563019190565b634e487b7160e01b83526032600452602483fd5b600435906001600160a01b038216820362000a3657565b600080fd5b60005b83811062000a4f5750506000910152565b818101518382015260200162000a3e565b9060209162000a7b8151809281855285808601910162000a3b565b601f01601f1916010190565b90815180825260208080930193019160005b82811062000aa8575050505090565b83516001600160a01b03168552938101939281019260010162000a99565b67ffffffffffffffff811162000adb57604052565b634e487b7160e01b600052604160045260246000fd5b90601f8019910116810190811067ffffffffffffffff82111762000adb57604052565b67ffffffffffffffff811162000adb57601f01601f191660200190565b81601f8201121562000a365780359062000b4b8262000b14565b9262000b5b604051948562000af1565b8284526020838301011162000a3657816000926020809301838601378301015290565b1562000b8657565b60405162461bcd60e51b815260206004820152601760248201527f436f6e747261637420646f6573206e6f742065786973740000000000000000006044820152606490fd5b81601f8201121562000a3657805162000be48162000b14565b9262000bf4604051948562000af1565b8184526020828401011162000a365762000c15916020808501910162000a3b565b90565b51906001600160a01b038216820362000a3657565b67ffffffffffffffff811162000adb5760051b60200190565b81601f8201121562000a365780519162000c608362000c2d565b9262000c70604051948562000af1565b808452602092838086019260051b82010192831162000a36578301905b82821062000c9c575050505090565b83809162000caa8462000c18565b81520191019062000c8d56fe60c060405262001cca803803806200001781620005cf565b92833981019061012081830312620005ca576200003481620005f5565b60208201519091906001600160401b038111620005ca5783620000599183016200060a565b92604082015160608301519060808401519260a08501519060018060401b038211620005ca576200008c9186016200060a565b95620000a161010060c08701519601620005f5565b50620151806000554260a05260808690528051906001600160401b038211620005b45760035490600182811c92168015620005a9575b6020831014620005935781601f8493116200051e575b50602090601f83116001146200048f5760009262000483575b50508160011b916000199060031b1c1916176003555b8060075581156200046d57819004600855600a55600b556004818155600591909155600060095582516001600160401b0381116200045857601254600181811c911680156200044d575b60208210146200043857601f8111620003df575b506020601f82116001146200036657819293946000926200035a575b50508160011b916000199060031b1c1916176012555b600c549168010000000000000000928381101562000345576001810180600c558110156200033057600c6000527fdf6966c971051c3d54ec59162606531493a51404a002842f56009d7e5cf4a8c70180546001600160a01b03929092166001600160a01b03199283168117909155600e54848110156200031b576001810180600e558110156200030657600e6000527fbb7b4a454dc3493923482f07822329ed19e8244eff582cc204f8554c3620c3fd018054909216179055600f5491821015620002f1576001820180600f55821015620002dc57600f60005260017f8d1108e10bcb7c27dddfc02ed9d693a074039d026cf4ea4240b40f7d581ac80283015560405161162d90816200067d8239608051818181610b090152610f8a015260a0518181816103c20152610a840152f35b603290634e487b7160e01b6000525260246000fd5b604190634e487b7160e01b6000525260246000fd5b603284634e487b7160e01b6000525260246000fd5b604184634e487b7160e01b6000525260246000fd5b603283634e487b7160e01b6000525260246000fd5b604183634e487b7160e01b6000525260246000fd5b01519050388062000196565b6012600090815260008051602062001caa8339815191529190601f198416905b818110620003c657509583600195969710620003ac575b505050811b01601255620001ac565b015160001960f88460031b161c191690553880806200039d565b9192602060018192868b01518155019401920162000386565b601260005260008051602062001caa833981519152601f830160051c810191602084106200042d575b601f0160051c01905b8181106200042057506200017a565b6000815560010162000411565b909150819062000408565b602283634e487b7160e01b6000525260246000fd5b90607f169062000166565b604182634e487b7160e01b6000525260246000fd5b634e487b7160e01b600052601260045260246000fd5b01519050388062000106565b6003600090815293507fc2575a0e9e593c00f959f8c92f12db2869c3395a3b0502d05e2516446f71f85b91905b601f198416851062000502576001945083601f19811610620004e8575b505050811b016003556200011c565b015160001960f88460031b161c19169055388080620004d9565b81810151835560209485019460019093019290910190620004bc565b60036000529091507fc2575a0e9e593c00f959f8c92f12db2869c3395a3b0502d05e2516446f71f85b601f840160051c8101916020851062000588575b90601f859493920160051c01905b818110620005785750620000ed565b6000815584935060010162000569565b90915081906200055b565b634e487b7160e01b600052602260045260246000fd5b91607f1691620000d7565b634e487b7160e01b600052604160045260246000fd5b600080fd5b6040519190601f01601f191682016001600160401b03811183821017620005b457604052565b51906001600160a01b0382168203620005ca57565b919080601f84011215620005ca5782516001600160401b038111620005b45760209062000640601f8201601f19168301620005cf565b92818452828287010111620005ca5760005b8181106200066857508260009394955001015290565b85810183015184820184015282016200065256fe61014080604052600480361015610020575b5050361561001e57600080fd5b005b60003560e01c91826302d05d3f14610f7757508163148c0c7514610d735781632a289e6714610d465781632fcc345b14610d2a578163335e536c14610d0c57816339518b5e14610cef57816339da315214610cd15781633f3b3b2714610cb3578163446ad54914610c8c57816348d555eb14610c6e5781634a76d31214610c3957816356dad8dc146108ba578163570f88131461088b5781635bec4cb41461086d5781635daf08ca1461082d578163655bce22146107f4578163a1657681146107d6578163a230c5241461079f578163a693600b14610781578163bab2f55214610763578163bf85ef321461069c578163c252259814610643578163c5a0a74d14610616578163c623674f146105e2578163ccbac9f5146105c4578163d49398ae146103e5578163d8270dce146103aa578163dbdff2c114610387578163eb33309614610209578163f8b2cb4f146101db57508063fcf488a9146101b25763ff186b2e1461018f573880610011565b346101ad5760003660031901126101ad576020600154604051908152f35b600080fd5b346101ad5760003660031901126101ad576010546040516001600160a01b039091168152602090f35b346101ad5760203660031901126101ad57356001600160a01b03811681036101ad5760209031604051908152f35b60203660031901126101ad5780356001600160a01b03811691908281036101ad57610233816112ed565b600a54809110156103545761024f61024a836112ed565b61121d565b90546009549160031b1c81106103105710156102db5761024a610271916112ed565b819291549060031b9181831c90600182018092116102c65750821b91600019901b19161790557f2042b7712cb5296596d92ab14e92638ac307b3b6300fa48c5ccd37ad6adbbeb16020600854604051908152a2005b601190634e487b7160e01b6000525260246000fd5b60405162461bcd60e51b8152602081840152600e60248201526d115c5d58881a185cc8195b99195960921b6044820152606490fd5b60405162461bcd60e51b8152602081860152601b60248201527f416c7265616479207061696420666f722074686973206379636c6500000000006044820152606490fd5b60405162461bcd60e51b8152602081850152600c60248201526b2737ba10309036b2b6b132b960a11b6044820152606490fd5b346101ad5760003660031901126101ad5760206103a26113a5565b604051908152f35b346101ad5760003660031901126101ad5760206040517f00000000000000000000000000000000000000000000000000000000000000008152f35b60203660031901126101ad5780356001600160a01b038116918282036101ad57600c5491600a548310156105915780316008541161055657678ac7230489e8000061042f826112ed565b0361051f57600160401b928381101561050a57816104568260016104759401600c55611254565b90919082549060031b9160018060a01b03809116831b921b1916179055565b600e548381101561050a57906104568260016104949401600e556111d0565b600f54918210156104f557508060016104b09201600f5561121d565b81549060031b906001821b91600019901b19161790557f7f3b9effe05cfb4f31f854004de03199fd03fe56bf38a48b2aa9a9f4402d6e236020600854604051908152a2005b604190634e487b7160e01b6000525260246000fd5b604183634e487b7160e01b6000525260246000fd5b60405162461bcd60e51b8152602081840152601060248201526f20b63932b0b23c90309036b2b6b132b960811b6044820152606490fd5b60405162461bcd60e51b81526020818401526014602482015273496e73756666696369656e742062616c616e636560601b6044820152606490fd5b60405162461bcd60e51b8152602081840152600c60248201526b115c5d58881a5cc8199d5b1b60a21b6044820152606490fd5b346101ad5760003660031901126101ad576020601154604051908152f35b346101ad5760003660031901126101ad576106126105fe6110dc565b604051918291602083526020830190611190565b0390f35b346101ad5760203660031901126101ad57356001600160a01b03811681036101ad576103a26020916112ed565b346101ad5760203660031901126101ad5735600d548110156101ad57600d6000527fd7b6990105719101dabeb77144f2a3385c8033acd3af97e9423a695e81ad1eb501546040516001600160a01b039091168152602090f35b346101ad5760003660031901126101ad57600254604051633fabe5a360e21b8152919060a0908390839082906001600160a01b03165afa91821561075757600092610709575b506402540be400918281029281840514901517156102c65760208280600155604051908152f35b90915060a0813d821161074f575b8161072460a09383610fb9565b810103126101ad57610735816115e0565b506107476080602083015192016115e0565b5090826106e2565b3d9150610717565b6040513d6000823e3d90fd5b346101ad5760003660031901126101ad576020600954604051908152f35b346101ad5760003660031901126101ad576020600754604051908152f35b346101ad5760203660031901126101ad57356001600160a01b03811681036101ad576107cc60209161158f565b6040519015158152f35b346101ad5760003660031901126101ad576020600a54604051908152f35b346101ad5760003660031901126101ad57602090546103a26108256009549261081f600b5485611350565b90611343565b421015611363565b346101ad5760203660031901126101ad5735600c548110156101ad57610854602091611254565b905460405160039290921b1c6001600160a01b03168152f35b346101ad5760003660031901126101ad576020600b54604051908152f35b346101ad5760003660031901126101ad57602060405173694aa1769357215de4fac081bf1f309adc3253068152f35b346101ad5760003660031901126101ad57546005549060065460c0526007546008549160095492600a54600b54600c54916108f3610ff1565b966108fc6110dc565b946040519788896020600e549283815201600e6000527fbb7b4a454dc3493923482f07822329ed19e8244eff582cc204f8554c3620c3fd9260005b818110610c1757505061094c9250038a610fb9565b6040519a60208c88815201600c6000528c7fdf6966c971051c3d54ec59162606531493a51404a002842f56009d7e5cf4a8c79160005b8a8110610bf657506109969250038d610fb9565b6040519a8b8c6020600d549283815201600d6000527fd7b6990105719101dabeb77144f2a3385c8033acd3af97e9423a695e81ad1eb59260005b818110610bd15750506109e59250038d610fb9565b604051806080528061010052600f548091526020608051018060805260e052600f6000527f8d1108e10bcb7c27dddfc02ed9d693a074039d026cf4ea4240b40f7d581ac8026000610120525b816101205110610bac57505093610b549a9793610aff9793610b669e9b9793610a81610b429c98610a6a61010051806080510390610fb9565b6040518060a05261022080915260a0510190611190565b987f0000000000000000000000000000000000000000000000000000000000000000602060a0510152604060a0510152606060a051015260c051608060a051015260a08051015260c060a051015260e060a051015261010060a051015261012060a051015261014060a051015260a051610160818403910152611190565b9060018060a01b037f00000000000000000000000000000000000000000000000000000000000000001661018060a051015260a0516101a081840391015261128b565b9060a0516101c081840391015261128b565b9060a0516101e081840391015261128b565b60a0516102008183039101526020610100515191828152019060e0519060005b818110610b965760a05180850390f35b8251845260209384019390920191600101610b86565b8060019154608051526020608051016080520190600161012051016101205290610a31565b91600191935060208291828060a01b0387541681520194019101918f929391936109d0565b9150600160208192828060a01b0386541681520193019101918e9192610982565b84546001600160a01b031683526001948501948e945060209093019201610937565b346101ad5760203660031901126101ad5735600f548110156101ad57610c6060209161121d565b90546040519160031b1c8152f35b346101ad5760003660031901126101ad576020600854604051908152f35b346101ad5760203660031901126101ad5735600e548110156101ad576108546020916111d0565b346101ad5760003660031901126101ad576020600654604051908152f35b346101ad5760003660031901126101ad576020601354604051908152f35b346101ad5760003660031901126101ad5760209054604051908152f35b346101ad5760003660031901126101ad576020600554604051908152f35b346101ad5760003660031901126101ad576106126105fe610ff1565b346101ad5760003660031901126101ad576020610d6161146b565b6040516001600160a01b039091168152f35b346101ad5760003660031901126101ad57610da7610825825461081f610d9e600954600b5490611350565b60005490611350565b4790610db8600854600c5490611350565b808311610f6f575b50610dc961146b565b91600d54600160401b81101561050a576001810180600d55811015610f5a57600d6000527fd7b6990105719101dabeb77144f2a3385c8033acd3af97e9423a695e81ad1eb5019260018060a01b0316926bffffffffffffffffffffffff60a01b9084828254161790556010541660105560008080808487617530f13d15610f55573d67ffffffffffffffff8111610f405760405190610e72601f8201601f191660200183610fb9565b8152600060203d92013e5b15610f05577f9206244e7d07ef9a49c1dae86e820d494f0dd268fa04f434eb1de8475a4bb55460208492604051908152a2610ed1610ebc6009546112c8565b91826009555461081f610d9e600b5485611350565b600555600a5414610ede57005b7fd29e8545d33d16738453f73ba7267664418170c341c7ab7e3eb60e1fa27dd18e600080a2005b60405162461bcd60e51b815260208184015260146024820152732330b4b632b2103a379039b2b7321022ba3432b960611b6044820152606490fd5b604184634e487b7160e01b6000525260246000fd5b610e7d565b603283634e487b7160e01b6000525260246000fd5b915082610dc0565b346101ad5760003660031901126101ad577f00000000000000000000000000000000000000000000000000000000000000006001600160a01b03168152602090f35b90601f8019910116810190811067ffffffffffffffff821117610fdb57604052565b634e487b7160e01b600052604160045260246000fd5b60405190600060035490600182811c908084169384156110d2575b60209485841081146110be578388528794939291811561109e575060011461103f575b505061103d92500383610fb9565b565b9093915060036000527fc2575a0e9e593c00f959f8c92f12db2869c3395a3b0502d05e2516446f71f85b936000915b81831061108657505061103d9350820101388061102f565b8554888401850152948501948794509183019161106e565b91505061103d94925060ff191682840152151560051b820101388061102f565b634e487b7160e01b85526022600452602485fd5b91607f169161100c565b60405190600060125490600182811c90808416938415611186575b60209485841081146110be578388528794939291811561109e575060011461112757505061103d92500383610fb9565b9093915060126000527fbb8a6a4669ba250d26cd7a459eca9d215f8307e33aebe50379bc5a3617ec3444936000915b81831061116e57505061103d9350820101388061102f565b85548884018501529485019487945091830191611156565b91607f16916110f7565b919082519283825260005b8481106111bc575050826000602080949584010152601f8019910116010190565b60208183018101518483018201520161119b565b600e5481101561120757600e6000527fbb7b4a454dc3493923482f07822329ed19e8244eff582cc204f8554c3620c3fd0190600090565b634e487b7160e01b600052603260045260246000fd5b600f5481101561120757600f6000527f8d1108e10bcb7c27dddfc02ed9d693a074039d026cf4ea4240b40f7d581ac8020190600090565b600c5481101561120757600c6000527fdf6966c971051c3d54ec59162606531493a51404a002842f56009d7e5cf4a8c70190600090565b90815180825260208080930193019160005b8281106112ab575050505090565b83516001600160a01b03168552938101939281019260010161129d565b60001981146112d75760010190565b634e487b7160e01b600052601160045260246000fd5b600c549060005b82811061130a57505050678ac7230489e8000090565b61131381611254565b905460039190911b1c6001600160a01b039081169083161461133d57611338906112c8565b6112f4565b91505090565b919082018092116112d757565b818102929181159184041417156112d757565b1561136a57565b60405162461bcd60e51b815260206004820152601360248201527210de58db19481b9bdd08195b991959081e595d606a1b6044820152606490fd5b6004546009546113cc6108256113bd600b5484611350565b9361081f600095865490611350565b600019430190438211611457575a6040519160208301934084524260408401523360601b6060840152607483015260948201526094815260c0810181811067ffffffffffffffff82111761144357604052519020600e5491821561142f57500690565b634e487b7160e01b81526012600452602490fd5b634e487b7160e01b84526041600452602484fd5b634e487b7160e01b83526011600452602483fd5b600454611492610825611483600954600b5490611350565b9261081f600094855490611350565b61149a6113a5565b6114a3816111d0565b919060018060a01b03928391549060031b1c166bffffffffffffffffffffffff60a01b601054161760105542600655600e5460018111611549575b5050600e548015611535577f5b690ec4a06fe979403046eaeea5b3ce38524683c3001f662c8b5a829632f7df9291906000190161151a816111d0565b8382549160031b1b19169055600e556010541691818392a290565b634e487b7160e01b83526031600452602483fd5b600019810190811161157b579061045683611566611574946111d0565b90549060031b1c16916111d0565b38806114de565b634e487b7160e01b84526011600452602484fd5b600c549060005b8281106115a557505050600090565b6115ae81611254565b905460039190911b1c6001600160a01b03908116908316146115d8576115d3906112c8565b611596565b505050600190565b519069ffffffffffffffffffff821682036101ad5756fea2646970667358221220a682fff20ad549b36464e8faf40e41140023b5e57cf3f1d3c19bd13ccc5d458564736f6c63430008140033bb8a6a4669ba250d26cd7a459eca9d215f8307e33aebe50379bc5a3617ec3444a264697066735822122034ed56044a78c8bbe208a06c3feddc8ae0be9bc12b28a91a656587422731c99e64736f6c63430008140033",
  "devdoc": {
    "kind": "dev",
    "methods": {},
    "version": 1
  },
  "userdoc": {
    "kind": "user",
    "methods": {},
    "version": 1
  },
  "storageLayout": {
    "storage": [
      {
        "astId": 750,
        "contract": "contracts/EthqubFactory.sol:EthqubFactory",
        "label": "ethqubArray",
        "offset": 0,
        "slot": "0",
        "type": "t_array(t_contract(Ethqub)742)dyn_storage"
      },
      {
        "astId": 755,
        "contract": "contracts/EthqubFactory.sol:EthqubFactory",
        "label": "ethqubMapping",
        "offset": 0,
        "slot": "1",
        "type": "t_mapping(t_address,t_contract(Ethqub)742)"
      }
    ],
    "types": {
      "t_address": {
        "encoding": "inplace",
        "label": "address",
        "numberOfBytes": "20"
      },
      "t_array(t_contract(Ethqub)742)dyn_storage": {
        "base": "t_contract(Ethqub)742",
        "encoding": "dynamic_array",
        "label": "contract Ethqub[]",
        "numberOfBytes": "32"
      },
      "t_contract(Ethqub)742": {
        "encoding": "inplace",
        "label": "contract Ethqub",
        "numberOfBytes": "20"
      },
      "t_mapping(t_address,t_contract(Ethqub)742)": {
        "encoding": "mapping",
        "key": "t_address",
        "label": "mapping(address => contract Ethqub)",
        "numberOfBytes": "32",
        "value": "t_contract(Ethqub)742"
      }
    }
  }
}