{
  "address": "0x15b315c6228e9251E0A1F51415d0E84B39b44ed8",
  "abi": [
    {
      "anonymous": false,
      "inputs": [
        {
          "indexed": true,
          "internalType": "address",
          "name": "contractAddress",
          "type": "address"
        },
        {
          "indexed": true,
          "internalType": "address",
          "name": "creator",
          "type": "address"
        }
      ],
      "name": "EthqubCreated",
      "type": "event"
    },
    {
      "inputs": [
        {
          "internalType": "address",
          "name": "_creator",
          "type": "address"
        },
        {
          "internalType": "string",
          "name": "_equbTitle",
          "type": "string"
        },
        {
          "internalType": "uint256",
          "name": "_poolAmount",
          "type": "uint256"
        },
        {
          "internalType": "uint256",
          "name": "_totalCycles",
          "type": "uint256"
        },
        {
          "internalType": "uint256",
          "name": "_cycleDuration",
          "type": "uint256"
        },
        {
          "internalType": "string",
          "name": "_ipfsHash",
          "type": "string"
        },
        {
          "internalType": "address",
          "name": "priceFeedAddress",
          "type": "address"
        }
      ],
      "name": "createEthqub",
      "outputs": [
        {
          "internalType": "address",
          "name": "",
          "type": "address"
        }
      ],
      "stateMutability": "nonpayable",
      "type": "function"
    },
    {
      "inputs": [
        {
          "internalType": "uint256",
          "name": "",
          "type": "uint256"
        }
      ],
      "name": "ethqubArray",
      "outputs": [
        {
          "internalType": "contract Ethqub",
          "name": "",
          "type": "address"
        }
      ],
      "stateMutability": "view",
      "type": "function"
    },
    {
      "inputs": [
        {
          "internalType": "address",
          "name": "",
          "type": "address"
        }
      ],
      "name": "ethqubMapping",
      "outputs": [
        {
          "internalType": "contract Ethqub",
          "name": "",
          "type": "address"
        }
      ],
      "stateMutability": "view",
      "type": "function"
    },
    {
      "inputs": [],
      "name": "getDeployedContracts",
      "outputs": [
        {
          "internalType": "contract Ethqub[]",
          "name": "",
          "type": "address[]"
        }
      ],
      "stateMutability": "view",
      "type": "function"
    },
    {
      "inputs": [
        {
          "internalType": "address",
          "name": "contractAddress",
          "type": "address"
        }
      ],
      "name": "getEthqubDetails",
      "outputs": [
        {
          "internalType": "string",
          "name": "",
          "type": "string"
        },
        {
          "internalType": "uint256",
          "name": "",
          "type": "uint256"
        },
        {
          "internalType": "uint256",
          "name": "",
          "type": "uint256"
        },
        {
          "internalType": "uint256",
          "name": "",
          "type": "uint256"
        },
        {
          "internalType": "uint256",
          "name": "",
          "type": "uint256"
        },
        {
          "internalType": "uint256",
          "name": "",
          "type": "uint256"
        },
        {
          "internalType": "uint256",
          "name": "",
          "type": "uint256"
        },
        {
          "internalType": "uint256",
          "name": "",
          "type": "uint256"
        },
        {
          "internalType": "uint256",
          "name": "",
          "type": "uint256"
        },
        {
          "internalType": "uint256",
          "name": "",
          "type": "uint256"
        },
        {
          "internalType": "uint256",
          "name": "",
          "type": "uint256"
        },
        {
          "internalType": "string",
          "name": "",
          "type": "string"
        }
      ],
      "stateMutability": "view",
      "type": "function"
    }
  ],
  "transactionHash": "0x3ea1bed0bc78ff75332c2884cded57cdb5c5137b96bee151f140eceab4ec565f",
  "args": [],
  "numDeployments": 1,
  "solcInputHash": "674f5caa9509dc160c18cddf6ba685c2",
  "bytecode": "0x6080806040523461001657611e61908161001c8239f35b600080fdfe6040608081526004803610156200001557600080fd5b600060e0918135831c806316dc68ee1462000511578063333f5bd114620004d25780634de12c671462000315578063aa9a068f146200024a5763b5b0e80b146200005e57600080fd5b34620001f8576020366003190112620001f8576001600160a01b038062000084620005a2565b16908184526001602052858420541615620002075782908551928380926315b6b63760e21b82525afa918215620001fc578091819482908390848586918794889689988a809d62000136575b50508d519d8e9d8e9c8d6101809081815201620000ed9162000686565b9c602001528d015260608c015260808b015260a08a015260c0890152870152610100860152610120850152610140840152828103610160840152620001329162000686565b0390f35b9b509b5050505050509650505050503d8082843e620001568184620005be565b82019161018081840312620001f85780519167ffffffffffffffff92838111620001f8578462000188918401620006ad565b916020810151938782015196606083015196608084015160a085015160c086015191848701519361010088015196610120890151986101408101519a610160820151928311620001f55750620001e0929101620006ad565b98999b9a90919293959697989a3880620000d0565b80fd5b5080fd5b8451903d90823e3d90fd5b845162461bcd60e51b8152602081840152601760248201527f436f6e747261637420646f6573206e6f742065786973740000000000000000006044820152606490fd5b848334620001f55780600319360112620001f557908051918290805491828552602080950180938380527f290decd9548b62a8d60345a988386fc84ba6bc95484008f6362f93160ef3e56390845b818110620002f75750505081620002b1910382620005be565b83519485948186019282875251809352850193925b828110620002d657505050500390f35b83516001600160a01b031685528695509381019392810192600101620002c6565b82546001600160a01b03168452928801926001928301920162000298565b5092909134620004ce5780600319360112620004ce5762000335620005a2565b67ffffffffffffffff9290602435848111620004ca576200035a903690880162000614565b9360a435818111620004c65762000375903690890162000614565b6001600160a01b039560c435878116929190839003620004c25785519461173180870195861187871017620004af5792620003d060c0938b620003f6948a999897620006fb8b39169a8b885280602089015287019062000686565b90604435898701526064356060870152608435608087015285820360a087015262000686565b920152039085f08015620004a557845468010000000000000000811015620004925760209650917ffbb20e1d7e6324290fb1e279ba173c2aed27229abdb8292ba483c04067bbd77d9162000451846001889601895562000557565b9490911695869482549060031b9186831b921b191617905582865260018752808620836bffffffffffffffffffffffff60a01b825416179055519480a38152f35b634e487b7160e01b865260418752602486fd5b81513d86823e3d90fd5b634e487b7160e01b8b5260418c5260248bfd5b8880fd5b8680fd5b8580fd5b8280fd5b828534620001f8576020366003190112620001f8576020916001600160a01b039082908262000500620005a2565b168152600185522054169051908152f35b50839034620004ce576020366003190112620004ce5735918054831015620001f557506200054160209262000557565b905491519160018060a01b039160031b1c168152f35b9060009182548110156200058e578280527f290decd9548b62a8d60345a988386fc84ba6bc95484008f6362f93160ef3e563019190565b634e487b7160e01b83526032600452602483fd5b600435906001600160a01b0382168203620005b957565b600080fd5b90601f8019910116810190811067ffffffffffffffff821117620005e157604052565b634e487b7160e01b600052604160045260246000fd5b67ffffffffffffffff8111620005e157601f01601f191660200190565b81601f82011215620005b9578035906200062e82620005f7565b926200063e6040519485620005be565b82845260208383010111620005b957816000926020809301838601378301015290565b60005b838110620006755750506000910152565b818101518382015260200162000664565b90602091620006a18151809281855285808601910162000661565b601f01601f1916010190565b81601f82011215620005b9578051620006c681620005f7565b92620006d66040519485620005be565b81845260208284010111620005b957620006f7916020808501910162000661565b9056fe60c060405234620004b25762001731803803806200001d81620004b7565b92833981019060e081830312620004b2576200003981620004f3565b60208281015190936001600160401b03939091848111620004b257826200006291830162000508565b91604082015160608301519460808401519260a085015190888211620004b2576200009660c0916200009e93880162000508565b9501620004f3565b504260a052600092600196848855846002558260805260018060a01b03199260018060a01b031683600c541617600c5586518981116200049e578554978989811c9916801562000493575b8c8a10146200047f5781908c601f9a8b811162000429575b50508c908d8b8411600114620003c157508892620003b5575b5050600019600383901b1c191690891b1785555b6004938085558115620003a257819004600555600755600855826006556009546801000000000000000090818110156200038f57878101806009558110156200037c5760098552898520013383825416179055600a5490811015620003695786810180600a558110156200035657600a845288842001903390825416179055338252600b87526040822080549086820180921162000343575582519586116200033057600e54908582811c9216801562000325575b88831014620003125750838111620002c9575b50859285116001146200026057939450849291908362000254575b50501b916000199060031b1c191617600e555b6040516111b690816200057b82396080518181816108810152610db3015260a05181818161021401526107250152f35b01519250388062000211565b600e815285812093958591601f198316915b88838310620002ae575050501062000294575b505050811b01600e5562000224565b015160001960f88460031b161c1916905538808062000285565b85870151885590960195948501948793509081019062000272565b600e82528682208480880160051c82019289891062000308575b0160051c019085905b828110620002fc575050620001f6565b838155018590620002ec565b92508192620002e3565b634e487b7160e01b835260229052602482fd5b91607f1691620001e3565b634e487b7160e01b825260419052602490fd5b634e487b7160e01b845260118352602484fd5b634e487b7160e01b845260328352602484fd5b634e487b7160e01b845260418352602484fd5b634e487b7160e01b855260328452602485fd5b634e487b7160e01b855260418452602485fd5b634e487b7160e01b865260128552602486fd5b0151905038806200011a565b91908c9450601f1984168a8052838b20938b905b8282106200040f5750508411620003f5575b505050811b0185556200012e565b015160001960f88460031b161c19169055388080620003e7565b8484015186558f97909501949384019390810190620003d5565b909192508880528a828a209181860160051c830193861062000475575b918d91869594930160051c01915b8281106200046657508e915062000101565b8a81558594508d910162000454565b9250819262000446565b634e487b7160e01b87526022600452602487fd5b98607f1698620000e9565b634e487b7160e01b86526041600452602486fd5b600080fd5b6040519190601f01601f191682016001600160401b03811183821017620004dd57604052565b634e487b7160e01b600052604160045260246000fd5b51906001600160a01b0382168203620004b257565b919080601f84011215620004b25782516001600160401b038111620004dd576020906200053e601f8201601f19168301620004b7565b92818452828287010111620004b25760005b8181106200056657508260009394955001015290565b85810183015184820184015282016200055056fe6080604081815260049182361015610022575b505050361561002057600080fd5b005b600092833560e01c91826302d05d3f14610d9f5750816306e4a5d814610c51578163148c0c7514610a5c5781632a289e67146108645781632fcc345b14610846578163335e536c1461082757816339518b5e146108085781633f3b3b27146107e9578163446ad549146107a857816348d555eb1461078957816356dad8dc146106c4578163570f8813146106955781635bec4cb4146106765781635daf08ca1461061f578163a165768114610600578163a447ce5b146105c6578163a693600b146105a8578163bab2f55214610589578163bf85ef32146104af578163c623674f1461047a578163ccbac9f51461045b578163d393b97814610237578163d8270dce146101fc578163dbdff2c1146101d8578163f8b2cb4f146101a457508063fcf488a91461017c5763ff186b2e1461015b5780610012565b34610178578160031936011261017857602090600f549051908152f35b5080fd5b5034610178578160031936011261017857600c5490516001600160a01b039091168152602090f35b9050346101d45760203660031901126101d457356001600160a01b03811681036101d45760209250319051908152f35b8280fd5b5050346101785781600319360112610178576020906101f561108e565b9051908152f35b505034610178578160031936011261017857602090517f00000000000000000000000000000000000000000000000000000000000000008152f35b9050826003193601126101d4576009546007548110156104295733316005548091106103ef57338552600b602052838520546103b957610278903414611042565b6801000000000000000090818110156103a657600181018060095581101561039357600985527f6e1540171b6c0c960b71a7020d9f60077f6af931a8bbf590da0223dacf75c7af0180546001600160a01b03191633179055600a5490811015610380576102ee81600161030c9301600a55610ff5565b81546001600160a01b0360039290921b91821b19163390911b179055565b338352600b6020528183208054916001830180931161036d57505560095460075414610364575b60055490519081527f7f3b9effe05cfb4f31f854004de03199fd03fe56bf38a48b2aa9a9f4402d6e2360203392a280f35b42600155610333565b634e487b7160e01b855260119052602484fd5b634e487b7160e01b845260418252602484fd5b634e487b7160e01b855260328352602485fd5b634e487b7160e01b855260418352602485fd5b835162461bcd60e51b8152602081850152601060248201526f20b63932b0b23c90309036b2b6b132b960811b6044820152606490fd5b835162461bcd60e51b81526020818501526014602482015273496e73756666696369656e742062616c616e636560601b6044820152606490fd5b506020606492519162461bcd60e51b8352820152600c60248201526b115c5d58881a5cc8199d5b1b60a21b6044820152fd5b505034610178578160031936011261017857602090600d549051908152f35b5050346101785781600319360112610178576104ab90610498610f01565b9051918291602083526020830190610fb5565b0390f35b919050346101d457826003193601126101d4576010548151633fabe5a360e21b815292939060a0908490869082906001600160a01b03165afa92831561057d57819361052f575b506402540be4009283810293818505149015171561051c576020838381600f5551908152f35b634e487b7160e01b815260118452602490fd5b90925060a0813d8211610575575b8161054a60a09383610de2565b810103126101d45761055b81611164565b5061056d608060208301519201611164565b5091386104f6565b3d915061053d565b509051903d90823e3d90fd5b5050346101785781600319360112610178576020906006549051908152f35b9050346101d457826003193601126101d45760209250549051908152f35b9050346101d45760203660031901126101d457356001600160a01b038116908190036101d45782829160209452600b845220549051908152f35b5050346101785781600319360112610178576020906007549051908152f35b9050346101d45760203660031901126101d457356009548110156101d45760096020935260018060a01b03907f6e1540171b6c0c960b71a7020d9f60077f6af931a8bbf590da0223dacf75c7af0154169051908152f35b5050346101785781600319360112610178576020906008549051908152f35b5050346101785781600319360112610178576020905173694aa1769357215de4fac081bf1f309adc3253068152f35b90508234610786578060031936011261078657506104ab61072392600154600254936003549054600554600654600754916008549360095495610705610e1a565b9a61070e610f01565b988a519d8e9d8e610180908181520190610fb5565b7f000000000000000000000000000000000000000000000000000000000000000060208f01529a8d015260608c015260808b015260a08a015260c089015260e0880152610100870152610120860152610140850152838203610160850152610fb5565b80fd5b5050346101785781600319360112610178576020906005549051908152f35b9050346101d45760203660031901126101d4573591600a5483101561078657506107d3602092610ff5565b905491519160018060a01b039160031b1c168152f35b5050346101785781600319360112610178576020906003549051908152f35b5050346101785781600319360112610178576020906001549051908152f35b5050346101785781600319360112610178576020906002549051908152f35b5050346101785781600319360112610178576104ab90610498610e1a565b9050346101d457826003193601126101d4576001600160a01b03917f000000000000000000000000000000000000000000000000000000000000000083163303610a09575060035460085481018091116109f6576108c490421015611122565b6108cc61108e565b826108d682610ff5565b90549060031b1c166bffffffffffffffffffffffff60a01b600c541617600c5542600355600a5460018111610992575b5050600a5490811561097f5760001991820161092181610ff5565b8582549160031b1b19169055600a5560065491821461096c5750600101600655600c54167f5b690ec4a06fe979403046eaeea5b3ce38524683c3001f662c8b5a829632f7df8280a280f35b634e487b7160e01b845260119052602483fd5b634e487b7160e01b845260319052602483fd5b60001981019081116109e357906109bd846109af6109dc94610ff5565b90549060031b1c1691610ff5565b90919082549060031b9160018060a01b03809116831b921b1916179055565b3880610906565b634e487b7160e01b855260118352602485fd5b634e487b7160e01b845260118252602484fd5b906020608492519162461bcd60e51b8352820152602760248201527f4f6e6c79207468652063726561746f722063616e2063616c6c207468697320666044820152663ab731ba34b7b760c91b6064820152fd5b919050346101d457826003193601126101d457600c546001600160a01b0381169290919033849003610c185760015415610bdf57610a9e600854421015611122565b479260055460095490818102918183041490151715610bcc57808511610bc4575b506001600160a01b031916600c558480808086885af13d15610bbf573d67ffffffffffffffff8111610bac57835190610b02601f8201601f191660200183610de2565b81528660203d92013e5b15610b735750602083927f9206244e7d07ef9a49c1dae86e820d494f0dd268fa04f434eb1de8475a4bb5549251908152a260065460075414610b4c575080f35b7fd29e8545d33d16738453f73ba7267664418170c341c7ab7e3eb60e1fa27dd18e8280a280f35b6020606492519162461bcd60e51b835282015260146024820152732330b4b632b2103a379039b2b7321022ba3432b960611b6044820152fd5b634e487b7160e01b875260418352602487fd5b610b0c565b935038610abf565b634e487b7160e01b875260118352602487fd5b6020606492519162461bcd60e51b83528201526014602482015273115c5d58881b9bdd081cdd185c9d1959081e595d60621b6044820152fd5b6020606492519162461bcd60e51b835282015260146024820152732737ba103a343290363ab1b5bc903bb4b73732b960611b6044820152fd5b838381600319360112610178573382526020600b81528183205415610d6e57338352600b815281832054600654809111610d2b576007541115610cf857610c9b6005543414611042565b338352600b815281832080549060018201809211610ce55755600554915191825233917f2042b7712cb5296596d92ab14e92638ac307b3b6300fa48c5ccd37ad6adbbeb19190a280f35b634e487b7160e01b855260118652602485fd5b8390606492519162461bcd60e51b8352820152600e60248201526d115c5d58881a185cc8195b99195960921b6044820152fd5b825162461bcd60e51b8152808601839052601b60248201527f416c7265616479207061696420666f722074686973206379636c6500000000006044820152606490fd5b8390606492519162461bcd60e51b8352820152600c60248201526b2737ba10309036b2b6b132b960a11b6044820152fd5b8490346101785781600319360112610178577f00000000000000000000000000000000000000000000000000000000000000006001600160a01b03168152602090f35b90601f8019910116810190811067ffffffffffffffff821117610e0457604052565b634e487b7160e01b600052604160045260246000fd5b604051906000805490600182811c90808416938415610ef7575b6020948584108114610ee35783885287949392918115610ec35750600114610e67575b5050610e6592500383610de2565b565b60008080527f290decd9548b62a8d60345a988386fc84ba6bc95484008f6362f93160ef3e56395935091905b818310610eab575050610e6593508201013880610e57565b85548884018501529485019487945091830191610e93565b915050610e6594925060ff191682840152151560051b8201013880610e57565b634e487b7160e01b85526022600452602485fd5b91607f1691610e34565b604051906000600e5490600182811c90808416938415610fab575b6020948584108114610ee35783885287949392918115610ec35750600114610f4c575050610e6592500383610de2565b90939150600e6000527fbb7b4a454dc3493923482f07822329ed19e8244eff582cc204f8554c3620c3fd936000915b818310610f93575050610e6593508201013880610e57565b85548884018501529485019487945091830191610f7b565b91607f1691610f1c565b919082519283825260005b848110610fe1575050826000602080949584010152601f8019910116010190565b602081830181015184830182015201610fc0565b600a5481101561102c57600a6000527fc65a7bb8d6351c1cf70c95a316cc6a92839c986682d98bc35f958f4883f9d2a80190600090565b634e487b7160e01b600052603260045260246000fd5b1561104957565b60405162461bcd60e51b815260206004820152601d60248201527f496e636f727265637420636f6e747269627574696f6e20616d6f756e740000006044820152606490fd5b600019430143811161110c576006545a6040519160208301934084524260408401523360601b6060840152607483015260948201526094815260c0810181811067ffffffffffffffff821117610e045760405251902080600d55600a549081156110f6570690565b634e487b7160e01b600052601260045260246000fd5b634e487b7160e01b600052601160045260246000fd5b1561112957565b60405162461bcd60e51b815260206004820152601360248201527210de58db19481b9bdd08195b991959081e595d606a1b6044820152606490fd5b519069ffffffffffffffffffff8216820361117b57565b600080fdfea2646970667358221220746ea17ce5cf24a6e5495f535ba13f73053bd4290e866214ff2c770443c8085264736f6c63430008140033a26469706673582212202b5b955d68d6dcb0b12ee17735f72d719008ec4cbde455736bfe9eb905a227b064736f6c63430008140033",
  "devdoc": {
    "kind": "dev",
    "methods": {},
    "version": 1
  },
  "userdoc": {
    "kind": "user",
    "methods": {},
    "version": 1
  },
  "storageLayout": {
    "storage": [
      {
        "astId": 981,
        "contract": "contracts/EthqubFactory.sol:EthqubFactory",
        "label": "ethqubArray",
        "offset": 0,
        "slot": "0",
        "type": "t_array(t_contract(Ethqub)972)dyn_storage"
      },
      {
        "astId": 986,
        "contract": "contracts/EthqubFactory.sol:EthqubFactory",
        "label": "ethqubMapping",
        "offset": 0,
        "slot": "1",
        "type": "t_mapping(t_address,t_contract(Ethqub)972)"
      }
    ],
    "types": {
      "t_address": {
        "encoding": "inplace",
        "label": "address",
        "numberOfBytes": "20"
      },
      "t_array(t_contract(Ethqub)972)dyn_storage": {
        "base": "t_contract(Ethqub)972",
        "encoding": "dynamic_array",
        "label": "contract Ethqub[]",
        "numberOfBytes": "32"
      },
      "t_contract(Ethqub)972": {
        "encoding": "inplace",
        "label": "contract Ethqub",
        "numberOfBytes": "20"
      },
      "t_mapping(t_address,t_contract(Ethqub)972)": {
        "encoding": "mapping",
        "key": "t_address",
        "label": "mapping(address => contract Ethqub)",
        "numberOfBytes": "32",
        "value": "t_contract(Ethqub)972"
      }
    }
  }
}