{
  "address": "0xDE7d8b1D4aF5f8a5463834Dca5314b70929C985e",
  "abi": [
    {
      "anonymous": false,
      "inputs": [
        {
          "indexed": true,
          "internalType": "address",
          "name": "contractAddress",
          "type": "address"
        },
        {
          "indexed": true,
          "internalType": "address",
          "name": "creator",
          "type": "address"
        }
      ],
      "name": "EthqubCreated",
      "type": "event"
    },
    {
      "inputs": [
        {
          "internalType": "address",
          "name": "_creator",
          "type": "address"
        },
        {
          "internalType": "string",
          "name": "_equbTitle",
          "type": "string"
        },
        {
          "internalType": "uint256",
          "name": "_poolAmount",
          "type": "uint256"
        },
        {
          "internalType": "uint256",
          "name": "_totalCycles",
          "type": "uint256"
        },
        {
          "internalType": "uint256",
          "name": "_cycleDuration",
          "type": "uint256"
        },
        {
          "internalType": "string",
          "name": "_ipfsHash",
          "type": "string"
        },
        {
          "internalType": "uint256",
          "name": "_startingTime",
          "type": "uint256"
        },
        {
          "internalType": "uint256",
          "name": "_creditScore",
          "type": "uint256"
        },
        {
          "internalType": "address",
          "name": "priceFeedAddress",
          "type": "address"
        }
      ],
      "name": "createEthqub",
      "outputs": [
        {
          "internalType": "address",
          "name": "",
          "type": "address"
        }
      ],
      "stateMutability": "nonpayable",
      "type": "function"
    },
    {
      "inputs": [
        {
          "internalType": "uint256",
          "name": "",
          "type": "uint256"
        }
      ],
      "name": "ethqubArray",
      "outputs": [
        {
          "internalType": "contract Ethqub",
          "name": "",
          "type": "address"
        }
      ],
      "stateMutability": "view",
      "type": "function"
    },
    {
      "inputs": [
        {
          "internalType": "address",
          "name": "",
          "type": "address"
        }
      ],
      "name": "ethqubMapping",
      "outputs": [
        {
          "internalType": "contract Ethqub",
          "name": "",
          "type": "address"
        }
      ],
      "stateMutability": "view",
      "type": "function"
    },
    {
      "inputs": [],
      "name": "getDeployedContracts",
      "outputs": [
        {
          "internalType": "contract Ethqub[]",
          "name": "",
          "type": "address[]"
        }
      ],
      "stateMutability": "view",
      "type": "function"
    },
    {
      "inputs": [
        {
          "internalType": "address",
          "name": "contractAddress",
          "type": "address"
        }
      ],
      "name": "getEthqubDetails",
      "outputs": [
        {
          "internalType": "string",
          "name": "",
          "type": "string"
        },
        {
          "internalType": "uint256",
          "name": "",
          "type": "uint256"
        },
        {
          "internalType": "uint256",
          "name": "",
          "type": "uint256"
        },
        {
          "internalType": "uint256",
          "name": "",
          "type": "uint256"
        },
        {
          "internalType": "uint256",
          "name": "",
          "type": "uint256"
        },
        {
          "internalType": "uint256",
          "name": "",
          "type": "uint256"
        },
        {
          "internalType": "uint256",
          "name": "",
          "type": "uint256"
        },
        {
          "internalType": "uint256",
          "name": "",
          "type": "uint256"
        },
        {
          "internalType": "uint256",
          "name": "",
          "type": "uint256"
        },
        {
          "internalType": "uint256",
          "name": "",
          "type": "uint256"
        },
        {
          "internalType": "uint256",
          "name": "",
          "type": "uint256"
        },
        {
          "internalType": "string",
          "name": "",
          "type": "string"
        },
        {
          "internalType": "address",
          "name": "",
          "type": "address"
        },
        {
          "internalType": "address[]",
          "name": "",
          "type": "address[]"
        },
        {
          "internalType": "address[]",
          "name": "",
          "type": "address[]"
        },
        {
          "internalType": "address[]",
          "name": "",
          "type": "address[]"
        },
        {
          "internalType": "uint256[]",
          "name": "",
          "type": "uint256[]"
        }
      ],
      "stateMutability": "view",
      "type": "function"
    },
    {
      "inputs": [
        {
          "internalType": "address",
          "name": "contractAddress",
          "type": "address"
        },
        {
          "internalType": "address",
          "name": "_joiner",
          "type": "address"
        }
      ],
      "name": "joinEthqub",
      "outputs": [],
      "stateMutability": "payable",
      "type": "function"
    }
  ],
  "transactionHash": "0x7c623a2474cf4ac9614b6b6b28730cd2c1cce2a4f47ca2a139248dff5db3505d",
  "args": [],
  "numDeployments": 17,
  "solcInputHash": "9a81a01f14067f2ffea7efb744b2cc61",
  "bytecode": "0x60808060405234610016576127e9908161001c8239f35b600080fdfe6102606040526004803610156200001557600080fd5b6000806101c052803560e01c806316dc68ee1462000881578063333f5bd1146200083e578063aa9a068f1462000766578063af634c1914620006a2578063b5b0e80b146200025b5763bb762ad1146200006d57600080fd5b346200025457610120908160031936011262000254576200008d62000917565b67ffffffffffffffff906024358281116200025457620000b1903690870162000a14565b60a4358381116200025457620000cb903690880162000a14565b6001600160a01b03946101043586811693919084900362000251575060405193611c1a808601968688109088111762000238576200014f92886101009593620001289362000b9a8a3916998a89528060208a015288019062000958565b9060443560408801526064356060880152608435608088015286820360a088015262000958565b9360c43560c082015260e43560e08201520152806101c05192039082f09081156200022c57506101c05193845494680100000000000000008610156200021457505081620001a8856001602097016101c05155620008cc565b939092169282549060031b9184831b921b1916179055806101c05152600183526101c0519160408320826bffffffffffffffffffffffff60a01b825416179055817ffbb20e1d7e6324290fb1e279ba173c2aed27229abdb8292ba483c04067bbd77d6040519480a38152f35b634e487b7160e01b905260419052506101c051602490fd5b604051903d90823e3d90fd5b60418a634e487b7160e01b6101c051525260246101c051fd5b80fd5b6101c05180fd5b82346200025457602036600319011262000254576001600160a01b036200028162000917565b16806101c051526001602052620002a960018060a01b0360406101c051205416151562000a61565b60405180926315b6b63760e21b8252816101c051935afa8060e0521562000694576101c0519081826101405282610180528283918485868790889289948a988b988c809c816101205260e05162000443575b5093620003f39d9a9793620003a69793620003cb9b979362000337620003df9f9c98604051806101605261022080915261016051019062000958565b986020610160510152610140516040610160510152610180516060610160510152608061016051015260a061016051015260c061016051015260e06101605101526101006101605101526101206101605101526101406101605101526101605161016081840391015262000958565b9160018060a01b0316610180610160510152610160516101a08184039101526200097f565b90610160516101c08184039101526200097f565b90610160516101e08184039101526200097f565b610160516102008183039101526020610120515191828152019060206101205101906101c0515b8181106200042c576101605180850390f35b82518452602093840193909201916001016200041a565b9c509c5050505050505050505050503d8092823e620004638282620009be565b6102208183810103126200025457805167ffffffffffffffff81116200025457620004949083830190830162000aae565b9160208201519260408301519160608401516101005260808401519160a08501519060c08601519360e08701519761010088015196610120890151956101408a0151936101608b015167ffffffffffffffff81116200025457620004fe90838d01908d0162000aae565b956200050e6101808d0162000afb565b926101a08d015167ffffffffffffffff811162000254578d6200053691838201910162000b29565b60c0526101c08d015167ffffffffffffffff811162000254578d6200056091838201910162000b29565b6101a0526101e08d015167ffffffffffffffff811162000254578d6200058b91838201910162000b29565b60a0526102008d0151806101e05267ffffffffffffffff81116200025457818e01818f01601f01121562000254578d015161024052620005e4620005d26102405162000b10565b806102005260405180608052620009be565b60805161022052610240516102205152602060805101610220526101e0518d01908d0160206102405160051b8301011162000254576020015b60208d6102405160051b906101e05101010181101562000655576020818192516102205152816102205101610220520190506200061d565b5061014093909352610100516101805260c0516101a05160a05160805161012052909d909c50929a909994989697959695909492939091908e620002fb565b6040513d6101c051823e3d90fd5b8260403660031901126200025457620006ba62000917565b6001600160a01b03602435818116939290849003620002545781620006f7911691826101c05152600160205260406101c051205416151562000a61565b803b15620002545760405192636a49cc5760e11b845282840152826024816101c05180945af18015620006945762000731575b6101c05180f35b67ffffffffffffffff82116200074d575060405280806200072a565b604190634e487b7160e01b6101c051525260246101c051fd5b3462000254576101c05180600319360112620002515760405190819054808352602080930180916101c05180527f290decd9548b62a8d60345a988386fc84ba6bc95484008f6362f93160ef3e563906101c0515b8682821062000820578686620007d382880383620009be565b60405192839281840190828552518091526040840192916101c0515b828110620007ff57505050500390f35b83516001600160a01b031685528695509381019392810192600101620007ef565b83546001600160a01b031685529093019260019283019201620007ba565b3462000254576020366003190112620002545760206001600160a01b03806200086662000917565b166101c051526001825260406101c051205416604051908152f35b509034620008c8576020366003190112620008c8573590805482101562000251576020620008af83620008cc565b905460405160039290921b1c6001600160a01b03168152f35b5080fd5b90600091825481101562000903578280527f290decd9548b62a8d60345a988386fc84ba6bc95484008f6362f93160ef3e563019190565b634e487b7160e01b83526032600452602483fd5b600435906001600160a01b03821682036200092e57565b600080fd5b60005b838110620009475750506000910152565b818101518382015260200162000936565b90602091620009738151809281855285808601910162000933565b601f01601f1916010190565b90815180825260208080930193019160005b828110620009a0575050505090565b83516001600160a01b03168552938101939281019260010162000991565b90601f8019910116810190811067ffffffffffffffff821117620009e157604052565b634e487b7160e01b600052604160045260246000fd5b67ffffffffffffffff8111620009e157601f01601f191660200190565b81601f820112156200092e5780359062000a2e82620009f7565b9262000a3e6040519485620009be565b828452602083830101116200092e57816000926020809301838601378301015290565b1562000a6957565b60405162461bcd60e51b815260206004820152601760248201527f436f6e747261637420646f6573206e6f742065786973740000000000000000006044820152606490fd5b81601f820112156200092e57805162000ac781620009f7565b9262000ad76040519485620009be565b818452602082840101116200092e5762000af8916020808501910162000933565b90565b51906001600160a01b03821682036200092e57565b67ffffffffffffffff8111620009e15760051b60200190565b81601f820112156200092e5780519162000b438362000b10565b9262000b536040519485620009be565b808452602092838086019260051b8201019283116200092e578301905b82821062000b7f575050505090565b83809162000b8d8462000afb565b81520191019062000b7056fe60c060405234620004e45762001c1a803803806200001d81620004e9565b928339810161012082820312620004e45762000039826200050f565b60208381015190936001600160401b03939091848111620004e457816200006291840162000524565b9260408301519060608401519360808101519360a082015190888211620004e4576200009091830162000524565b93620000a561010060c084015193016200050f565b504260a05282608052865195888711620004ce576000968754986001998a81811c91168015620004c3575b8d821014620004af57908c82601f85941162000458575b50508c908d601f8411600114620003f057508a92620003e4575b5050600019600383901b1c191690891b1787555b6004948086558115620003d1578190046005556007556008558086556002558360065560095490680100000000000000009182811015620003be5786810180600955811015620003ab57600986528886200180546001600160a01b03929092166001600160a01b03199283168117909155600b5483811015620003985787810180600b558110156200038557600b87528987200191825416179055600c5490811015620003725784810180600c558110156200035f578490600c8552878520015581519485116200034c57600f54908482811c9216801562000341575b878310146200032e5750601f8111620002e2575b508491601f8511600114620002795793945084929190836200026d575b50501b916000199060031b1c191617600f555b604051611683908162000597823960805181818161095b01528181610bb40152611170015260a05181818161023901526108d50152f35b01519250388062000223565b600f815285812093958591601f198316915b88838310620002c75750505010620002ad575b505050811b01600f5562000236565b015160001960f88460031b161c191690553880806200029e565b8587015188559096019594850194879350908101906200028b565b600f8352858320601f860160051c81019187871062000323575b601f0160051c019084905b8281106200031757505062000206565b84815501849062000307565b9091508190620002fc565b634e487b7160e01b845260229052602483fd5b91607f1691620001f2565b634e487b7160e01b835260419052602482fd5b634e487b7160e01b845260328252602484fd5b634e487b7160e01b845260418252602484fd5b634e487b7160e01b875260328552602487fd5b634e487b7160e01b875260418552602487fd5b634e487b7160e01b865260328452602486fd5b634e487b7160e01b865260418452602486fd5b634e487b7160e01b885260128652602488fd5b01519050388062000101565b91908c9450601f1984168c8052838d20938d905b8282106200043e575050841162000424575b505050811b01875562000115565b015160001960f88460031b161c1916905538808062000416565b8484015186558f9790950194938401939081019062000404565b8b8052818c20929350601f850160051c830192918510620004a4575b84939291601f8e920160051c01915b8281106200049557508e9150620000e7565b8c81558594508d910162000483565b909150819062000474565b634e487b7160e01b8a52602260045260248afd5b90607f1690620000d0565b634e487b7160e01b600052604160045260246000fd5b600080fd5b6040519190601f01601f191682016001600160401b03811183821017620004ce57604052565b51906001600160a01b0382168203620004e457565b919080601f84011215620004e45782516001600160401b038111620004ce576020906200055a601f8201601f19168301620004e9565b92818452828287010111620004e45760005b8181106200058257508260009394955001015290565b85810183015184820184015282016200056c56fe61014080604052600480361015610020575b5050361561001e57600080fd5b005b60003560e01c91826302d05d3f1461115d5750816306e4a5d814610fb2578163148c0c7514610d5f5781632a289e6714610b985781632fcc345b14610b7c578163335e536c14610b5e57816339518b5e14610b4057816339da315214610b225781633f3b3b2714610b04578163446ad54914610add57816348d555eb14610abf5781634a76d31214610a8a57816356dad8dc1461070c578163570f8813146106dd5781635bec4cb4146106bf5781635daf08ca1461067f578163a165768114610661578163a230c5241461062a578163a693600b1461060d578163bab2f552146105ef578163bf85ef3214610513578163c2522598146104ba578163c5a0a74d1461048d578163c623674f14610459578163ccbac9f51461043b578163d49398ae1461025c578163d8270dce14610221578163dbdff2c1146101fe578163f8b2cb4f146101d057508063fcf488a9146101a75763ff186b2e14610184573880610011565b346101a25760003660031901126101a2576020601154604051908152f35b600080fd5b346101a25760003660031901126101a257600d546040516001600160a01b039091168152602090f35b346101a25760203660031901126101a257356001600160a01b03811681036101a25760209031604051908152f35b346101a25760003660031901126101a2576020610219611525565b604051908152f35b346101a25760003660031901126101a25760206040517f00000000000000000000000000000000000000000000000000000000000000008152f35b60203660031901126101a25780356001600160a01b038116918282036101a25760095491600754831015610408578031600554116103cd57678ac7230489e800006102a6826114cf565b0361039657600160401b928381101561038157816102cd8260016102ec9401600955611436565b90919082549060031b9160018060a01b03809116831b921b1916179055565b600b548381101561038157906102cd82600161030b9401600b556113ff565b600c549182101561036c57508060016103279201600c556113b2565b81549060031b906001821b91600019901b19161790557f7f3b9effe05cfb4f31f854004de03199fd03fe56bf38a48b2aa9a9f4402d6e236020600554604051908152a2005b604190634e487b7160e01b6000525260246000fd5b604183634e487b7160e01b6000525260246000fd5b60405162461bcd60e51b8152602081840152601060248201526f20b63932b0b23c90309036b2b6b132b960811b6044820152606490fd5b60405162461bcd60e51b81526020818401526014602482015273496e73756666696369656e742062616c616e636560601b6044820152606490fd5b60405162461bcd60e51b8152602081840152600c60248201526b115c5d58881a5cc8199d5b1b60a21b6044820152606490fd5b346101a25760003660031901126101a2576020600e54604051908152f35b346101a25760003660031901126101a2576104896104756112be565b604051918291602083526020830190611372565b0390f35b346101a25760203660031901126101a257356001600160a01b03811681036101a2576102196020916114cf565b346101a25760203660031901126101a25735600a548110156101a257600a6000527fc65a7bb8d6351c1cf70c95a316cc6a92839c986682d98bc35f958f4883f9d2a801546040516001600160a01b039091168152602090f35b346101a25760003660031901126101a257601254604051633fabe5a360e21b8152919060a0908390839082906001600160a01b03165afa9182156105e357600092610595575b506402540be400918281029281840514901517156105805760208280601155604051908152f35b601190634e487b7160e01b6000525260246000fd5b90915060a0813d82116105db575b816105b060a0938361119f565b810103126101a2576105c181611636565b506105d3608060208301519201611636565b509082610559565b3d91506105a3565b6040513d6000823e3d90fd5b346101a25760003660031901126101a2576020600654604051908152f35b346101a25760003660031901126101a25760209054604051908152f35b346101a25760203660031901126101a257356001600160a01b03811681036101a2576106576020916115e5565b6040519015158152f35b346101a25760003660031901126101a2576020600754604051908152f35b346101a25760203660031901126101a257356009548110156101a2576106a6602091611436565b905460405160039290921b1c6001600160a01b03168152f35b346101a25760003660031901126101a2576020600854604051908152f35b346101a25760003660031901126101a257602060405173694aa1769357215de4fac081bf1f309adc3253068152f35b346101a25760003660031901126101a2576001546002549160035461010052546005549160065492600754600854600954916107466111d7565b9661074f6112be565b946040519788896020600b549283815201600b6000527f0175b7a638427703f0dbe7bb9bbf987a2551717b34e79f33b5b1008d1fa01db99260005b818110610a6857505061079f9250038a61119f565b6040519a60208c8881520160096000528c7f6e1540171b6c0c960b71a7020d9f60077f6af931a8bbf590da0223dacf75c7af9160005b8a8110610a4757506107e99250038d61119f565b6040519a8b8c6020600a549283815201600a6000527fc65a7bb8d6351c1cf70c95a316cc6a92839c986682d98bc35f958f4883f9d2a89260005b818110610a225750506108389250038d61119f565b6040518060a0528060e052600c54809152602060a051018060a05260c052600c6000527fdf6966c971051c3d54ec59162606531493a51404a002842f56009d7e5cf4a8c76000610120525b8161012051106109fd575050936109a69a979361095197936109b89e9b97936108d26109949c986108bb60e0518060a051039061119f565b604051806080526102208091526080510190611372565b987f00000000000000000000000000000000000000000000000000000000000000006020608051015260406080510152606060805101526101005160808051015260a0608051015260c0608051015260e06080510152610100608051015261012060805101526101406080510152608051610160818403910152611372565b9060018060a01b037f00000000000000000000000000000000000000000000000000000000000000001661018060805101526080516101a081840391015261146d565b906080516101c081840391015261146d565b906080516101e081840391015261146d565b608051610200818303910152602060e0515191828152019060c0519060005b8181106109e75760805180850390f35b82518452602093840193909201916001016109d7565b806001915460a05152602060a0510160a0520190600161012051016101205290610883565b91600191935060208291828060a01b0387541681520194019101918f92939193610823565b9150600160208192828060a01b0386541681520193019101918e91926107d5565b84546001600160a01b031683526001948501948e94506020909301920161078a565b346101a25760203660031901126101a25735600c548110156101a257610ab16020916113b2565b90546040519160031b1c8152f35b346101a25760003660031901126101a2576020600554604051908152f35b346101a25760203660031901126101a25735600b548110156101a2576106a66020916113ff565b346101a25760003660031901126101a2576020600354604051908152f35b346101a25760003660031901126101a2576020601054604051908152f35b346101a25760003660031901126101a2576020600154604051908152f35b346101a25760003660031901126101a2576020600254604051908152f35b346101a25760003660031901126101a2576104896104756111d7565b346101a25760003660031901126101a2576001600160a01b03907f000000000000000000000000000000000000000000000000000000000000000082163303610d0b576003546008548101809111610cf657610bf6904210156115a3565b610bfe611525565b82610c08826113ff565b90549060031b1c166bffffffffffffffffffffffff60a01b600d541617600d5542600355600b5460018111610caf575b5050600b54908115610c9a575060001901610c52816113ff565b8382549160031b1b19169055600b55610c6c6006546114aa565b600655600d54167f5b690ec4a06fe979403046eaeea5b3ce38524683c3001f662c8b5a829632f7df600080a2005b603190634e487b7160e01b6000525260246000fd5b6000198101908111610ce157906102cd84610ccc610cda946113ff565b90549060031b1c16916113ff565b8280610c38565b601183634e487b7160e01b6000525260246000fd5b601182634e487b7160e01b6000525260246000fd5b60849060206040519162461bcd60e51b8352820152602760248201527f4f6e6c79207468652063726561746f722063616e2063616c6c207468697320666044820152663ab731ba34b7b760c91b6064820152fd5b346101a25760003660031901126101a257600d546001600160a01b03169033829003610f775760015415610f3c57610d9b6008544210156115a3565b479060055460095490818102918183041490151715610cf657808311610f34575b50600a54600160401b811015610f1f576001810180600a55811015610f0a57600a6000527fc65a7bb8d6351c1cf70c95a316cc6a92839c986682d98bc35f958f4883f9d2a8016bffffffffffffffffffffffff60a01b908482825416179055600d5416600d55600080808085875af13d15610f05573d67ffffffffffffffff81116103815760405190610e59601f8201601f19166020018361119f565b8152600060203d92013e5b15610eca57507f9206244e7d07ef9a49c1dae86e820d494f0dd268fa04f434eb1de8475a4bb55460208392604051908152a260065460075414610ea357005b7fd29e8545d33d16738453f73ba7267664418170c341c7ab7e3eb60e1fa27dd18e600080a2005b60649060206040519162461bcd60e51b835282015260146024820152732330b4b632b2103a379039b2b7321022ba3432b960611b6044820152fd5b610e64565b603282634e487b7160e01b6000525260246000fd5b604182634e487b7160e01b6000525260246000fd5b915083610dbc565b60649060206040519162461bcd60e51b83528201526014602482015273115c5d58881b9bdd081cdd185c9d1959081e595d60621b6044820152fd5b60649060206040519162461bcd60e51b835282015260146024820152732737ba103a343290363ab1b5bc903bb4b73732b960611b6044820152fd5b60003660031901126101a257610fcf610fca336114cf565b6113b2565b90549060031b1c1561112a57610fe7610fca336114cf565b90549060031b1c6006548091116110e65760075411156110b157600554340361106d57611016610fca336114cf565b819291549060031b9181831c90600182018092116105805750821b91600019901b19161790556005546040519081527f2042b7712cb5296596d92ab14e92638ac307b3b6300fa48c5ccd37ad6adbbeb160203392a2005b60649060206040519162461bcd60e51b8352820152601d60248201527f496e636f727265637420636f6e747269627574696f6e20616d6f756e740000006044820152fd5b60649060206040519162461bcd60e51b8352820152600e60248201526d115c5d58881a185cc8195b99195960921b6044820152fd5b60405162461bcd60e51b8152602081840152601b60248201527f416c7265616479207061696420666f722074686973206379636c6500000000006044820152606490fd5b60649060206040519162461bcd60e51b8352820152600c60248201526b2737ba10309036b2b6b132b960a11b6044820152fd5b346101a25760003660031901126101a2577f00000000000000000000000000000000000000000000000000000000000000006001600160a01b03168152602090f35b90601f8019910116810190811067ffffffffffffffff8211176111c157604052565b634e487b7160e01b600052604160045260246000fd5b604051906000805490600182811c908084169384156112b4575b60209485841081146112a057838852879493929181156112805750600114611224575b50506112229250038361119f565b565b60008080527f290decd9548b62a8d60345a988386fc84ba6bc95484008f6362f93160ef3e56395935091905b81831061126857505061122293508201013880611214565b85548884018501529485019487945091830191611250565b91505061122294925060ff191682840152151560051b8201013880611214565b634e487b7160e01b85526022600452602485fd5b91607f16916111f1565b604051906000600f5490600182811c90808416938415611368575b60209485841081146112a0578388528794939291811561128057506001146113095750506112229250038361119f565b90939150600f6000527f8d1108e10bcb7c27dddfc02ed9d693a074039d026cf4ea4240b40f7d581ac802936000915b81831061135057505061122293508201013880611214565b85548884018501529485019487945091830191611338565b91607f16916112d9565b919082519283825260005b84811061139e575050826000602080949584010152601f8019910116010190565b60208183018101518483018201520161137d565b600c548110156113e957600c6000527fdf6966c971051c3d54ec59162606531493a51404a002842f56009d7e5cf4a8c70190600090565b634e487b7160e01b600052603260045260246000fd5b600b548110156113e957600b6000527f0175b7a638427703f0dbe7bb9bbf987a2551717b34e79f33b5b1008d1fa01db90190600090565b6009548110156113e95760096000527f6e1540171b6c0c960b71a7020d9f60077f6af931a8bbf590da0223dacf75c7af0190600090565b90815180825260208080930193019160005b82811061148d575050505090565b83516001600160a01b03168552938101939281019260010161147f565b60001981146114b95760010190565b634e487b7160e01b600052601160045260246000fd5b6009549060005b8281106114ec57505050678ac7230489e8000090565b6114f581611436565b905460039190911b1c6001600160a01b039081169083161461151f5761151a906114aa565b6114d6565b91505090565b60001943014381116114b9576006545a6040519160208301934084524260408401523360601b6060840152607483015260948201526094815260c0810181811067ffffffffffffffff8211176111c15760405251902080600e55600b5490811561158d570690565b634e487b7160e01b600052601260045260246000fd5b156115aa57565b60405162461bcd60e51b815260206004820152601360248201527210de58db19481b9bdd08195b991959081e595d606a1b6044820152606490fd5b6009549060005b8281106115fb57505050600090565b61160481611436565b905460039190911b1c6001600160a01b039081169083161461162e57611629906114aa565b6115ec565b505050600190565b519069ffffffffffffffffffff821682036101a25756fea26469706673582212200e12a091a87e0806091f4d5184b78a946766a659d6858ad963969acd6b3f076264736f6c63430008140033a264697066735822122035003d6ea74874c0de8425c316a990c00db65ad46a374a57d1f705887eb109bd64736f6c63430008140033",
  "devdoc": {
    "kind": "dev",
    "methods": {},
    "version": 1
  },
  "userdoc": {
    "kind": "user",
    "methods": {},
    "version": 1
  },
  "storageLayout": {
    "storage": [
      {
        "astId": 891,
        "contract": "contracts/EthqubFactory.sol:EthqubFactory",
        "label": "ethqubArray",
        "offset": 0,
        "slot": "0",
        "type": "t_array(t_contract(Ethqub)882)dyn_storage"
      },
      {
        "astId": 896,
        "contract": "contracts/EthqubFactory.sol:EthqubFactory",
        "label": "ethqubMapping",
        "offset": 0,
        "slot": "1",
        "type": "t_mapping(t_address,t_contract(Ethqub)882)"
      }
    ],
    "types": {
      "t_address": {
        "encoding": "inplace",
        "label": "address",
        "numberOfBytes": "20"
      },
      "t_array(t_contract(Ethqub)882)dyn_storage": {
        "base": "t_contract(Ethqub)882",
        "encoding": "dynamic_array",
        "label": "contract Ethqub[]",
        "numberOfBytes": "32"
      },
      "t_contract(Ethqub)882": {
        "encoding": "inplace",
        "label": "contract Ethqub",
        "numberOfBytes": "20"
      },
      "t_mapping(t_address,t_contract(Ethqub)882)": {
        "encoding": "mapping",
        "key": "t_address",
        "label": "mapping(address => contract Ethqub)",
        "numberOfBytes": "32",
        "value": "t_contract(Ethqub)882"
      }
    }
  }
}