{
  "address": "0x18F65D046ef26C1CaaA6325e8Ff176cb3007Ac63",
  "abi": [
    {
      "anonymous": false,
      "inputs": [
        {
          "indexed": true,
          "internalType": "address",
          "name": "contractAddress",
          "type": "address"
        },
        {
          "indexed": true,
          "internalType": "address",
          "name": "creator",
          "type": "address"
        }
      ],
      "name": "EthqubCreated",
      "type": "event"
    },
    {
      "inputs": [
        {
          "internalType": "address",
          "name": "_creator",
          "type": "address"
        },
        {
          "internalType": "string",
          "name": "_equbTitle",
          "type": "string"
        },
        {
          "internalType": "uint256",
          "name": "_poolAmount",
          "type": "uint256"
        },
        {
          "internalType": "uint256",
          "name": "_totalCycles",
          "type": "uint256"
        },
        {
          "internalType": "uint256",
          "name": "_cycleDuration",
          "type": "uint256"
        },
        {
          "internalType": "string",
          "name": "_ipfsHash",
          "type": "string"
        },
        {
          "internalType": "uint256",
          "name": "_startingTime",
          "type": "uint256"
        },
        {
          "internalType": "uint256",
          "name": "_creditScore",
          "type": "uint256"
        },
        {
          "internalType": "address",
          "name": "priceFeedAddress",
          "type": "address"
        }
      ],
      "name": "createEthqub",
      "outputs": [
        {
          "internalType": "address",
          "name": "",
          "type": "address"
        }
      ],
      "stateMutability": "nonpayable",
      "type": "function"
    },
    {
      "inputs": [
        {
          "internalType": "uint256",
          "name": "",
          "type": "uint256"
        }
      ],
      "name": "ethqubArray",
      "outputs": [
        {
          "internalType": "contract Ethqub",
          "name": "",
          "type": "address"
        }
      ],
      "stateMutability": "view",
      "type": "function"
    },
    {
      "inputs": [
        {
          "internalType": "address",
          "name": "",
          "type": "address"
        }
      ],
      "name": "ethqubMapping",
      "outputs": [
        {
          "internalType": "contract Ethqub",
          "name": "",
          "type": "address"
        }
      ],
      "stateMutability": "view",
      "type": "function"
    },
    {
      "inputs": [],
      "name": "getDeployedContracts",
      "outputs": [
        {
          "internalType": "contract Ethqub[]",
          "name": "",
          "type": "address[]"
        }
      ],
      "stateMutability": "view",
      "type": "function"
    },
    {
      "inputs": [
        {
          "internalType": "address",
          "name": "contractAddress",
          "type": "address"
        }
      ],
      "name": "getEthqubDetails",
      "outputs": [
        {
          "internalType": "string",
          "name": "",
          "type": "string"
        },
        {
          "internalType": "uint256",
          "name": "",
          "type": "uint256"
        },
        {
          "internalType": "uint256",
          "name": "",
          "type": "uint256"
        },
        {
          "internalType": "uint256",
          "name": "",
          "type": "uint256"
        },
        {
          "internalType": "uint256",
          "name": "",
          "type": "uint256"
        },
        {
          "internalType": "uint256",
          "name": "",
          "type": "uint256"
        },
        {
          "internalType": "uint256",
          "name": "",
          "type": "uint256"
        },
        {
          "internalType": "uint256",
          "name": "",
          "type": "uint256"
        },
        {
          "internalType": "uint256",
          "name": "",
          "type": "uint256"
        },
        {
          "internalType": "uint256",
          "name": "",
          "type": "uint256"
        },
        {
          "internalType": "uint256",
          "name": "",
          "type": "uint256"
        },
        {
          "internalType": "string",
          "name": "",
          "type": "string"
        }
      ],
      "stateMutability": "view",
      "type": "function"
    }
  ],
  "transactionHash": "0x492291f9900ebd7a3c09d40030ca053657e3ad084621be7f3991d6957763d237",
  "args": [],
  "numDeployments": 3,
  "solcInputHash": "fa1afa83c91bd6555557dfe8576f366b",
  "bytecode": "0x6080806040523461001657611e99908161001c8239f35b600080fdfe604060808152600490813610156200001657600080fd5b600090813560e01c806316dc68ee1462000521578063333f5bd114620004e3578063aa9a068f1462000418578063b5b0e80b14620002305763bb762ad1146200005e57600080fd5b346200022c576101208060031936011262000228576200007d620005b1565b67ffffffffffffffff92906024358481116200022457620000a290369088016200066f565b9360a4358181116200022057620000bd90369089016200066f565b6001600160a01b0395610104358781169291908390036200021c5785519461175a808701958611878710176200020957926200011a610100938b62000140948a9998976200070a8b39169a8b8852806020890152870190620005f2565b90604435898701526064356060870152608435608087015285820360a0870152620005f2565b9260c43560c082015260e43560e08201520152039085f08015620001ff57845468010000000000000000811015620001ec5760209650917ffbb20e1d7e6324290fb1e279ba173c2aed27229abdb8292ba483c04067bbd77d91620001ab846001889601895562000566565b9490911695869482549060031b9186831b921b191617905582865260018752808620836bffffffffffffffffffffffff60a01b825416179055519480a38152f35b634e487b7160e01b865260418752602486fd5b81513d86823e3d90fd5b634e487b7160e01b8b5260418c5260248bfd5b8880fd5b8680fd5b8580fd5b8280fd5b5080fd5b5091346200022c5760203660031901126200022c576001600160a01b038062000258620005b1565b16908184526001602052848420541615620003d55782908451928380926315b6b63760e21b82525afa908115620003cb5782908380818283849185938695878099819c62000309575b50508c519c8d9c8d9b8c6101808091528d01620002be91620005f2565b9b602001528c015260608b015260808a015260a089015260c088015260e08701526101008601526101208501526101408401528281036101608401526200030591620005f2565b0390f35b9b509b50505050505050505050503d8083833e62000328818362000619565b81019061018081830312620002285780519267ffffffffffffffff938481116200022c57836200035a918401620006bc565b906020830151928681015195606082015195608083015160a084015160c08501519160e086015193610100870151956101208801519761014081015199610160820151928311620003c85750620003b3929101620006bc565b97989a999091929394959697993880620002a1565b80fd5b83513d84823e3d90fd5b835162461bcd60e51b8152602081840152601760248201527f436f6e747261637420646f6573206e6f742065786973740000000000000000006044820152606490fd5b509034620003c85780600319360112620003c857908051918290805491828552602080950180938380527f290decd9548b62a8d60345a988386fc84ba6bc95484008f6362f93160ef3e56390845b818110620004c557505050816200047f91038262000619565b83519485948186019282875251809352850193925b828110620004a457505050500390f35b83516001600160a01b03168552869550938101939281019260010162000494565b82546001600160a01b03168452928801926001928301920162000466565b50346200022c5760203660031901126200022c576020916001600160a01b039082908262000510620005b1565b168152600185522054169051908152f35b50823462000228576020366003190112620002285735918054831015620003c857506200055060209262000566565b905491519160018060a01b039160031b1c168152f35b9060009182548110156200059d578280527f290decd9548b62a8d60345a988386fc84ba6bc95484008f6362f93160ef3e563019190565b634e487b7160e01b83526032600452602483fd5b600435906001600160a01b0382168203620005c857565b600080fd5b60005b838110620005e15750506000910152565b8181015183820152602001620005d0565b906020916200060d81518092818552858086019101620005cd565b601f01601f1916010190565b90601f8019910116810190811067ffffffffffffffff8211176200063c57604052565b634e487b7160e01b600052604160045260246000fd5b67ffffffffffffffff81116200063c57601f01601f191660200190565b81601f82011215620005c857803590620006898262000652565b9262000699604051948562000619565b82845260208383010111620005c857816000926020809301838601378301015290565b81601f82011215620005c8578051620006d58162000652565b92620006e5604051948562000619565b81845260208284010111620005c857620007069160208085019101620005cd565b9056fe60c060405234620004c7576200175a803803806200001d81620004cc565b928339810161012082820312620004c7576200003982620004f2565b60208381015190936001600160401b03939091848111620004c757816200006291840162000507565b9260408301519060608401519360808101519360a082015190888211620004c7576200009091830162000507565b93620000a561010060c08401519301620004f2565b504260a0526080839052600c80546001600160a01b039094166001600160a01b0319948516179055865195888711620004b1576000968754986001998a81811c91168015620004a6575b8d8210146200049257908c82601f8594116200043b575b50508c908d601f8411600114620003d357508a92620003c7575b5050600019600383901b1c191690891b1787555b6004948086558115620003b45781900460055560075560085580865560025583600655600954680100000000000000009081811015620003a157868101806009558110156200038e5760098652888620013383825416179055600a54908110156200037b5785810180600a558110156200036857600a855287852001903390825416179055338352600b86526040832080549085820180921162000355575581519485116200034257600e54908482811c9216801562000337575b87831014620003245750601f8111620002d8575b508491601f85116001146200026f57939450849291908362000263575b50501b916000199060031b1c191617600e555b6040516111e090816200057a82396080518181816108ab0152610ddd015260a05181818161021f01526107300152f35b01519250388062000220565b600e815285812093958591601f198316915b88838310620002bd5750505010620002a3575b505050811b01600e5562000233565b015160001960f88460031b161c1916905538808062000294565b85870151885590960195948501948793509081019062000281565b600e8352858320601f860160051c81019187871062000319575b601f0160051c019084905b8281106200030d57505062000203565b848155018490620002fd565b9091508190620002f2565b634e487b7160e01b845260229052602483fd5b91607f1691620001ef565b634e487b7160e01b835260419052602482fd5b634e487b7160e01b855260118352602485fd5b634e487b7160e01b855260328352602485fd5b634e487b7160e01b855260418352602485fd5b634e487b7160e01b865260328452602486fd5b634e487b7160e01b865260418452602486fd5b634e487b7160e01b885260128652602488fd5b01519050388062000120565b91908c9450601f1984168c8052838d20938d905b82821062000421575050841162000407575b505050811b01875562000134565b015160001960f88460031b161c19169055388080620003f9565b8484015186558f97909501949384019390810190620003e7565b8b8052818c20929350601f850160051c83019291851062000487575b84939291601f8e920160051c01915b8281106200047857508e915062000106565b8c81558594508d910162000466565b909150819062000457565b634e487b7160e01b8a52602260045260248afd5b90607f1690620000ef565b634e487b7160e01b600052604160045260246000fd5b600080fd5b6040519190601f01601f191682016001600160401b03811183821017620004b157604052565b51906001600160a01b0382168203620004c757565b919080601f84011215620004c75782516001600160401b038111620004b1576020906200053d601f8201601f19168301620004cc565b92818452828287010111620004c75760005b8181106200056557508260009394955001015290565b85810183015184820184015282016200054f56fe6080604081815260049182361015610022575b505050361561002057600080fd5b005b600092833560e01c91826302d05d3f14610dc95750816306e4a5d814610c7b578163148c0c7514610a865781632a289e671461088e5781632fcc345b14610870578163335e536c1461085157816339518b5e1461083257816339da3152146108135781633f3b3b27146107f4578163446ad549146107b357816348d555eb1461079457816356dad8dc146106cf578163570f8813146106a05781635bec4cb4146106815781635daf08ca1461062a578163a16576811461060b578163a447ce5b146105d1578163a693600b146105b3578163bab2f55214610594578163bf85ef32146104ba578163c623674f14610485578163ccbac9f514610466578163d393b97814610242578163d8270dce14610207578163dbdff2c1146101e3578163f8b2cb4f146101af57508063fcf488a9146101875763ff186b2e146101665780610012565b346101835781600319360112610183576020906010549051908152f35b5080fd5b5034610183578160031936011261018357600c5490516001600160a01b039091168152602090f35b9050346101df5760203660031901126101df57356001600160a01b03811681036101df5760209250319051908152f35b8280fd5b5050346101835781600319360112610183576020906102006110b8565b9051908152f35b505034610183578160031936011261018357602090517f00000000000000000000000000000000000000000000000000000000000000008152f35b9050826003193601126101df576009546007548110156104345733316005548091106103fa57338552600b602052838520546103c45761028390341461106c565b6801000000000000000090818110156103b157600181018060095581101561039e57600985527f6e1540171b6c0c960b71a7020d9f60077f6af931a8bbf590da0223dacf75c7af0180546001600160a01b03191633179055600a549081101561038b576102f98160016103179301600a5561101f565b81546001600160a01b0360039290921b91821b19163390911b179055565b338352600b602052818320805491600183018093116103785750556009546007541461036f575b60055490519081527f7f3b9effe05cfb4f31f854004de03199fd03fe56bf38a48b2aa9a9f4402d6e2360203392a280f35b4260015561033e565b634e487b7160e01b855260119052602484fd5b634e487b7160e01b845260418252602484fd5b634e487b7160e01b855260328352602485fd5b634e487b7160e01b855260418352602485fd5b835162461bcd60e51b8152602081850152601060248201526f20b63932b0b23c90309036b2b6b132b960811b6044820152606490fd5b835162461bcd60e51b81526020818501526014602482015273496e73756666696369656e742062616c616e636560601b6044820152606490fd5b506020606492519162461bcd60e51b8352820152600c60248201526b115c5d58881a5cc8199d5b1b60a21b6044820152fd5b505034610183578160031936011261018357602090600d549051908152f35b5050346101835781600319360112610183576104b6906104a3610f2b565b9051918291602083526020830190610fdf565b0390f35b919050346101df57826003193601126101df576011548151633fabe5a360e21b815292939060a0908490869082906001600160a01b03165afa92831561058857819361053a575b506402540be4009283810293818505149015171561052757602083838160105551908152f35b634e487b7160e01b815260118452602490fd5b90925060a0813d8211610580575b8161055560a09383610e0c565b810103126101df576105668161118e565b5061057860806020830151920161118e565b509138610501565b3d9150610548565b509051903d90823e3d90fd5b5050346101835781600319360112610183576020906006549051908152f35b9050346101df57826003193601126101df5760209250549051908152f35b9050346101df5760203660031901126101df57356001600160a01b038116908190036101df5782829160209452600b845220549051908152f35b5050346101835781600319360112610183576020906007549051908152f35b9050346101df5760203660031901126101df57356009548110156101df5760096020935260018060a01b03907f6e1540171b6c0c960b71a7020d9f60077f6af931a8bbf590da0223dacf75c7af0154169051908152f35b5050346101835781600319360112610183576020906008549051908152f35b5050346101835781600319360112610183576020905173694aa1769357215de4fac081bf1f309adc3253068152f35b90508234610791578060031936011261079157506104b661072e92600154600254936003549054600554600654600754916008549360095495610710610e44565b9a610719610f2b565b988a519d8e9d8e610180908181520190610fdf565b7f000000000000000000000000000000000000000000000000000000000000000060208f01529a8d015260608c015260808b015260a08a015260c089015260e0880152610100870152610120860152610140850152838203610160850152610fdf565b80fd5b5050346101835781600319360112610183576020906005549051908152f35b9050346101df5760203660031901126101df573591600a5483101561079157506107de60209261101f565b905491519160018060a01b039160031b1c168152f35b5050346101835781600319360112610183576020906003549051908152f35b505034610183578160031936011261018357602090600f549051908152f35b5050346101835781600319360112610183576020906001549051908152f35b5050346101835781600319360112610183576020906002549051908152f35b5050346101835781600319360112610183576104b6906104a3610e44565b9050346101df57826003193601126101df576001600160a01b03917f000000000000000000000000000000000000000000000000000000000000000083163303610a3357506003546008548101809111610a20576108ee9042101561114c565b6108f66110b8565b826109008261101f565b90549060031b1c166bffffffffffffffffffffffff60a01b600c541617600c5542600355600a54600181116109bc575b5050600a549081156109a95760001991820161094b8161101f565b8582549160031b1b19169055600a556006549182146109965750600101600655600c54167f5b690ec4a06fe979403046eaeea5b3ce38524683c3001f662c8b5a829632f7df8280a280f35b634e487b7160e01b845260119052602483fd5b634e487b7160e01b845260319052602483fd5b6000198101908111610a0d57906109e7846109d9610a069461101f565b90549060031b1c169161101f565b90919082549060031b9160018060a01b03809116831b921b1916179055565b3880610930565b634e487b7160e01b855260118352602485fd5b634e487b7160e01b845260118252602484fd5b906020608492519162461bcd60e51b8352820152602760248201527f4f6e6c79207468652063726561746f722063616e2063616c6c207468697320666044820152663ab731ba34b7b760c91b6064820152fd5b919050346101df57826003193601126101df57600c546001600160a01b0381169290919033849003610c425760015415610c0957610ac860085442101561114c565b479260055460095490818102918183041490151715610bf657808511610bee575b506001600160a01b031916600c558480808086885af13d15610be9573d67ffffffffffffffff8111610bd657835190610b2c601f8201601f191660200183610e0c565b81528660203d92013e5b15610b9d5750602083927f9206244e7d07ef9a49c1dae86e820d494f0dd268fa04f434eb1de8475a4bb5549251908152a260065460075414610b76575080f35b7fd29e8545d33d16738453f73ba7267664418170c341c7ab7e3eb60e1fa27dd18e8280a280f35b6020606492519162461bcd60e51b835282015260146024820152732330b4b632b2103a379039b2b7321022ba3432b960611b6044820152fd5b634e487b7160e01b875260418352602487fd5b610b36565b935038610ae9565b634e487b7160e01b875260118352602487fd5b6020606492519162461bcd60e51b83528201526014602482015273115c5d58881b9bdd081cdd185c9d1959081e595d60621b6044820152fd5b6020606492519162461bcd60e51b835282015260146024820152732737ba103a343290363ab1b5bc903bb4b73732b960611b6044820152fd5b838381600319360112610183573382526020600b81528183205415610d9857338352600b815281832054600654809111610d55576007541115610d2257610cc5600554341461106c565b338352600b815281832080549060018201809211610d0f5755600554915191825233917f2042b7712cb5296596d92ab14e92638ac307b3b6300fa48c5ccd37ad6adbbeb19190a280f35b634e487b7160e01b855260118652602485fd5b8390606492519162461bcd60e51b8352820152600e60248201526d115c5d58881a185cc8195b99195960921b6044820152fd5b825162461bcd60e51b8152808601839052601b60248201527f416c7265616479207061696420666f722074686973206379636c6500000000006044820152606490fd5b8390606492519162461bcd60e51b8352820152600c60248201526b2737ba10309036b2b6b132b960a11b6044820152fd5b8490346101835781600319360112610183577f00000000000000000000000000000000000000000000000000000000000000006001600160a01b03168152602090f35b90601f8019910116810190811067ffffffffffffffff821117610e2e57604052565b634e487b7160e01b600052604160045260246000fd5b604051906000805490600182811c90808416938415610f21575b6020948584108114610f0d5783885287949392918115610eed5750600114610e91575b5050610e8f92500383610e0c565b565b60008080527f290decd9548b62a8d60345a988386fc84ba6bc95484008f6362f93160ef3e56395935091905b818310610ed5575050610e8f93508201013880610e81565b85548884018501529485019487945091830191610ebd565b915050610e8f94925060ff191682840152151560051b8201013880610e81565b634e487b7160e01b85526022600452602485fd5b91607f1691610e5e565b604051906000600e5490600182811c90808416938415610fd5575b6020948584108114610f0d5783885287949392918115610eed5750600114610f76575050610e8f92500383610e0c565b90939150600e6000527fbb7b4a454dc3493923482f07822329ed19e8244eff582cc204f8554c3620c3fd936000915b818310610fbd575050610e8f93508201013880610e81565b85548884018501529485019487945091830191610fa5565b91607f1691610f46565b919082519283825260005b84811061100b575050826000602080949584010152601f8019910116010190565b602081830181015184830182015201610fea565b600a5481101561105657600a6000527fc65a7bb8d6351c1cf70c95a316cc6a92839c986682d98bc35f958f4883f9d2a80190600090565b634e487b7160e01b600052603260045260246000fd5b1561107357565b60405162461bcd60e51b815260206004820152601d60248201527f496e636f727265637420636f6e747269627574696f6e20616d6f756e740000006044820152606490fd5b6000194301438111611136576006545a6040519160208301934084524260408401523360601b6060840152607483015260948201526094815260c0810181811067ffffffffffffffff821117610e2e5760405251902080600d55600a54908115611120570690565b634e487b7160e01b600052601260045260246000fd5b634e487b7160e01b600052601160045260246000fd5b1561115357565b60405162461bcd60e51b815260206004820152601360248201527210de58db19481b9bdd08195b991959081e595d606a1b6044820152606490fd5b519069ffffffffffffffffffff821682036111a557565b600080fdfea26469706673582212208bafaaebd6aade47970663a4059777b0e326fa6d98b7d6769fed5ccffff1a93464736f6c63430008140033a2646970667358221220921a6ac64f3576b8690de80fcc524b128f0043bf033292587d1c7dcb977160dc64736f6c63430008140033",
  "devdoc": {
    "kind": "dev",
    "methods": {},
    "version": 1
  },
  "userdoc": {
    "kind": "user",
    "methods": {},
    "version": 1
  },
  "storageLayout": {
    "storage": [
      {
        "astId": 819,
        "contract": "contracts/EthqubFactory.sol:EthqubFactory",
        "label": "ethqubArray",
        "offset": 0,
        "slot": "0",
        "type": "t_array(t_contract(Ethqub)810)dyn_storage"
      },
      {
        "astId": 824,
        "contract": "contracts/EthqubFactory.sol:EthqubFactory",
        "label": "ethqubMapping",
        "offset": 0,
        "slot": "1",
        "type": "t_mapping(t_address,t_contract(Ethqub)810)"
      }
    ],
    "types": {
      "t_address": {
        "encoding": "inplace",
        "label": "address",
        "numberOfBytes": "20"
      },
      "t_array(t_contract(Ethqub)810)dyn_storage": {
        "base": "t_contract(Ethqub)810",
        "encoding": "dynamic_array",
        "label": "contract Ethqub[]",
        "numberOfBytes": "32"
      },
      "t_contract(Ethqub)810": {
        "encoding": "inplace",
        "label": "contract Ethqub",
        "numberOfBytes": "20"
      },
      "t_mapping(t_address,t_contract(Ethqub)810)": {
        "encoding": "mapping",
        "key": "t_address",
        "label": "mapping(address => contract Ethqub)",
        "numberOfBytes": "32",
        "value": "t_contract(Ethqub)810"
      }
    }
  }
}