{
  "address": "0xE36355848079E3EEDdeAd5EC6ca040AECE4cbEE1",
  "abi": [
    {
      "anonymous": false,
      "inputs": [
        {
          "indexed": true,
          "internalType": "address",
          "name": "contractAddress",
          "type": "address"
        },
        {
          "indexed": true,
          "internalType": "address",
          "name": "creator",
          "type": "address"
        }
      ],
      "name": "EthqubCreated",
      "type": "event"
    },
    {
      "inputs": [
        {
          "internalType": "address",
          "name": "_creator",
          "type": "address"
        },
        {
          "internalType": "string",
          "name": "_equbTitle",
          "type": "string"
        },
        {
          "internalType": "uint256",
          "name": "_poolAmount",
          "type": "uint256"
        },
        {
          "internalType": "uint256",
          "name": "_totalCycles",
          "type": "uint256"
        },
        {
          "internalType": "uint256",
          "name": "_cycleDuration",
          "type": "uint256"
        },
        {
          "internalType": "string",
          "name": "_ipfsHash",
          "type": "string"
        },
        {
          "internalType": "uint256",
          "name": "_startingTime",
          "type": "uint256"
        },
        {
          "internalType": "uint256",
          "name": "_creditScore",
          "type": "uint256"
        },
        {
          "internalType": "address",
          "name": "priceFeedAddress",
          "type": "address"
        }
      ],
      "name": "createEthqub",
      "outputs": [
        {
          "internalType": "address",
          "name": "",
          "type": "address"
        }
      ],
      "stateMutability": "nonpayable",
      "type": "function"
    },
    {
      "inputs": [
        {
          "internalType": "uint256",
          "name": "",
          "type": "uint256"
        }
      ],
      "name": "ethqubArray",
      "outputs": [
        {
          "internalType": "contract Ethqub",
          "name": "",
          "type": "address"
        }
      ],
      "stateMutability": "view",
      "type": "function"
    },
    {
      "inputs": [
        {
          "internalType": "address",
          "name": "",
          "type": "address"
        }
      ],
      "name": "ethqubMapping",
      "outputs": [
        {
          "internalType": "contract Ethqub",
          "name": "",
          "type": "address"
        }
      ],
      "stateMutability": "view",
      "type": "function"
    },
    {
      "inputs": [],
      "name": "getDeployedContracts",
      "outputs": [
        {
          "internalType": "contract Ethqub[]",
          "name": "",
          "type": "address[]"
        }
      ],
      "stateMutability": "view",
      "type": "function"
    },
    {
      "inputs": [
        {
          "internalType": "address",
          "name": "contractAddress",
          "type": "address"
        }
      ],
      "name": "getEthqubDetails",
      "outputs": [
        {
          "internalType": "string",
          "name": "",
          "type": "string"
        },
        {
          "internalType": "uint256",
          "name": "",
          "type": "uint256"
        },
        {
          "internalType": "uint256",
          "name": "",
          "type": "uint256"
        },
        {
          "internalType": "uint256",
          "name": "",
          "type": "uint256"
        },
        {
          "internalType": "uint256",
          "name": "",
          "type": "uint256"
        },
        {
          "internalType": "uint256",
          "name": "",
          "type": "uint256"
        },
        {
          "internalType": "uint256",
          "name": "",
          "type": "uint256"
        },
        {
          "internalType": "uint256",
          "name": "",
          "type": "uint256"
        },
        {
          "internalType": "uint256",
          "name": "",
          "type": "uint256"
        },
        {
          "internalType": "uint256",
          "name": "",
          "type": "uint256"
        },
        {
          "internalType": "uint256",
          "name": "",
          "type": "uint256"
        },
        {
          "internalType": "string",
          "name": "",
          "type": "string"
        },
        {
          "internalType": "address",
          "name": "",
          "type": "address"
        },
        {
          "internalType": "address[]",
          "name": "",
          "type": "address[]"
        },
        {
          "internalType": "address[]",
          "name": "",
          "type": "address[]"
        }
      ],
      "stateMutability": "view",
      "type": "function"
    },
    {
      "inputs": [
        {
          "internalType": "address",
          "name": "contractAddress",
          "type": "address"
        }
      ],
      "name": "joinEthqub",
      "outputs": [],
      "stateMutability": "payable",
      "type": "function"
    }
  ],
  "transactionHash": "0x791b99ee79fd6689e24d09c2a645390468b52ca765e34c62fe621821868ed28f",
  "args": [],
  "numDeployments": 11,
  "solcInputHash": "f34def72472cb69ed3fc5c94334d291d",
  "bytecode": "0x6080806040523461001657612309908161001c8239f35b600080fdfe60806040526004803610156200001457600080fd5b6000803560e01c806316dc68ee146200063e578063333f5bd114620005fe578063810d5e42146200055d578063aa9a068f1462000491578063b5b0e80b146200023c5763bb762ad1146200006757600080fd5b34620002395761012080600319360112620002355762000086620006d0565b67ffffffffffffffff91906024358381116200023157620000ab9036908701620007c8565b9260a4358181116200022d57620000c69036908801620007c8565b6001600160a01b0394610104358681169291908390036200022857604051946119978087019586118787101762000215579262000124610100938a6200014b948a9998976200093d8b3916998a88528060208901528701906200070c565b9060443560408701526064356060870152608435608087015285820360a08701526200070c565b9260c43560c082015260e43560e08201520152039084f080156200020a57835468010000000000000000811015620001f7576020955062000193816001869301875562000685565b949092169382549060031b9185831b921b19161790558183526001845260408320826bffffffffffffffffffffffff60a01b825416179055817ffbb20e1d7e6324290fb1e279ba173c2aed27229abdb8292ba483c04067bbd77d6040519480a38152f35b634e487b7160e01b855260418652602485fd5b6040513d85823e3d90fd5b634e487b7160e01b8a5260418b5260248afd5b600080fd5b8580fd5b8480fd5b5080fd5b80fd5b509034620002355760203660031901126200023557816001600160a01b0362000264620006d0565b168082526001602052604082205462000288906001600160a01b0316151562000815565b6040516315b6b63760e21b815292839182905afa8015620004865782809281938290838485868791889389958a988b9a8c809e62000364575b50506040519e8f9e8f916101e08084528301620002de916200070c565b9a602083015260408201526060015260808d015260a08c015260c08b015260e08a015261010089015261012088015261014087015285810361016087015262000327916200070c565b6001600160a01b039091166101808501528381036101a08501526200034c9162000733565b8281036101c0840152620003609162000733565b0390f35b9e509e50505050505050505050505050503d918282823e62000387838262000772565b6101e0818481010312620002355780519167ffffffffffffffff928381116200023557620003bb9085840190840162000862565b90602083015194604084015160608501519560808601519560a081015160c082015160e0830151610100840151916101208501519361014086015195610160810151888111620004825762000416908b830190830162000862565b97620004266101808301620008af565b9a6101a08301518281116200047e576200044690828501908501620008c4565b9c6101c084015192831162000239575062000466929081019101620008c4565b9a9d979c9b9091929394959698999a9b3880620002c1565b8d80fd5b8b80fd5b6040513d84823e3d90fd5b503462000239578060031936011262000239576040518091805490818352602080930180928280527f290decd9548b62a8d60345a988386fc84ba6bc95484008f6362f93160ef3e56390835b8181106200053f5750505084620004f691038562000772565b60405193838594850191818652518092526040850193925b8281106200051e57505050500390f35b83516001600160a01b0316855286955093810193928101926001016200050e565b82546001600160a01b031684529286019260019283019201620004dd565b5080916020600319360112620005fb576001600160a01b036200059c8162000584620006d0565b16918285526001602052604085205416151562000815565b803b15620005f75782908260405180958193631a72772f60e31b83525af180156200020a57620005ca578280f35b67ffffffffffffffff8211620005e4575060405238808280f35b634e487b7160e01b835260419052602482fd5b5050fd5b50fd5b50346200023957602036600319011262000239576020906001600160a01b0390604090826200062c620006d0565b16815260018452205416604051908152f35b50903462000235576020366003190112620002355735908054821015620002395760206200066c8362000685565b905460405160039290921b1c6001600160a01b03168152f35b906000918254811015620006bc578280527f290decd9548b62a8d60345a988386fc84ba6bc95484008f6362f93160ef3e563019190565b634e487b7160e01b83526032600452602483fd5b600435906001600160a01b03821682036200022857565b60005b838110620006fb5750506000910152565b8181015183820152602001620006ea565b906020916200072781518092818552858086019101620006e7565b601f01601f1916010190565b90815180825260208080930193019160005b82811062000754575050505090565b83516001600160a01b03168552938101939281019260010162000745565b90601f8019910116810190811067ffffffffffffffff8211176200079557604052565b634e487b7160e01b600052604160045260246000fd5b67ffffffffffffffff81116200079557601f01601f191660200190565b81601f820112156200022857803590620007e282620007ab565b92620007f2604051948562000772565b828452602083830101116200022857816000926020809301838601378301015290565b156200081d57565b60405162461bcd60e51b815260206004820152601760248201527f436f6e747261637420646f6573206e6f742065786973740000000000000000006044820152606490fd5b81601f82011215620002285780516200087b81620007ab565b926200088b604051948562000772565b818452602082840101116200022857620008ac9160208085019101620006e7565b90565b51906001600160a01b03821682036200022857565b9080601f83011215620002285781519067ffffffffffffffff821162000795578160051b60405193602093620008fd8584018762000772565b8552838086019282010192831162000228578301905b82821062000922575050505090565b8380916200093084620008af565b8152019101906200091356fe60c0604052346200058a5762001997803803806200001d816200058f565b9283398101610120828203126200058a576200003982620005b5565b60208301516001600160401b0381116200058a57826200005b918501620005ca565b92604081015192606082015160808301519160a08401519060018060401b0382116200058a576200008e918501620005ca565b95620000a361010060c08601519501620005b5565b504260a0526080859052600c80546001600160a01b0319166001600160a01b0387161790558051906001600160401b038211620005745760005490600182811c9216801562000569575b6020831014620005535781601f849311620004f0575b50602090601f8311600114620004745760009262000468575b50508160011b916000199060031b1c1916176000555b60049480865581156200045357819004600555600755600855806001556002556000600655600954906801000000000000000091828110156200043e576001810180600955811015620004295760096000527f6e1540171b6c0c960b71a7020d9f60077f6af931a8bbf590da0223dacf75c7af0180546001600160a01b0319166001600160a01b03909216919091179055600a549081101562000414576001810180600a55811015620003ff577fc65a7bb8d6351c1cf70c95a316cc6a92839c986682d98bc35f958f4883f9d2a80180546001600160a01b031916339081179091556000908152600b6020526040902080546001810191908210620003ea57558151906001600160401b038211620003d557600e5490600182811c92168015620003ca575b6020831014620003b55750601f81116200034b575b50602091601f8211600114620002e157918192600092620002d5575b50508160011b916000199060031b1c191617600e555b60405161133a90816200063d82396080518181816107ed015281816109750152610e68015260a05181818161022201526107860152f35b01519050388062000288565b601f19821692600e60005260206000209160005b858110620003325750836001951062000318575b505050811b01600e556200029e565b015160001960f88460031b161c1916905538808062000309565b91926020600181928685015181550194019201620002f5565b600e6000527fbb7b4a454dc3493923482f07822329ed19e8244eff582cc204f8554c3620c3fd601f830160051c81019160208410620003aa575b601f0160051c01905b8181106200039d57506200026c565b600081556001016200038e565b909150819062000385565b602290634e487b7160e01b6000525260246000fd5b91607f169162000257565b604190634e487b7160e01b6000525260246000fd5b601183634e487b7160e01b6000525260246000fd5b603282634e487b7160e01b6000525260246000fd5b604182634e487b7160e01b6000525260246000fd5b603284634e487b7160e01b6000525260246000fd5b604184634e487b7160e01b6000525260246000fd5b601286634e487b7160e01b6000525260246000fd5b0151905038806200011c565b600080805293506000805160206200197783398151915291905b601f1984168510620004d4576001945083601f19811610620004ba575b505050811b0160005562000132565b015160001960f88460031b161c19169055388080620004ab565b818101518355602094850194600190930192909101906200048e565b6000805290915060008051602062001977833981519152601f840160051c8101916020851062000548575b90601f859493920160051c01905b81811062000538575062000103565b6000815584935060010162000529565b90915081906200051b565b634e487b7160e01b600052602260045260246000fd5b91607f1691620000ed565b634e487b7160e01b600052604160045260246000fd5b600080fd5b6040519190601f01601f191682016001600160401b038111838210176200057457604052565b51906001600160a01b03821682036200058a57565b919080601f840112156200058a5782516001600160401b038111620005745760209062000600601f8201601f191683016200058f565b928184528282870101116200058a5760005b8181106200062857508260009394955001015290565b85810183015184820184015282016200061256fe60808060405260048036101561001f575b5050361561001d57600080fd5b005b60003560e01c91826302d05d3f14610e555750816306e4a5d814610d11578163148c0c7514610b3f5781632a289e67146109595781632fcc345b1461093d578163335e536c1461091f57816339518b5e1461090157816339da3152146108e35781633f3b3b27146108c5578163446ad5491461089e57816348d555eb1461088057816356dad8dc1461068f578163570f8813146106605781635bec4cb4146106425781635daf08ca14610602578163a1657681146105e4578163a230c524146105ad578163a447ce5b14610571578163a693600b14610554578163bab2f55214610536578163bf85ef321461046f578163c623674f1461043b578163ccbac9f51461041d578163d393b97814610245578163d8270dce1461020a578163dbdff2c1146101e7578163f8b2cb4f146101b957508063fcf488a9146101905763ff186b2e1461016d573880610010565b3461018b57600036600319011261018b576020601054604051908152f35b600080fd5b3461018b57600036600319011261018b57600c546040516001600160a01b039091168152602090f35b3461018b57602036600319011261018b57356001600160a01b038116810361018b5760209031604051908152f35b3461018b57600036600319011261018b5760206102026111b7565b604051908152f35b3461018b57600036600319011261018b5760206040517f00000000000000000000000000000000000000000000000000000000000000008152f35b600036600319011261018b576009546007548110156103ea5733316005548091106103af5733600052600b6020526040600020546103785761028890341461116b565b680100000000000000009081811015610363576102ae8160016102cc93016009556110f7565b81546001600160a01b0360039290921b91821b19163390911b179055565b600a549081101561034e576102ae8160016102ea9301600a556110aa565b33600052600b6020526040600020805491600183018093116103395750556005546040519081527f7f3b9effe05cfb4f31f854004de03199fd03fe56bf38a48b2aa9a9f4402d6e2360203392a2005b601190634e487b7160e01b6000525260246000fd5b604182634e487b7160e01b6000525260246000fd5b604183634e487b7160e01b6000525260246000fd5b60405162461bcd60e51b8152602081850152601060248201526f20b63932b0b23c90309036b2b6b132b960811b6044820152606490fd5b60405162461bcd60e51b81526020818501526014602482015273496e73756666696369656e742062616c616e636560601b6044820152606490fd5b60405162461bcd60e51b8152602081840152600c60248201526b115c5d58881a5cc8199d5b1b60a21b6044820152606490fd5b3461018b57600036600319011261018b576020600d54604051908152f35b3461018b57600036600319011261018b5761046b610457610fb6565b60405191829160208352602083019061106a565b0390f35b3461018b57600036600319011261018b57601154604051633fabe5a360e21b8152919060a0908390839082906001600160a01b03165afa91821561052a576000926104dc575b506402540be400918281029281840514901517156103395760208280601055604051908152f35b90915060a0813d8211610522575b816104f760a09383610e97565b8101031261018b57610508816112ed565b5061051a6080602083015192016112ed565b5090826104b5565b3d91506104ea565b6040513d6000823e3d90fd5b3461018b57600036600319011261018b576020600654604051908152f35b3461018b57600036600319011261018b5760209054604051908152f35b3461018b57602036600319011261018b57356001600160a01b0381169081900361018b57600052600b6020526020604060002054604051908152f35b3461018b57602036600319011261018b57356001600160a01b038116810361018b576105da60209161129c565b6040519015158152f35b3461018b57600036600319011261018b576020600754604051908152f35b3461018b57602036600319011261018b573560095481101561018b576106296020916110f7565b905460405160039290921b1c6001600160a01b03168152f35b3461018b57600036600319011261018b576020600854604051908152f35b3461018b57600036600319011261018b57602060405173694aa1769357215de4fac081bf1f309adc3253068152f35b3461018b57600036600319011261018b5760015460025491600354905460055460065493600754600854600954916106c5610ecf565b976106ce610fb6565b9560405197886020600a54918281520190600a6000527fc65a7bb8d6351c1cf70c95a316cc6a92839c986682d98bc35f958f4883f9d2a89060005b81811061086157505050996107228a60209c038b610e97565b604051809b81898e93520160096000527f6e1540171b6c0c960b71a7020d9f60077f6af931a8bbf590da0223dacf75c7af60005b8a811061083f5750500361076a908c610e97565b6040519c8d9c8d6101e090818152016107829161106a565b988d7f000000000000000000000000000000000000000000000000000000000000000060208201526040015260608d015260808c015260a08b015260c08a015260e08901526101008801526101208701526101408601528481036101608601526107eb9161106a565b7f00000000000000000000000000000000000000000000000000000000000000006001600160a01b03166101808501528381036101a085015261082d9161112e565b8281036101c084015261046b9161112e565b81546001600160a01b031683528e935060209092019160019182019101610756565b82546001600160a01b0316845260209093019260019283019201610709565b3461018b57600036600319011261018b576020600554604051908152f35b3461018b57602036600319011261018b5735600a5481101561018b576106296020916110aa565b3461018b57600036600319011261018b576020600354604051908152f35b3461018b57600036600319011261018b576020600f54604051908152f35b3461018b57600036600319011261018b576020600154604051908152f35b3461018b57600036600319011261018b576020600254604051908152f35b3461018b57600036600319011261018b5761046b610457610ecf565b3461018b57600036600319011261018b576001600160a01b03907f000000000000000000000000000000000000000000000000000000000000000082163303610aeb576003546008548101809111610ad6576109b79042101561124b565b6109bf6111b7565b826109c9826110aa565b90549060031b1c166bffffffffffffffffffffffff60a01b600c541617600c5542600355600a5460018111610a70575b5050600a54908115610a5b575060001901610a13816110aa565b8382549160031b1b19169055600a55610a2d60065461128d565b600655600c54167f5b690ec4a06fe979403046eaeea5b3ce38524683c3001f662c8b5a829632f7df600080a2005b603190634e487b7160e01b6000525260246000fd5b6000198101908111610ac15790610a9b84610a8d610aba946110aa565b90549060031b1c16916110aa565b90919082549060031b9160018060a01b03809116831b921b1916179055565b82806109f9565b601183634e487b7160e01b6000525260246000fd5b601182634e487b7160e01b6000525260246000fd5b60849060206040519162461bcd60e51b8352820152602760248201527f4f6e6c79207468652063726561746f722063616e2063616c6c207468697320666044820152663ab731ba34b7b760c91b6064820152fd5b3461018b57600036600319011261018b57600c546001600160a01b0381169133839003610cd65760015415610c9b57610b7c60085442101561124b565b479160055460095490818102918183041490151715610ac157808411610c93575b506001600160a01b031916600c55600080808085875af13d15610c8e573d67ffffffffffffffff81116103635760405190610be2601f8201601f191660200183610e97565b8152600060203d92013e5b15610c5357507f9206244e7d07ef9a49c1dae86e820d494f0dd268fa04f434eb1de8475a4bb55460208392604051908152a260065460075414610c2c57005b7fd29e8545d33d16738453f73ba7267664418170c341c7ab7e3eb60e1fa27dd18e600080a2005b60649060206040519162461bcd60e51b835282015260146024820152732330b4b632b2103a379039b2b7321022ba3432b960611b6044820152fd5b610bed565b925084610b9d565b60649060206040519162461bcd60e51b83528201526014602482015273115c5d58881b9bdd081cdd185c9d1959081e595d60621b6044820152fd5b60649060206040519162461bcd60e51b835282015260146024820152732737ba103a343290363ab1b5bc903bb4b73732b960611b6044820152fd5b600036600319011261018b5733600052602090600b825260406000205415610e245733600052600b8252604060002054600654809111610de1576007541115610dae57610d61600554341461116b565b33600052600b82526040600020805491600183018093116103395750557f2042b7712cb5296596d92ab14e92638ac307b3b6300fa48c5ccd37ad6adbbeb1600554916040519283523392a2005b6064916040519162461bcd60e51b8352820152600e60248201526d115c5d58881a185cc8195b99195960921b6044820152fd5b506064916040519162461bcd60e51b8352820152601b60248201527f416c7265616479207061696420666f722074686973206379636c6500000000006044820152fd5b6064916040519162461bcd60e51b8352820152600c60248201526b2737ba10309036b2b6b132b960a11b6044820152fd5b3461018b57600036600319011261018b577f00000000000000000000000000000000000000000000000000000000000000006001600160a01b03168152602090f35b90601f8019910116810190811067ffffffffffffffff821117610eb957604052565b634e487b7160e01b600052604160045260246000fd5b604051906000805490600182811c90808416938415610fac575b6020948584108114610f985783885287949392918115610f785750600114610f1c575b5050610f1a92500383610e97565b565b60008080527f290decd9548b62a8d60345a988386fc84ba6bc95484008f6362f93160ef3e56395935091905b818310610f60575050610f1a93508201013880610f0c565b85548884018501529485019487945091830191610f48565b915050610f1a94925060ff191682840152151560051b8201013880610f0c565b634e487b7160e01b85526022600452602485fd5b91607f1691610ee9565b604051906000600e5490600182811c90808416938415611060575b6020948584108114610f985783885287949392918115610f785750600114611001575050610f1a92500383610e97565b90939150600e6000527fbb7b4a454dc3493923482f07822329ed19e8244eff582cc204f8554c3620c3fd936000915b818310611048575050610f1a93508201013880610f0c565b85548884018501529485019487945091830191611030565b91607f1691610fd1565b919082519283825260005b848110611096575050826000602080949584010152601f8019910116010190565b602081830181015184830182015201611075565b600a548110156110e157600a6000527fc65a7bb8d6351c1cf70c95a316cc6a92839c986682d98bc35f958f4883f9d2a80190600090565b634e487b7160e01b600052603260045260246000fd5b6009548110156110e15760096000527f6e1540171b6c0c960b71a7020d9f60077f6af931a8bbf590da0223dacf75c7af0190600090565b90815180825260208080930193019160005b82811061114e575050505090565b83516001600160a01b031685529381019392810192600101611140565b1561117257565b60405162461bcd60e51b815260206004820152601d60248201527f496e636f727265637420636f6e747269627574696f6e20616d6f756e740000006044820152606490fd5b6000194301438111611235576006545a6040519160208301934084524260408401523360601b6060840152607483015260948201526094815260c0810181811067ffffffffffffffff821117610eb95760405251902080600d55600a5490811561121f570690565b634e487b7160e01b600052601260045260246000fd5b634e487b7160e01b600052601160045260246000fd5b1561125257565b60405162461bcd60e51b815260206004820152601360248201527210de58db19481b9bdd08195b991959081e595d606a1b6044820152606490fd5b60001981146112355760010190565b6009549060005b8281106112b257505050600090565b6112bb816110f7565b905460039190911b1c6001600160a01b03908116908316146112e5576112e09061128d565b6112a3565b505050600190565b519069ffffffffffffffffffff8216820361018b5756fea264697066735822122024704f11fe99479fa37a4a91520f16e358abf6eeaff3e1d3e93f8251a4124d4f64736f6c63430008140033290decd9548b62a8d60345a988386fc84ba6bc95484008f6362f93160ef3e563a26469706673582212204b5bb00421eba1528d55ef0a6b3fc6ddfb4d7a527970b85668a9ff5f33e2079a64736f6c63430008140033",
  "devdoc": {
    "kind": "dev",
    "methods": {},
    "version": 1
  },
  "userdoc": {
    "kind": "user",
    "methods": {},
    "version": 1
  },
  "storageLayout": {
    "storage": [
      {
        "astId": 850,
        "contract": "contracts/EthqubFactory.sol:EthqubFactory",
        "label": "ethqubArray",
        "offset": 0,
        "slot": "0",
        "type": "t_array(t_contract(Ethqub)841)dyn_storage"
      },
      {
        "astId": 855,
        "contract": "contracts/EthqubFactory.sol:EthqubFactory",
        "label": "ethqubMapping",
        "offset": 0,
        "slot": "1",
        "type": "t_mapping(t_address,t_contract(Ethqub)841)"
      }
    ],
    "types": {
      "t_address": {
        "encoding": "inplace",
        "label": "address",
        "numberOfBytes": "20"
      },
      "t_array(t_contract(Ethqub)841)dyn_storage": {
        "base": "t_contract(Ethqub)841",
        "encoding": "dynamic_array",
        "label": "contract Ethqub[]",
        "numberOfBytes": "32"
      },
      "t_contract(Ethqub)841": {
        "encoding": "inplace",
        "label": "contract Ethqub",
        "numberOfBytes": "20"
      },
      "t_mapping(t_address,t_contract(Ethqub)841)": {
        "encoding": "mapping",
        "key": "t_address",
        "label": "mapping(address => contract Ethqub)",
        "numberOfBytes": "32",
        "value": "t_contract(Ethqub)841"
      }
    }
  }
}